{
  "contractName": "EggToken",
  "abi": [
    {
      "inputs": [
        {
          "internalType": "string",
          "name": "_name",
          "type": "string"
        },
        {
          "internalType": "string",
          "name": "_symbol",
          "type": "string"
        },
        {
          "internalType": "string",
          "name": "_metadataURI",
          "type": "string"
        }
      ],
      "stateMutability": "nonpayable",
      "type": "constructor"
    },
    {
      "anonymous": false,
      "inputs": [
        {
          "indexed": true,
          "internalType": "address",
          "name": "owner",
          "type": "address"
        },
        {
          "indexed": true,
          "internalType": "address",
          "name": "approved",
          "type": "address"
        },
        {
          "indexed": true,
          "internalType": "uint256",
          "name": "tokenId",
          "type": "uint256"
        }
      ],
      "name": "Approval",
      "type": "event"
    },
    {
      "anonymous": false,
      "inputs": [
        {
          "indexed": true,
          "internalType": "address",
          "name": "owner",
          "type": "address"
        },
        {
          "indexed": true,
          "internalType": "address",
          "name": "operator",
          "type": "address"
        },
        {
          "indexed": false,
          "internalType": "bool",
          "name": "approved",
          "type": "bool"
        }
      ],
      "name": "ApprovalForAll",
      "type": "event"
    },
    {
      "anonymous": false,
      "inputs": [
        {
          "indexed": false,
          "internalType": "uint256",
          "name": "tokenId",
          "type": "uint256"
        },
        {
          "indexed": false,
          "internalType": "string",
          "name": "state",
          "type": "string"
        },
        {
          "indexed": false,
          "internalType": "uint256",
          "name": "price",
          "type": "uint256"
        },
        {
          "indexed": false,
          "internalType": "address",
          "name": "from",
          "type": "address"
        },
        {
          "indexed": false,
          "internalType": "address",
          "name": "to",
          "type": "address"
        }
      ],
      "name": "Minting",
      "type": "event"
    },
    {
      "anonymous": false,
      "inputs": [
        {
          "indexed": true,
          "internalType": "address",
          "name": "previousOwner",
          "type": "address"
        },
        {
          "indexed": true,
          "internalType": "address",
          "name": "newOwner",
          "type": "address"
        }
      ],
      "name": "OwnershipTransferred",
      "type": "event"
    },
    {
      "anonymous": false,
      "inputs": [
        {
          "indexed": true,
          "internalType": "address",
          "name": "from",
          "type": "address"
        },
        {
          "indexed": true,
          "internalType": "address",
          "name": "to",
          "type": "address"
        },
        {
          "indexed": true,
          "internalType": "uint256",
          "name": "tokenId",
          "type": "uint256"
        }
      ],
      "name": "Transfer",
      "type": "event"
    },
    {
      "inputs": [],
      "name": "MAX_TOKEN_COUNT",
      "outputs": [
        {
          "internalType": "uint256",
          "name": "",
          "type": "uint256"
        }
      ],
      "stateMutability": "view",
      "type": "function",
      "constant": true
    },
    {
      "inputs": [],
      "name": "a",
      "outputs": [
        {
          "internalType": "string",
          "name": "",
          "type": "string"
        }
      ],
      "stateMutability": "view",
      "type": "function",
      "constant": true
    },
    {
      "inputs": [
        {
          "internalType": "address",
          "name": "to",
          "type": "address"
        },
        {
          "internalType": "uint256",
          "name": "tokenId",
          "type": "uint256"
        }
      ],
      "name": "approve",
      "outputs": [],
      "stateMutability": "nonpayable",
      "type": "function"
    },
    {
      "inputs": [
        {
          "internalType": "address",
          "name": "owner",
          "type": "address"
        }
      ],
      "name": "balanceOf",
      "outputs": [
        {
          "internalType": "uint256",
          "name": "",
          "type": "uint256"
        }
      ],
      "stateMutability": "view",
      "type": "function",
      "constant": true
    },
    {
      "inputs": [
        {
          "internalType": "uint256",
          "name": "tokenId",
          "type": "uint256"
        }
      ],
      "name": "getApproved",
      "outputs": [
        {
          "internalType": "address",
          "name": "",
          "type": "address"
        }
      ],
      "stateMutability": "view",
      "type": "function",
      "constant": true
    },
    {
      "inputs": [
        {
          "internalType": "address",
          "name": "owner",
          "type": "address"
        },
        {
          "internalType": "address",
          "name": "operator",
          "type": "address"
        }
      ],
      "name": "isApprovedForAll",
      "outputs": [
        {
          "internalType": "bool",
          "name": "",
          "type": "bool"
        }
      ],
      "stateMutability": "view",
      "type": "function",
      "constant": true
    },
    {
      "inputs": [],
      "name": "metadataURI",
      "outputs": [
        {
          "internalType": "string",
          "name": "",
          "type": "string"
        }
      ],
      "stateMutability": "view",
      "type": "function",
      "constant": true
    },
    {
      "inputs": [],
      "name": "mintPrice",
      "outputs": [
        {
          "internalType": "uint256",
          "name": "",
          "type": "uint256"
        }
      ],
      "stateMutability": "view",
      "type": "function",
      "constant": true
    },
    {
      "inputs": [],
      "name": "name",
      "outputs": [
        {
          "internalType": "string",
          "name": "",
          "type": "string"
        }
      ],
      "stateMutability": "view",
      "type": "function",
      "constant": true
    },
    {
      "inputs": [],
      "name": "owner",
      "outputs": [
        {
          "internalType": "address",
          "name": "",
          "type": "address"
        }
      ],
      "stateMutability": "view",
      "type": "function",
      "constant": true
    },
    {
      "inputs": [
        {
          "internalType": "uint256",
          "name": "tokenId",
          "type": "uint256"
        }
      ],
      "name": "ownerOf",
      "outputs": [
        {
          "internalType": "address",
          "name": "",
          "type": "address"
        }
      ],
      "stateMutability": "view",
      "type": "function",
      "constant": true
    },
    {
      "inputs": [],
      "name": "renounceOwnership",
      "outputs": [],
      "stateMutability": "nonpayable",
      "type": "function"
    },
    {
      "inputs": [
        {
          "internalType": "address",
          "name": "from",
          "type": "address"
        },
        {
          "internalType": "address",
          "name": "to",
          "type": "address"
        },
        {
          "internalType": "uint256",
          "name": "tokenId",
          "type": "uint256"
        }
      ],
      "name": "safeTransferFrom",
      "outputs": [],
      "stateMutability": "nonpayable",
      "type": "function"
    },
    {
      "inputs": [
        {
          "internalType": "address",
          "name": "from",
          "type": "address"
        },
        {
          "internalType": "address",
          "name": "to",
          "type": "address"
        },
        {
          "internalType": "uint256",
          "name": "tokenId",
          "type": "uint256"
        },
        {
          "internalType": "bytes",
          "name": "_data",
          "type": "bytes"
        }
      ],
      "name": "safeTransferFrom",
      "outputs": [],
      "stateMutability": "nonpayable",
      "type": "function"
    },
    {
      "inputs": [
        {
          "internalType": "address",
          "name": "operator",
          "type": "address"
        },
        {
          "internalType": "bool",
          "name": "approved",
          "type": "bool"
        }
      ],
      "name": "setApprovalForAll",
      "outputs": [],
      "stateMutability": "nonpayable",
      "type": "function"
    },
    {
      "inputs": [
        {
          "internalType": "bytes4",
          "name": "interfaceId",
          "type": "bytes4"
        }
      ],
      "name": "supportsInterface",
      "outputs": [
        {
          "internalType": "bool",
          "name": "",
          "type": "bool"
        }
      ],
      "stateMutability": "view",
      "type": "function",
      "constant": true
    },
    {
      "inputs": [],
      "name": "symbol",
      "outputs": [
        {
          "internalType": "string",
          "name": "",
          "type": "string"
        }
      ],
      "stateMutability": "view",
      "type": "function",
      "constant": true
    },
    {
      "inputs": [
        {
          "internalType": "uint256",
          "name": "index",
          "type": "uint256"
        }
      ],
      "name": "tokenByIndex",
      "outputs": [
        {
          "internalType": "uint256",
          "name": "",
          "type": "uint256"
        }
      ],
      "stateMutability": "view",
      "type": "function",
      "constant": true
    },
    {
      "inputs": [
        {
          "internalType": "address",
          "name": "owner",
          "type": "address"
        },
        {
          "internalType": "uint256",
          "name": "index",
          "type": "uint256"
        }
      ],
      "name": "tokenOfOwnerByIndex",
      "outputs": [
        {
          "internalType": "uint256",
          "name": "",
          "type": "uint256"
        }
      ],
      "stateMutability": "view",
      "type": "function",
      "constant": true
    },
    {
      "inputs": [],
      "name": "totalSupply",
      "outputs": [
        {
          "internalType": "uint256",
          "name": "",
          "type": "uint256"
        }
      ],
      "stateMutability": "view",
      "type": "function",
      "constant": true
    },
    {
      "inputs": [
        {
          "internalType": "address",
          "name": "from",
          "type": "address"
        },
        {
          "internalType": "address",
          "name": "to",
          "type": "address"
        },
        {
          "internalType": "uint256",
          "name": "tokenId",
          "type": "uint256"
        }
      ],
      "name": "transferFrom",
      "outputs": [],
      "stateMutability": "nonpayable",
      "type": "function"
    },
    {
      "inputs": [
        {
          "internalType": "address",
          "name": "newOwner",
          "type": "address"
        }
      ],
      "name": "transferOwnership",
      "outputs": [],
      "stateMutability": "nonpayable",
      "type": "function"
    },
    {
      "inputs": [
        {
          "internalType": "address",
          "name": "_saleContractCA",
          "type": "address"
        },
        {
          "internalType": "uint256",
          "name": "_tokenId",
          "type": "uint256"
        }
      ],
      "name": "mintToken",
      "outputs": [],
      "stateMutability": "payable",
      "type": "function",
      "payable": true
    },
    {
      "inputs": [
        {
          "internalType": "uint256",
          "name": "_tokenId",
          "type": "uint256"
        }
      ],
      "name": "tokenURI",
      "outputs": [
        {
          "internalType": "string",
          "name": "",
          "type": "string"
        }
      ],
      "stateMutability": "view",
      "type": "function",
      "constant": true
    },
    {
      "inputs": [
        {
          "internalType": "string",
          "name": "_uri",
          "type": "string"
        }
      ],
      "name": "setMetadataURI",
      "outputs": [],
      "stateMutability": "nonpayable",
      "type": "function"
    }
  ],
  "bytecode": "0x6080604052600a600c553480156200001657600080fd5b50604051620041ef380380620041ef83398181016040528101906200003c919062000300565b828281600090816200004f919062000604565b50806001908162000061919062000604565b50505062000084620000786200009f60201b60201c565b620000a760201b60201c565b80600d908162000095919062000604565b50505050620006eb565b600033905090565b6000600a60009054906101000a900473ffffffffffffffffffffffffffffffffffffffff16905081600a60006101000a81548173ffffffffffffffffffffffffffffffffffffffff021916908373ffffffffffffffffffffffffffffffffffffffff1602179055508173ffffffffffffffffffffffffffffffffffffffff168173ffffffffffffffffffffffffffffffffffffffff167f8be0079c531659141344cd1fd0a4f28419497f9722a3daafe3b4186f6b6457e060405160405180910390a35050565b6000604051905090565b600080fd5b600080fd5b600080fd5b600080fd5b6000601f19601f8301169050919050565b7f4e487b7100000000000000000000000000000000000000000000000000000000600052604160045260246000fd5b620001d6826200018b565b810181811067ffffffffffffffff82111715620001f857620001f76200019c565b5b80604052505050565b60006200020d6200016d565b90506200021b8282620001cb565b919050565b600067ffffffffffffffff8211156200023e576200023d6200019c565b5b62000249826200018b565b9050602081019050919050565b60005b838110156200027657808201518184015260208101905062000259565b60008484015250505050565b600062000299620002938462000220565b62000201565b905082815260208101848484011115620002b857620002b762000186565b5b620002c584828562000256565b509392505050565b600082601f830112620002e557620002e462000181565b5b8151620002f784826020860162000282565b91505092915050565b6000806000606084860312156200031c576200031b62000177565b5b600084015167ffffffffffffffff8111156200033d576200033c6200017c565b5b6200034b86828701620002cd565b935050602084015167ffffffffffffffff8111156200036f576200036e6200017c565b5b6200037d86828701620002cd565b925050604084015167ffffffffffffffff811115620003a157620003a06200017c565b5b620003af86828701620002cd565b9150509250925092565b600081519050919050565b7f4e487b7100000000000000000000000000000000000000000000000000000000600052602260045260246000fd5b600060028204905060018216806200040c57607f821691505b602082108103620004225762000421620003c4565b5b50919050565b60008190508160005260206000209050919050565b60006020601f8301049050919050565b600082821b905092915050565b6000600883026200048c7fffffffffffffffffffffffffffffffffffffffffffffffffffffffffffffffff826200044d565b6200049886836200044d565b95508019841693508086168417925050509392505050565b6000819050919050565b6000819050919050565b6000620004e5620004df620004d984620004b0565b620004ba565b620004b0565b9050919050565b6000819050919050565b6200050183620004c4565b620005196200051082620004ec565b8484546200045a565b825550505050565b600090565b6200053062000521565b6200053d818484620004f6565b505050565b5b8181101562000565576200055960008262000526565b60018101905062000543565b5050565b601f821115620005b4576200057e8162000428565b62000589846200043d565b8101602085101562000599578190505b620005b1620005a8856200043d565b83018262000542565b50505b505050565b600082821c905092915050565b6000620005d960001984600802620005b9565b1980831691505092915050565b6000620005f48383620005c6565b9150826002028217905092915050565b6200060f82620003b9565b67ffffffffffffffff8111156200062b576200062a6200019c565b5b620006378254620003f3565b6200064482828562000569565b600060209050601f8311600181146200067c576000841562000667578287015190505b620006738582620005e6565b865550620006e3565b601f1984166200068c8662000428565b60005b82811015620006b6578489015182556001820191506020850194506020810190506200068f565b86831015620006d65784890151620006d2601f891682620005c6565b8355505b6001600288020188555050505b505050505050565b613af480620006fb6000396000f3fe6080604052600436106101665760003560e01c80636817c76c116100d157806395d89b411161008a578063c87b56dd11610064578063c87b56dd1461052f578063d0bbb0d71461056c578063e985e9c514610597578063f2fde38b146105d457610166565b806395d89b41146104b2578063a22cb465146104dd578063b88d4fde1461050657610166565b80636817c76c146103c357806370a08231146103ee578063715018a61461042b578063750521f51461044257806379c650681461046b5780638da5cb5b1461048757610166565b806318160ddd1161012357806318160ddd1461028f57806323b872dd146102ba5780632f745c59146102e357806342842e0e146103205780634f6ccce7146103495780636352211e1461038657610166565b806301ffc9a71461016b57806303ee438c146101a857806306fdde03146101d3578063081812fc146101fe578063095ea7b31461023b5780630dbe671f14610264575b600080fd5b34801561017757600080fd5b50610192600480360381019061018d919061236d565b6105fd565b60405161019f91906123b5565b60405180910390f35b3480156101b457600080fd5b506101bd610677565b6040516101ca9190612460565b60405180910390f35b3480156101df57600080fd5b506101e8610705565b6040516101f59190612460565b60405180910390f35b34801561020a57600080fd5b50610225600480360381019061022091906124b8565b610797565b6040516102329190612526565b60405180910390f35b34801561024757600080fd5b50610262600480360381019061025d919061256d565b61081c565b005b34801561027057600080fd5b50610279610933565b6040516102869190612460565b60405180910390f35b34801561029b57600080fd5b506102a46109c1565b6040516102b191906125bc565b60405180910390f35b3480156102c657600080fd5b506102e160048036038101906102dc91906125d7565b6109ce565b005b3480156102ef57600080fd5b5061030a6004803603810190610305919061256d565b610a2e565b60405161031791906125bc565b60405180910390f35b34801561032c57600080fd5b50610347600480360381019061034291906125d7565b610ad3565b005b34801561035557600080fd5b50610370600480360381019061036b91906124b8565b610af3565b60405161037d91906125bc565b60405180910390f35b34801561039257600080fd5b506103ad60048036038101906103a891906124b8565b610b64565b6040516103ba9190612526565b60405180910390f35b3480156103cf57600080fd5b506103d8610c15565b6040516103e591906125bc565b60405180910390f35b3480156103fa57600080fd5b506104156004803603810190610410919061262a565b610c1b565b60405161042291906125bc565b60405180910390f35b34801561043757600080fd5b50610440610cd2565b005b34801561044e57600080fd5b506104696004803603810190610464919061278c565b610d5a565b005b6104856004803603810190610480919061256d565b610de9565b005b34801561049357600080fd5b5061049c610eb2565b6040516104a99190612526565b60405180910390f35b3480156104be57600080fd5b506104c7610edc565b6040516104d49190612460565b60405180910390f35b3480156104e957600080fd5b5061050460048036038101906104ff9190612801565b610f6e565b005b34801561051257600080fd5b5061052d600480360381019061052891906128e2565b610f84565b005b34801561053b57600080fd5b50610556600480360381019061055191906124b8565b610fe6565b6040516105639190612460565b60405180910390f35b34801561057857600080fd5b50610581611020565b60405161058e91906125bc565b60405180910390f35b3480156105a357600080fd5b506105be60048036038101906105b99190612965565b611026565b6040516105cb91906123b5565b60405180910390f35b3480156105e057600080fd5b506105fb60048036038101906105f6919061262a565b6110ba565b005b60007f780e9d63000000000000000000000000000000000000000000000000000000007bffffffffffffffffffffffffffffffffffffffffffffffffffffffff1916827bffffffffffffffffffffffffffffffffffffffffffffffffffffffff19161480610670575061066f826111b1565b5b9050919050565b600d8054610684906129d4565b80601f01602080910402602001604051908101604052809291908181526020018280546106b0906129d4565b80156106fd5780601f106106d2576101008083540402835291602001916106fd565b820191906000526020600020905b8154815290600101906020018083116106e057829003601f168201915b505050505081565b606060008054610714906129d4565b80601f0160208091040260200160405190810160405280929190818152602001828054610740906129d4565b801561078d5780601f106107625761010080835404028352916020019161078d565b820191906000526020600020905b81548152906001019060200180831161077057829003601f168201915b5050505050905090565b60006107a282611293565b6107e1576040517f08c379a00000000000000000000000000000000000000000000000000000000081526004016107d890612a77565b60405180910390fd5b6004600083815260200190815260200160002060009054906101000a900473ffffffffffffffffffffffffffffffffffffffff169050919050565b600061082782610b64565b90508073ffffffffffffffffffffffffffffffffffffffff168373ffffffffffffffffffffffffffffffffffffffff1603610897576040517f08c379a000000000000000000000000000000000000000000000000000000000815260040161088e90612b09565b60405180910390fd5b8073ffffffffffffffffffffffffffffffffffffffff166108b66112ff565b73ffffffffffffffffffffffffffffffffffffffff1614806108e557506108e4816108df6112ff565b611026565b5b610924576040517f08c379a000000000000000000000000000000000000000000000000000000000815260040161091b90612b9b565b60405180910390fd5b61092e8383611307565b505050565b600b8054610940906129d4565b80601f016020809104026020016040519081016040528092919081815260200182805461096c906129d4565b80156109b95780601f1061098e576101008083540402835291602001916109b9565b820191906000526020600020905b81548152906001019060200180831161099c57829003601f168201915b505050505081565b6000600880549050905090565b6109df6109d96112ff565b826113c0565b610a1e576040517f08c379a0000000000000000000000000000000000000000000000000000000008152600401610a1590612c2d565b60405180910390fd5b610a2983838361149e565b505050565b6000610a3983610c1b565b8210610a7a576040517f08c379a0000000000000000000000000000000000000000000000000000000008152600401610a7190612cbf565b60405180910390fd5b600660008473ffffffffffffffffffffffffffffffffffffffff1673ffffffffffffffffffffffffffffffffffffffff168152602001908152602001600020600083815260200190815260200160002054905092915050565b610aee83838360405180602001604052806000815250610f84565b505050565b6000610afd6109c1565b8210610b3e576040517f08c379a0000000000000000000000000000000000000000000000000000000008152600401610b3590612d51565b60405180910390fd5b60088281548110610b5257610b51612d71565b5b90600052602060002001549050919050565b6000806002600084815260200190815260200160002060009054906101000a900473ffffffffffffffffffffffffffffffffffffffff169050600073ffffffffffffffffffffffffffffffffffffffff168173ffffffffffffffffffffffffffffffffffffffff1603610c0c576040517f08c379a0000000000000000000000000000000000000000000000000000000008152600401610c0390612e12565b60405180910390fd5b80915050919050565b600c5481565b60008073ffffffffffffffffffffffffffffffffffffffff168273ffffffffffffffffffffffffffffffffffffffff1603610c8b576040517f08c379a0000000000000000000000000000000000000000000000000000000008152600401610c8290612ea4565b60405180910390fd5b600360008373ffffffffffffffffffffffffffffffffffffffff1673ffffffffffffffffffffffffffffffffffffffff168152602001908152602001600020549050919050565b610cda6112ff565b73ffffffffffffffffffffffffffffffffffffffff16610cf8610eb2565b73ffffffffffffffffffffffffffffffffffffffff1614610d4e576040517f08c379a0000000000000000000000000000000000000000000000000000000008152600401610d4590612f10565b60405180910390fd5b610d586000611704565b565b610d626112ff565b73ffffffffffffffffffffffffffffffffffffffff16610d80610eb2565b73ffffffffffffffffffffffffffffffffffffffff1614610dd6576040517f08c379a0000000000000000000000000000000000000000000000000000000008152600401610dcd90612f10565b60405180910390fd5b80600d9081610de591906130dc565b5050565b600c54341015610df857600080fd5b610e006109c1565b6101f411610e0d57600080fd5b610e15610eb2565b73ffffffffffffffffffffffffffffffffffffffff166108fc349081150290604051600060405180830381858888f19350505050158015610e5a573d6000803e3d6000fd5b50610e6533826117ca565b610e70826001610f6e565b7f02a7ba4c53bc7189642c7895c6827a394b701a4763f59bdde50ec993f13089fc8160008033604051610ea69493929190613235565b60405180910390a15050565b6000600a60009054906101000a900473ffffffffffffffffffffffffffffffffffffffff16905090565b606060018054610eeb906129d4565b80601f0160208091040260200160405190810160405280929190818152602001828054610f17906129d4565b8015610f645780601f10610f3957610100808354040283529160200191610f64565b820191906000526020600020905b815481529060010190602001808311610f4757829003601f168201915b5050505050905090565b610f80610f796112ff565b83836119a3565b5050565b610f95610f8f6112ff565b836113c0565b610fd4576040517f08c379a0000000000000000000000000000000000000000000000000000000008152600401610fcb90612c2d565b60405180910390fd5b610fe084848484611b0f565b50505050565b60606000610ff383611b6b565b9050600d816040516020016110099291906133e4565b604051602081830303815290604052915050919050565b6101f481565b6000600560008473ffffffffffffffffffffffffffffffffffffffff1673ffffffffffffffffffffffffffffffffffffffff16815260200190815260200160002060008373ffffffffffffffffffffffffffffffffffffffff1673ffffffffffffffffffffffffffffffffffffffff16815260200190815260200160002060009054906101000a900460ff16905092915050565b6110c26112ff565b73ffffffffffffffffffffffffffffffffffffffff166110e0610eb2565b73ffffffffffffffffffffffffffffffffffffffff1614611136576040517f08c379a000000000000000000000000000000000000000000000000000000000815260040161112d90612f10565b60405180910390fd5b600073ffffffffffffffffffffffffffffffffffffffff168173ffffffffffffffffffffffffffffffffffffffff16036111a5576040517f08c379a000000000000000000000000000000000000000000000000000000000815260040161119c90613490565b60405180910390fd5b6111ae81611704565b50565b60007f80ac58cd000000000000000000000000000000000000000000000000000000007bffffffffffffffffffffffffffffffffffffffffffffffffffffffff1916827bffffffffffffffffffffffffffffffffffffffffffffffffffffffff1916148061127c57507f5b5e139f000000000000000000000000000000000000000000000000000000007bffffffffffffffffffffffffffffffffffffffffffffffffffffffff1916827bffffffffffffffffffffffffffffffffffffffffffffffffffffffff1916145b8061128c575061128b82611ccb565b5b9050919050565b60008073ffffffffffffffffffffffffffffffffffffffff166002600084815260200190815260200160002060009054906101000a900473ffffffffffffffffffffffffffffffffffffffff1673ffffffffffffffffffffffffffffffffffffffff1614159050919050565b600033905090565b816004600083815260200190815260200160002060006101000a81548173ffffffffffffffffffffffffffffffffffffffff021916908373ffffffffffffffffffffffffffffffffffffffff160217905550808273ffffffffffffffffffffffffffffffffffffffff1661137a83610b64565b73ffffffffffffffffffffffffffffffffffffffff167f8c5be1e5ebec7d5bd14f71427d1e84f3dd0314c0f7b2291e5b200ac8c7c3b92560405160405180910390a45050565b60006113cb82611293565b61140a576040517f08c379a000000000000000000000000000000000000000000000000000000000815260040161140190613522565b60405180910390fd5b600061141583610b64565b90508073ffffffffffffffffffffffffffffffffffffffff168473ffffffffffffffffffffffffffffffffffffffff16148061145757506114568185611026565b5b8061149557508373ffffffffffffffffffffffffffffffffffffffff1661147d84610797565b73ffffffffffffffffffffffffffffffffffffffff16145b91505092915050565b8273ffffffffffffffffffffffffffffffffffffffff166114be82610b64565b73ffffffffffffffffffffffffffffffffffffffff1614611514576040517f08c379a000000000000000000000000000000000000000000000000000000000815260040161150b906135b4565b60405180910390fd5b600073ffffffffffffffffffffffffffffffffffffffff168273ffffffffffffffffffffffffffffffffffffffff1603611583576040517f08c379a000000000000000000000000000000000000000000000000000000000815260040161157a90613646565b60405180910390fd5b61158e838383611d35565b611599600082611307565b6001600360008573ffffffffffffffffffffffffffffffffffffffff1673ffffffffffffffffffffffffffffffffffffffff16815260200190815260200160002060008282546115e99190613695565b925050819055506001600360008473ffffffffffffffffffffffffffffffffffffffff1673ffffffffffffffffffffffffffffffffffffffff168152602001908152602001600020600082825461164091906136c9565b92505081905550816002600083815260200190815260200160002060006101000a81548173ffffffffffffffffffffffffffffffffffffffff021916908373ffffffffffffffffffffffffffffffffffffffff160217905550808273ffffffffffffffffffffffffffffffffffffffff168473ffffffffffffffffffffffffffffffffffffffff167fddf252ad1be2c89b69c2b068fc378daa952ba7f163c4a11628f55a4df523b3ef60405160405180910390a46116ff838383611e47565b505050565b6000600a60009054906101000a900473ffffffffffffffffffffffffffffffffffffffff16905081600a60006101000a81548173ffffffffffffffffffffffffffffffffffffffff021916908373ffffffffffffffffffffffffffffffffffffffff1602179055508173ffffffffffffffffffffffffffffffffffffffff168173ffffffffffffffffffffffffffffffffffffffff167f8be0079c531659141344cd1fd0a4f28419497f9722a3daafe3b4186f6b6457e060405160405180910390a35050565b600073ffffffffffffffffffffffffffffffffffffffff168273ffffffffffffffffffffffffffffffffffffffff1603611839576040517f08c379a000000000000000000000000000000000000000000000000000000000815260040161183090613749565b60405180910390fd5b61184281611293565b15611882576040517f08c379a0000000000000000000000000000000000000000000000000000000008152600401611879906137b5565b60405180910390fd5b61188e60008383611d35565b6001600360008473ffffffffffffffffffffffffffffffffffffffff1673ffffffffffffffffffffffffffffffffffffffff16815260200190815260200160002060008282546118de91906136c9565b92505081905550816002600083815260200190815260200160002060006101000a81548173ffffffffffffffffffffffffffffffffffffffff021916908373ffffffffffffffffffffffffffffffffffffffff160217905550808273ffffffffffffffffffffffffffffffffffffffff16600073ffffffffffffffffffffffffffffffffffffffff167fddf252ad1be2c89b69c2b068fc378daa952ba7f163c4a11628f55a4df523b3ef60405160405180910390a461199f60008383611e47565b5050565b8173ffffffffffffffffffffffffffffffffffffffff168373ffffffffffffffffffffffffffffffffffffffff1603611a11576040517f08c379a0000000000000000000000000000000000000000000000000000000008152600401611a0890613821565b60405180910390fd5b80600560008573ffffffffffffffffffffffffffffffffffffffff1673ffffffffffffffffffffffffffffffffffffffff16815260200190815260200160002060008473ffffffffffffffffffffffffffffffffffffffff1673ffffffffffffffffffffffffffffffffffffffff16815260200190815260200160002060006101000a81548160ff0219169083151502179055508173ffffffffffffffffffffffffffffffffffffffff168373ffffffffffffffffffffffffffffffffffffffff167f17307eab39ab6107e8899845ad3d59bd9653f200f220920489ca2b5937696c3183604051611b0291906123b5565b60405180910390a3505050565b611b1a84848461149e565b611b2684848484611e4c565b611b65576040517f08c379a0000000000000000000000000000000000000000000000000000000008152600401611b5c906138b3565b60405180910390fd5b50505050565b606060008203611bb2576040518060400160405280600181526020017f30000000000000000000000000000000000000000000000000000000000000008152509050611cc6565b600082905060005b60008214611be4578080611bcd906138d3565b915050600a82611bdd919061394a565b9150611bba565b60008167ffffffffffffffff811115611c0057611bff612661565b5b6040519080825280601f01601f191660200182016040528015611c325781602001600182028036833780820191505090505b5090505b60008514611cbf57600182611c4b9190613695565b9150600a85611c5a919061397b565b6030611c6691906136c9565b60f81b818381518110611c7c57611c7b612d71565b5b60200101907effffffffffffffffffffffffffffffffffffffffffffffffffffffffffffff1916908160001a905350600a85611cb8919061394a565b9450611c36565b8093505050505b919050565b60007f01ffc9a7000000000000000000000000000000000000000000000000000000007bffffffffffffffffffffffffffffffffffffffffffffffffffffffff1916827bffffffffffffffffffffffffffffffffffffffffffffffffffffffff1916149050919050565b611d40838383611fd3565b600073ffffffffffffffffffffffffffffffffffffffff168373ffffffffffffffffffffffffffffffffffffffff1603611d8257611d7d81611fd8565b611dc1565b8173ffffffffffffffffffffffffffffffffffffffff168373ffffffffffffffffffffffffffffffffffffffff1614611dc057611dbf8382612021565b5b5b600073ffffffffffffffffffffffffffffffffffffffff168273ffffffffffffffffffffffffffffffffffffffff1603611e0357611dfe8161218e565b611e42565b8273ffffffffffffffffffffffffffffffffffffffff168273ffffffffffffffffffffffffffffffffffffffff1614611e4157611e40828261225f565b5b5b505050565b505050565b6000611e6d8473ffffffffffffffffffffffffffffffffffffffff166122de565b15611fc6578373ffffffffffffffffffffffffffffffffffffffff1663150b7a02611e966112ff565b8786866040518563ffffffff1660e01b8152600401611eb89493929190613a01565b6020604051808303816000875af1925050508015611ef457506040513d601f19601f82011682018060405250810190611ef19190613a62565b60015b611f76573d8060008114611f24576040519150601f19603f3d011682016040523d82523d6000602084013e611f29565b606091505b506000815103611f6e576040517f08c379a0000000000000000000000000000000000000000000000000000000008152600401611f65906138b3565b60405180910390fd5b805181602001fd5b63150b7a0260e01b7bffffffffffffffffffffffffffffffffffffffffffffffffffffffff1916817bffffffffffffffffffffffffffffffffffffffffffffffffffffffff191614915050611fcb565b600190505b949350505050565b505050565b6008805490506009600083815260200190815260200160002081905550600881908060018154018082558091505060019003906000526020600020016000909190919091505550565b6000600161202e84610c1b565b6120389190613695565b905060006007600084815260200190815260200160002054905081811461211d576000600660008673ffffffffffffffffffffffffffffffffffffffff1673ffffffffffffffffffffffffffffffffffffffff168152602001908152602001600020600084815260200190815260200160002054905080600660008773ffffffffffffffffffffffffffffffffffffffff1673ffffffffffffffffffffffffffffffffffffffff168152602001908152602001600020600084815260200190815260200160002081905550816007600083815260200190815260200160002081905550505b6007600084815260200190815260200160002060009055600660008573ffffffffffffffffffffffffffffffffffffffff1673ffffffffffffffffffffffffffffffffffffffff16815260200190815260200160002060008381526020019081526020016000206000905550505050565b600060016008805490506121a29190613695565b90506000600960008481526020019081526020016000205490506000600883815481106121d2576121d1612d71565b5b9060005260206000200154905080600883815481106121f4576121f3612d71565b5b90600052602060002001819055508160096000838152602001908152602001600020819055506009600085815260200190815260200160002060009055600880548061224357612242613a8f565b5b6001900381819060005260206000200160009055905550505050565b600061226a83610c1b565b905081600660008573ffffffffffffffffffffffffffffffffffffffff1673ffffffffffffffffffffffffffffffffffffffff168152602001908152602001600020600083815260200190815260200160002081905550806007600084815260200190815260200160002081905550505050565b6000808273ffffffffffffffffffffffffffffffffffffffff163b119050919050565b6000604051905090565b600080fd5b600080fd5b60007fffffffff0000000000000000000000000000000000000000000000000000000082169050919050565b61234a81612315565b811461235557600080fd5b50565b60008135905061236781612341565b92915050565b6000602082840312156123835761238261230b565b5b600061239184828501612358565b91505092915050565b60008115159050919050565b6123af8161239a565b82525050565b60006020820190506123ca60008301846123a6565b92915050565b600081519050919050565b600082825260208201905092915050565b60005b8381101561240a5780820151818401526020810190506123ef565b60008484015250505050565b6000601f19601f8301169050919050565b6000612432826123d0565b61243c81856123db565b935061244c8185602086016123ec565b61245581612416565b840191505092915050565b6000602082019050818103600083015261247a8184612427565b905092915050565b6000819050919050565b61249581612482565b81146124a057600080fd5b50565b6000813590506124b28161248c565b92915050565b6000602082840312156124ce576124cd61230b565b5b60006124dc848285016124a3565b91505092915050565b600073ffffffffffffffffffffffffffffffffffffffff82169050919050565b6000612510826124e5565b9050919050565b61252081612505565b82525050565b600060208201905061253b6000830184612517565b92915050565b61254a81612505565b811461255557600080fd5b50565b60008135905061256781612541565b92915050565b600080604083850312156125845761258361230b565b5b600061259285828601612558565b92505060206125a3858286016124a3565b9150509250929050565b6125b681612482565b82525050565b60006020820190506125d160008301846125ad565b92915050565b6000806000606084860312156125f0576125ef61230b565b5b60006125fe86828701612558565b935050602061260f86828701612558565b9250506040612620868287016124a3565b9150509250925092565b6000602082840312156126405761263f61230b565b5b600061264e84828501612558565b91505092915050565b600080fd5b600080fd5b7f4e487b7100000000000000000000000000000000000000000000000000000000600052604160045260246000fd5b61269982612416565b810181811067ffffffffffffffff821117156126b8576126b7612661565b5b80604052505050565b60006126cb612301565b90506126d78282612690565b919050565b600067ffffffffffffffff8211156126f7576126f6612661565b5b61270082612416565b9050602081019050919050565b82818337600083830152505050565b600061272f61272a846126dc565b6126c1565b90508281526020810184848401111561274b5761274a61265c565b5b61275684828561270d565b509392505050565b600082601f83011261277357612772612657565b5b813561278384826020860161271c565b91505092915050565b6000602082840312156127a2576127a161230b565b5b600082013567ffffffffffffffff8111156127c0576127bf612310565b5b6127cc8482850161275e565b91505092915050565b6127de8161239a565b81146127e957600080fd5b50565b6000813590506127fb816127d5565b92915050565b600080604083850312156128185761281761230b565b5b600061282685828601612558565b9250506020612837858286016127ec565b9150509250929050565b600067ffffffffffffffff82111561285c5761285b612661565b5b61286582612416565b9050602081019050919050565b600061288561288084612841565b6126c1565b9050828152602081018484840111156128a1576128a061265c565b5b6128ac84828561270d565b509392505050565b600082601f8301126128c9576128c8612657565b5b81356128d9848260208601612872565b91505092915050565b600080600080608085870312156128fc576128fb61230b565b5b600061290a87828801612558565b945050602061291b87828801612558565b935050604061292c878288016124a3565b925050606085013567ffffffffffffffff81111561294d5761294c612310565b5b612959878288016128b4565b91505092959194509250565b6000806040838503121561297c5761297b61230b565b5b600061298a85828601612558565b925050602061299b85828601612558565b9150509250929050565b7f4e487b7100000000000000000000000000000000000000000000000000000000600052602260045260246000fd5b600060028204905060018216806129ec57607f821691505b6020821081036129ff576129fe6129a5565b5b50919050565b7f4552433732313a20617070726f76656420717565727920666f72206e6f6e657860008201527f697374656e7420746f6b656e0000000000000000000000000000000000000000602082015250565b6000612a61602c836123db565b9150612a6c82612a05565b604082019050919050565b60006020820190508181036000830152612a9081612a54565b9050919050565b7f4552433732313a20617070726f76616c20746f2063757272656e74206f776e6560008201527f7200000000000000000000000000000000000000000000000000000000000000602082015250565b6000612af36021836123db565b9150612afe82612a97565b604082019050919050565b60006020820190508181036000830152612b2281612ae6565b9050919050565b7f4552433732313a20617070726f76652063616c6c6572206973206e6f74206f7760008201527f6e6572206e6f7220617070726f76656420666f7220616c6c0000000000000000602082015250565b6000612b856038836123db565b9150612b9082612b29565b604082019050919050565b60006020820190508181036000830152612bb481612b78565b9050919050565b7f4552433732313a207472616e736665722063616c6c6572206973206e6f74206f60008201527f776e6572206e6f7220617070726f766564000000000000000000000000000000602082015250565b6000612c176031836123db565b9150612c2282612bbb565b604082019050919050565b60006020820190508181036000830152612c4681612c0a565b9050919050565b7f455243373231456e756d657261626c653a206f776e657220696e646578206f7560008201527f74206f6620626f756e6473000000000000000000000000000000000000000000602082015250565b6000612ca9602b836123db565b9150612cb482612c4d565b604082019050919050565b60006020820190508181036000830152612cd881612c9c565b9050919050565b7f455243373231456e756d657261626c653a20676c6f62616c20696e646578206f60008201527f7574206f6620626f756e64730000000000000000000000000000000000000000602082015250565b6000612d3b602c836123db565b9150612d4682612cdf565b604082019050919050565b60006020820190508181036000830152612d6a81612d2e565b9050919050565b7f4e487b7100000000000000000000000000000000000000000000000000000000600052603260045260246000fd5b7f4552433732313a206f776e657220717565727920666f72206e6f6e657869737460008201527f656e7420746f6b656e0000000000000000000000000000000000000000000000602082015250565b6000612dfc6029836123db565b9150612e0782612da0565b604082019050919050565b60006020820190508181036000830152612e2b81612def565b9050919050565b7f4552433732313a2062616c616e636520717565727920666f7220746865207a6560008201527f726f206164647265737300000000000000000000000000000000000000000000602082015250565b6000612e8e602a836123db565b9150612e9982612e32565b604082019050919050565b60006020820190508181036000830152612ebd81612e81565b9050919050565b7f4f776e61626c653a2063616c6c6572206973206e6f7420746865206f776e6572600082015250565b6000612efa6020836123db565b9150612f0582612ec4565b602082019050919050565b60006020820190508181036000830152612f2981612eed565b9050919050565b60008190508160005260206000209050919050565b60006020601f8301049050919050565b600082821b905092915050565b600060088302612f927fffffffffffffffffffffffffffffffffffffffffffffffffffffffffffffffff82612f55565b612f9c8683612f55565b95508019841693508086168417925050509392505050565b6000819050919050565b6000612fd9612fd4612fcf84612482565b612fb4565b612482565b9050919050565b6000819050919050565b612ff383612fbe565b613007612fff82612fe0565b848454612f62565b825550505050565b600090565b61301c61300f565b613027818484612fea565b505050565b5b8181101561304b57613040600082613014565b60018101905061302d565b5050565b601f8211156130905761306181612f30565b61306a84612f45565b81016020851015613079578190505b61308d61308585612f45565b83018261302c565b50505b505050565b600082821c905092915050565b60006130b360001984600802613095565b1980831691505092915050565b60006130cc83836130a2565b9150826002028217905092915050565b6130e5826123d0565b67ffffffffffffffff8111156130fe576130fd612661565b5b61310882546129d4565b61311382828561304f565b600060209050601f8311600181146131465760008415613134578287015190505b61313e85826130c0565b8655506131a6565b601f19841661315486612f30565b60005b8281101561317c57848901518255600182019150602085019450602081019050613157565b868310156131995784890151613195601f8916826130a2565b8355505b6001600288020188555050505b505050505050565b7f4d696e7465640000000000000000000000000000000000000000000000000000600082015250565b60006131e46006836123db565b91506131ef826131ae565b602082019050919050565b6000819050919050565b600061321f61321a613215846131fa565b612fb4565b612482565b9050919050565b61322f81613204565b82525050565b600060a08201905061324a60008301876125ad565b818103602083015261325b816131d7565b905061326a6040830186613226565b6132776060830185612517565b6132846080830184612517565b95945050505050565b600081905092915050565b600081546132a5816129d4565b6132af818661328d565b945060018216600081146132ca57600181146132df57613312565b60ff1983168652811515820286019350613312565b6132e885612f30565b60005b8381101561330a578154818901526001820191506020810190506132eb565b838801955050505b50505092915050565b7f2f00000000000000000000000000000000000000000000000000000000000000600082015250565b600061335160018361328d565b915061335c8261331b565b600182019050919050565b6000613372826123d0565b61337c818561328d565b935061338c8185602086016123ec565b80840191505092915050565b7f2e6a736f6e000000000000000000000000000000000000000000000000000000600082015250565b60006133ce60058361328d565b91506133d982613398565b600582019050919050565b60006133f08285613298565b91506133fb82613344565b91506134078284613367565b9150613412826133c1565b91508190509392505050565b7f4f776e61626c653a206e6577206f776e657220697320746865207a65726f206160008201527f6464726573730000000000000000000000000000000000000000000000000000602082015250565b600061347a6026836123db565b91506134858261341e565b604082019050919050565b600060208201905081810360008301526134a98161346d565b9050919050565b7f4552433732313a206f70657261746f7220717565727920666f72206e6f6e657860008201527f697374656e7420746f6b656e0000000000000000000000000000000000000000602082015250565b600061350c602c836123db565b9150613517826134b0565b604082019050919050565b6000602082019050818103600083015261353b816134ff565b9050919050565b7f4552433732313a207472616e736665722066726f6d20696e636f72726563742060008201527f6f776e6572000000000000000000000000000000000000000000000000000000602082015250565b600061359e6025836123db565b91506135a982613542565b604082019050919050565b600060208201905081810360008301526135cd81613591565b9050919050565b7f4552433732313a207472616e7366657220746f20746865207a65726f2061646460008201527f7265737300000000000000000000000000000000000000000000000000000000602082015250565b60006136306024836123db565b915061363b826135d4565b604082019050919050565b6000602082019050818103600083015261365f81613623565b9050919050565b7f4e487b7100000000000000000000000000000000000000000000000000000000600052601160045260246000fd5b60006136a082612482565b91506136ab83612482565b92508282039050818111156136c3576136c2613666565b5b92915050565b60006136d482612482565b91506136df83612482565b92508282019050808211156136f7576136f6613666565b5b92915050565b7f4552433732313a206d696e7420746f20746865207a65726f2061646472657373600082015250565b60006137336020836123db565b915061373e826136fd565b602082019050919050565b6000602082019050818103600083015261376281613726565b9050919050565b7f4552433732313a20746f6b656e20616c7265616479206d696e74656400000000600082015250565b600061379f601c836123db565b91506137aa82613769565b602082019050919050565b600060208201905081810360008301526137ce81613792565b9050919050565b7f4552433732313a20617070726f766520746f2063616c6c657200000000000000600082015250565b600061380b6019836123db565b9150613816826137d5565b602082019050919050565b6000602082019050818103600083015261383a816137fe565b9050919050565b7f4552433732313a207472616e7366657220746f206e6f6e20455243373231526560008201527f63656976657220696d706c656d656e7465720000000000000000000000000000602082015250565b600061389d6032836123db565b91506138a882613841565b604082019050919050565b600060208201905081810360008301526138cc81613890565b9050919050565b60006138de82612482565b91507fffffffffffffffffffffffffffffffffffffffffffffffffffffffffffffffff82036139105761390f613666565b5b600182019050919050565b7f4e487b7100000000000000000000000000000000000000000000000000000000600052601260045260246000fd5b600061395582612482565b915061396083612482565b9250826139705761396f61391b565b5b828204905092915050565b600061398682612482565b915061399183612482565b9250826139a1576139a061391b565b5b828206905092915050565b600081519050919050565b600082825260208201905092915050565b60006139d3826139ac565b6139dd81856139b7565b93506139ed8185602086016123ec565b6139f681612416565b840191505092915050565b6000608082019050613a166000830187612517565b613a236020830186612517565b613a3060408301856125ad565b8181036060830152613a4281846139c8565b905095945050505050565b600081519050613a5c81612341565b92915050565b600060208284031215613a7857613a7761230b565b5b6000613a8684828501613a4d565b91505092915050565b7f4e487b7100000000000000000000000000000000000000000000000000000000600052603160045260246000fdfea26469706673582212202ff5095869aad9e2d23f36e0aaae4baf31c417f75e8561e810871e2b489d904e64736f6c63430008110033",
  "immutableReferences": {},
  "source": "// SPDX-License-Identifier:MIT\r\npragma solidity ^0.8.17;\r\n\r\nimport \"../node_modules/openzeppelin-solidity/contracts/token/ERC721/extensions/ERC721Enumerable.sol\";\r\n\r\nimport \"../node_modules/openzeppelin-solidity/contracts/access/Ownable.sol\";\r\n\r\nimport \"../node_modules/openzeppelin-solidity/contracts/utils/Strings.sol\";\r\n\r\ncontract EggToken is ERC721Enumerable, Ownable {\r\n    string public a;\r\n    //  \r\n    uint constant public MAX_TOKEN_COUNT = 500;\r\n\r\n    //       \r\n    uint public mintPrice = 10 wei;\r\n\r\n    // json metadata URI\r\n    string public metadataURI;\r\n\r\n    // minting  \r\n\r\n    event Minting(uint tokenId, string state, uint price, address from, address to);\r\n\r\n    //  \r\n    constructor(string memory _name, string memory _symbol, string memory _metadataURI) ERC721 (_name, _symbol) {\r\n        metadataURI = _metadataURI;\r\n    }\r\n\r\n    function mintToken(address _saleContractCA, uint _tokenId) public payable {\r\n        // mintPrice     \r\n        require(msg.value >= mintPrice);\r\n\r\n        //      .\r\n        require(MAX_TOKEN_COUNT > totalSupply());\r\n\r\n        // CA   .\r\n        payable(Ownable.owner()).transfer(msg.value);\r\n\r\n        //   () NTF \r\n        _mint(msg.sender, _tokenId);\r\n\r\n        setApprovalForAll(_saleContractCA, true);\r\n\r\n        emit Minting(_tokenId, \"Minted\", 0, address(0), msg.sender);\r\n    }\r\n\r\n    function tokenURI(uint _tokenId) public override view returns (string memory) {\r\n\r\n        string memory tokenIdStr = Strings.toString(_tokenId);\r\n        return string(abi.encodePacked(metadataURI, \"/\", tokenIdStr,\".json\"));\r\n    }\r\n\r\n    function setMetadataURI(string memory _uri) public onlyOwner {\r\n        metadataURI = _uri;\r\n    }\r\n}",
  "sourcePath": "C:\\Users\\jdunm\\OneDrive\\ \\EGG-NFT-STORE\\front\\contracts\\EggToken.sol",
  "compiler": {
    "name": "solc",
    "version": "0.8.17+commit.8df45f5f.Emscripten.clang"
  },
  "schemaVersion": "3.4.11",
  "updatedAt": "2022-12-23T07:56:14.074Z",
  "networkType": "ethereum",
  "devdoc": {
    "kind": "dev",
    "methods": {
      "approve(address,uint256)": {
        "details": "See {IERC721-approve}."
      },
      "balanceOf(address)": {
        "details": "See {IERC721-balanceOf}."
      },
      "getApproved(uint256)": {
        "details": "See {IERC721-getApproved}."
      },
      "isApprovedForAll(address,address)": {
        "details": "See {IERC721-isApprovedForAll}."
      },
      "name()": {
        "details": "See {IERC721Metadata-name}."
      },
      "owner()": {
        "details": "Returns the address of the current owner."
      },
      "ownerOf(uint256)": {
        "details": "See {IERC721-ownerOf}."
      },
      "renounceOwnership()": {
        "details": "Leaves the contract without owner. It will not be possible to call `onlyOwner` functions anymore. Can only be called by the current owner. NOTE: Renouncing ownership will leave the contract without an owner, thereby removing any functionality that is only available to the owner."
      },
      "safeTransferFrom(address,address,uint256)": {
        "details": "See {IERC721-safeTransferFrom}."
      },
      "safeTransferFrom(address,address,uint256,bytes)": {
        "details": "See {IERC721-safeTransferFrom}."
      },
      "setApprovalForAll(address,bool)": {
        "details": "See {IERC721-setApprovalForAll}."
      },
      "supportsInterface(bytes4)": {
        "details": "See {IERC165-supportsInterface}."
      },
      "symbol()": {
        "details": "See {IERC721Metadata-symbol}."
      },
      "tokenByIndex(uint256)": {
        "details": "See {IERC721Enumerable-tokenByIndex}."
      },
      "tokenOfOwnerByIndex(address,uint256)": {
        "details": "See {IERC721Enumerable-tokenOfOwnerByIndex}."
      },
      "totalSupply()": {
        "details": "See {IERC721Enumerable-totalSupply}."
      },
      "transferFrom(address,address,uint256)": {
        "details": "See {IERC721-transferFrom}."
      },
      "transferOwnership(address)": {
        "details": "Transfers ownership of the contract to a new account (`newOwner`). Can only be called by the current owner."
      }
    },
    "version": 1
  },
  "userdoc": {
    "kind": "user",
    "methods": {},
    "version": 1
  }
}