{
  "contractName": "EggToken",
  "abi": [
    {
      "inputs": [
        {
          "internalType": "string",
          "name": "_name",
          "type": "string"
        },
        {
          "internalType": "string",
          "name": "_symbol",
          "type": "string"
        },
        {
          "internalType": "string",
          "name": "_metadataURI",
          "type": "string"
        }
      ],
      "stateMutability": "nonpayable",
      "type": "constructor"
    },
    {
      "anonymous": false,
      "inputs": [
        {
          "indexed": true,
          "internalType": "address",
          "name": "owner",
          "type": "address"
        },
        {
          "indexed": true,
          "internalType": "address",
          "name": "approved",
          "type": "address"
        },
        {
          "indexed": true,
          "internalType": "uint256",
          "name": "tokenId",
          "type": "uint256"
        }
      ],
      "name": "Approval",
      "type": "event"
    },
    {
      "anonymous": false,
      "inputs": [
        {
          "indexed": true,
          "internalType": "address",
          "name": "owner",
          "type": "address"
        },
        {
          "indexed": true,
          "internalType": "address",
          "name": "operator",
          "type": "address"
        },
        {
          "indexed": false,
          "internalType": "bool",
          "name": "approved",
          "type": "bool"
        }
      ],
      "name": "ApprovalForAll",
      "type": "event"
    },
    {
      "anonymous": false,
      "inputs": [
        {
          "indexed": false,
          "internalType": "uint8",
          "name": "tokenId",
          "type": "uint8"
        },
        {
          "indexed": false,
          "internalType": "string",
          "name": "state",
          "type": "string"
        },
        {
          "indexed": false,
          "internalType": "uint256",
          "name": "price",
          "type": "uint256"
        },
        {
          "indexed": false,
          "internalType": "address",
          "name": "from",
          "type": "address"
        },
        {
          "indexed": false,
          "internalType": "address",
          "name": "to",
          "type": "address"
        }
      ],
      "name": "Minting",
      "type": "event"
    },
    {
      "anonymous": false,
      "inputs": [
        {
          "indexed": true,
          "internalType": "address",
          "name": "previousOwner",
          "type": "address"
        },
        {
          "indexed": true,
          "internalType": "address",
          "name": "newOwner",
          "type": "address"
        }
      ],
      "name": "OwnershipTransferred",
      "type": "event"
    },
    {
      "anonymous": false,
      "inputs": [
        {
          "indexed": true,
          "internalType": "address",
          "name": "from",
          "type": "address"
        },
        {
          "indexed": true,
          "internalType": "address",
          "name": "to",
          "type": "address"
        },
        {
          "indexed": true,
          "internalType": "uint256",
          "name": "tokenId",
          "type": "uint256"
        }
      ],
      "name": "Transfer",
      "type": "event"
    },
    {
      "inputs": [],
      "name": "MAX_TOKEN_COUNT",
      "outputs": [
        {
          "internalType": "uint8",
          "name": "",
          "type": "uint8"
        }
      ],
      "stateMutability": "view",
      "type": "function",
      "constant": true
    },
    {
      "inputs": [
        {
          "internalType": "address",
          "name": "to",
          "type": "address"
        },
        {
          "internalType": "uint256",
          "name": "tokenId",
          "type": "uint256"
        }
      ],
      "name": "approve",
      "outputs": [],
      "stateMutability": "nonpayable",
      "type": "function"
    },
    {
      "inputs": [
        {
          "internalType": "address",
          "name": "owner",
          "type": "address"
        }
      ],
      "name": "balanceOf",
      "outputs": [
        {
          "internalType": "uint256",
          "name": "",
          "type": "uint256"
        }
      ],
      "stateMutability": "view",
      "type": "function",
      "constant": true
    },
    {
      "inputs": [
        {
          "internalType": "uint256",
          "name": "tokenId",
          "type": "uint256"
        }
      ],
      "name": "getApproved",
      "outputs": [
        {
          "internalType": "address",
          "name": "",
          "type": "address"
        }
      ],
      "stateMutability": "view",
      "type": "function",
      "constant": true
    },
    {
      "inputs": [
        {
          "internalType": "address",
          "name": "owner",
          "type": "address"
        },
        {
          "internalType": "address",
          "name": "operator",
          "type": "address"
        }
      ],
      "name": "isApprovedForAll",
      "outputs": [
        {
          "internalType": "bool",
          "name": "",
          "type": "bool"
        }
      ],
      "stateMutability": "view",
      "type": "function",
      "constant": true
    },
    {
      "inputs": [],
      "name": "metadataURI",
      "outputs": [
        {
          "internalType": "string",
          "name": "",
          "type": "string"
        }
      ],
      "stateMutability": "view",
      "type": "function",
      "constant": true
    },
    {
      "inputs": [],
      "name": "mintPrice",
      "outputs": [
        {
          "internalType": "uint256",
          "name": "",
          "type": "uint256"
        }
      ],
      "stateMutability": "view",
      "type": "function",
      "constant": true
    },
    {
      "inputs": [],
      "name": "name",
      "outputs": [
        {
          "internalType": "string",
          "name": "",
          "type": "string"
        }
      ],
      "stateMutability": "view",
      "type": "function",
      "constant": true
    },
    {
      "inputs": [],
      "name": "owner",
      "outputs": [
        {
          "internalType": "address",
          "name": "",
          "type": "address"
        }
      ],
      "stateMutability": "view",
      "type": "function",
      "constant": true
    },
    {
      "inputs": [
        {
          "internalType": "uint256",
          "name": "tokenId",
          "type": "uint256"
        }
      ],
      "name": "ownerOf",
      "outputs": [
        {
          "internalType": "address",
          "name": "",
          "type": "address"
        }
      ],
      "stateMutability": "view",
      "type": "function",
      "constant": true
    },
    {
      "inputs": [],
      "name": "renounceOwnership",
      "outputs": [],
      "stateMutability": "nonpayable",
      "type": "function"
    },
    {
      "inputs": [
        {
          "internalType": "address",
          "name": "from",
          "type": "address"
        },
        {
          "internalType": "address",
          "name": "to",
          "type": "address"
        },
        {
          "internalType": "uint256",
          "name": "tokenId",
          "type": "uint256"
        }
      ],
      "name": "safeTransferFrom",
      "outputs": [],
      "stateMutability": "nonpayable",
      "type": "function"
    },
    {
      "inputs": [
        {
          "internalType": "address",
          "name": "from",
          "type": "address"
        },
        {
          "internalType": "address",
          "name": "to",
          "type": "address"
        },
        {
          "internalType": "uint256",
          "name": "tokenId",
          "type": "uint256"
        },
        {
          "internalType": "bytes",
          "name": "_data",
          "type": "bytes"
        }
      ],
      "name": "safeTransferFrom",
      "outputs": [],
      "stateMutability": "nonpayable",
      "type": "function"
    },
    {
      "inputs": [
        {
          "internalType": "address",
          "name": "operator",
          "type": "address"
        },
        {
          "internalType": "bool",
          "name": "approved",
          "type": "bool"
        }
      ],
      "name": "setApprovalForAll",
      "outputs": [],
      "stateMutability": "nonpayable",
      "type": "function"
    },
    {
      "inputs": [
        {
          "internalType": "bytes4",
          "name": "interfaceId",
          "type": "bytes4"
        }
      ],
      "name": "supportsInterface",
      "outputs": [
        {
          "internalType": "bool",
          "name": "",
          "type": "bool"
        }
      ],
      "stateMutability": "view",
      "type": "function",
      "constant": true
    },
    {
      "inputs": [],
      "name": "symbol",
      "outputs": [
        {
          "internalType": "string",
          "name": "",
          "type": "string"
        }
      ],
      "stateMutability": "view",
      "type": "function",
      "constant": true
    },
    {
      "inputs": [
        {
          "internalType": "uint256",
          "name": "index",
          "type": "uint256"
        }
      ],
      "name": "tokenByIndex",
      "outputs": [
        {
          "internalType": "uint256",
          "name": "",
          "type": "uint256"
        }
      ],
      "stateMutability": "view",
      "type": "function",
      "constant": true
    },
    {
      "inputs": [
        {
          "internalType": "address",
          "name": "owner",
          "type": "address"
        },
        {
          "internalType": "uint256",
          "name": "index",
          "type": "uint256"
        }
      ],
      "name": "tokenOfOwnerByIndex",
      "outputs": [
        {
          "internalType": "uint256",
          "name": "",
          "type": "uint256"
        }
      ],
      "stateMutability": "view",
      "type": "function",
      "constant": true
    },
    {
      "inputs": [],
      "name": "totalSupply",
      "outputs": [
        {
          "internalType": "uint256",
          "name": "",
          "type": "uint256"
        }
      ],
      "stateMutability": "view",
      "type": "function",
      "constant": true
    },
    {
      "inputs": [
        {
          "internalType": "address",
          "name": "from",
          "type": "address"
        },
        {
          "internalType": "address",
          "name": "to",
          "type": "address"
        },
        {
          "internalType": "uint256",
          "name": "tokenId",
          "type": "uint256"
        }
      ],
      "name": "transferFrom",
      "outputs": [],
      "stateMutability": "nonpayable",
      "type": "function"
    },
    {
      "inputs": [
        {
          "internalType": "address",
          "name": "newOwner",
          "type": "address"
        }
      ],
      "name": "transferOwnership",
      "outputs": [],
      "stateMutability": "nonpayable",
      "type": "function"
    },
    {
      "inputs": [
        {
          "internalType": "address",
          "name": "_saleContractCA",
          "type": "address"
        },
        {
          "internalType": "uint8",
          "name": "_tokenId",
          "type": "uint8"
        }
      ],
      "name": "mintToken",
      "outputs": [],
      "stateMutability": "payable",
      "type": "function",
      "payable": true
    },
    {
      "inputs": [
        {
          "internalType": "uint256",
          "name": "_tokenId",
          "type": "uint256"
        }
      ],
      "name": "tokenURI",
      "outputs": [
        {
          "internalType": "string",
          "name": "",
          "type": "string"
        }
      ],
      "stateMutability": "view",
      "type": "function",
      "constant": true
    },
    {
      "inputs": [
        {
          "internalType": "string",
          "name": "_uri",
          "type": "string"
        }
      ],
      "name": "setMetadataURI",
      "outputs": [],
      "stateMutability": "nonpayable",
      "type": "function"
    }
  ],
  "bytecode": "0x6080604052600a600b553480156200001657600080fd5b50604051620045093803806200450983398181016040528101906200003c919062000300565b828281600090816200004f919062000604565b50806001908162000061919062000604565b50505062000084620000786200009f60201b60201c565b620000a760201b60201c565b80600c908162000095919062000604565b50505050620006eb565b600033905090565b6000600a60009054906101000a900473ffffffffffffffffffffffffffffffffffffffff16905081600a60006101000a81548173ffffffffffffffffffffffffffffffffffffffff021916908373ffffffffffffffffffffffffffffffffffffffff1602179055508173ffffffffffffffffffffffffffffffffffffffff168173ffffffffffffffffffffffffffffffffffffffff167f8be0079c531659141344cd1fd0a4f28419497f9722a3daafe3b4186f6b6457e060405160405180910390a35050565b6000604051905090565b600080fd5b600080fd5b600080fd5b600080fd5b6000601f19601f8301169050919050565b7f4e487b7100000000000000000000000000000000000000000000000000000000600052604160045260246000fd5b620001d6826200018b565b810181811067ffffffffffffffff82111715620001f857620001f76200019c565b5b80604052505050565b60006200020d6200016d565b90506200021b8282620001cb565b919050565b600067ffffffffffffffff8211156200023e576200023d6200019c565b5b62000249826200018b565b9050602081019050919050565b60005b838110156200027657808201518184015260208101905062000259565b60008484015250505050565b600062000299620002938462000220565b62000201565b905082815260208101848484011115620002b857620002b762000186565b5b620002c584828562000256565b509392505050565b600082601f830112620002e557620002e462000181565b5b8151620002f784826020860162000282565b91505092915050565b6000806000606084860312156200031c576200031b62000177565b5b600084015167ffffffffffffffff8111156200033d576200033c6200017c565b5b6200034b86828701620002cd565b935050602084015167ffffffffffffffff8111156200036f576200036e6200017c565b5b6200037d86828701620002cd565b925050604084015167ffffffffffffffff811115620003a157620003a06200017c565b5b620003af86828701620002cd565b9150509250925092565b600081519050919050565b7f4e487b7100000000000000000000000000000000000000000000000000000000600052602260045260246000fd5b600060028204905060018216806200040c57607f821691505b602082108103620004225762000421620003c4565b5b50919050565b60008190508160005260206000209050919050565b60006020601f8301049050919050565b600082821b905092915050565b6000600883026200048c7fffffffffffffffffffffffffffffffffffffffffffffffffffffffffffffffff826200044d565b6200049886836200044d565b95508019841693508086168417925050509392505050565b6000819050919050565b6000819050919050565b6000620004e5620004df620004d984620004b0565b620004ba565b620004b0565b9050919050565b6000819050919050565b6200050183620004c4565b620005196200051082620004ec565b8484546200045a565b825550505050565b600090565b6200053062000521565b6200053d818484620004f6565b505050565b5b8181101562000565576200055960008262000526565b60018101905062000543565b5050565b601f821115620005b4576200057e8162000428565b62000589846200043d565b8101602085101562000599578190505b620005b1620005a8856200043d565b83018262000542565b50505b505050565b600082821c905092915050565b6000620005d960001984600802620005b9565b1980831691505092915050565b6000620005f48383620005c6565b9150826002028217905092915050565b6200060f82620003b9565b67ffffffffffffffff8111156200062b576200062a6200019c565b5b620006378254620003f3565b6200064482828562000569565b600060209050601f8311600181146200067c576000841562000667578287015190505b620006738582620005e6565b865550620006e3565b601f1984166200068c8662000428565b60005b82811015620006b6578489015182556001820191506020850194506020810190506200068f565b86831015620006d65784890151620006d2601f891682620005c6565b8355505b6001600288020188555050505b505050505050565b613e0e80620006fb6000396000f3fe60806040526004361061014b5760003560e01c806370a08231116100b6578063b020c4851161006f578063b020c485146104a4578063b88d4fde146104c0578063c87b56dd146104e9578063d0bbb0d714610526578063e985e9c514610551578063f2fde38b1461058e5761014b565b806370a08231146103a8578063715018a6146103e5578063750521f5146103fc5780638da5cb5b1461042557806395d89b4114610450578063a22cb4651461047b5761014b565b806323b872dd1161010857806323b872dd146102745780632f745c591461029d57806342842e0e146102da5780634f6ccce7146103035780636352211e146103405780636817c76c1461037d5761014b565b806301ffc9a71461015057806303ee438c1461018d57806306fdde03146101b8578063081812fc146101e3578063095ea7b31461022057806318160ddd14610249575b600080fd5b34801561015c57600080fd5b506101776004803603810190610172919061242b565b6105b7565b6040516101849190612473565b60405180910390f35b34801561019957600080fd5b506101a2610631565b6040516101af919061251e565b60405180910390f35b3480156101c457600080fd5b506101cd6106bf565b6040516101da919061251e565b60405180910390f35b3480156101ef57600080fd5b5061020a60048036038101906102059190612576565b610751565b60405161021791906125e4565b60405180910390f35b34801561022c57600080fd5b506102476004803603810190610242919061262b565b6107d6565b005b34801561025557600080fd5b5061025e6108ed565b60405161026b919061267a565b60405180910390f35b34801561028057600080fd5b5061029b60048036038101906102969190612695565b6108fa565b005b3480156102a957600080fd5b506102c460048036038101906102bf919061262b565b61095a565b6040516102d1919061267a565b60405180910390f35b3480156102e657600080fd5b5061030160048036038101906102fc9190612695565b6109ff565b005b34801561030f57600080fd5b5061032a60048036038101906103259190612576565b610a1f565b604051610337919061267a565b60405180910390f35b34801561034c57600080fd5b5061036760048036038101906103629190612576565b610a90565b60405161037491906125e4565b60405180910390f35b34801561038957600080fd5b50610392610b41565b60405161039f919061267a565b60405180910390f35b3480156103b457600080fd5b506103cf60048036038101906103ca91906126e8565b610b47565b6040516103dc919061267a565b60405180910390f35b3480156103f157600080fd5b506103fa610bfe565b005b34801561040857600080fd5b50610423600480360381019061041e919061284a565b610c86565b005b34801561043157600080fd5b5061043a610d15565b60405161044791906125e4565b60405180910390f35b34801561045c57600080fd5b50610465610d3f565b604051610472919061251e565b60405180910390f35b34801561048757600080fd5b506104a2600480360381019061049d91906128bf565b610dd1565b005b6104be60048036038101906104b99190612938565b610de7565b005b3480156104cc57600080fd5b506104e760048036038101906104e29190612a19565b610fae565b005b3480156104f557600080fd5b50610510600480360381019061050b9190612576565b611010565b60405161051d919061251e565b60405180910390f35b34801561053257600080fd5b5061053b61104a565b6040516105489190612aab565b60405180910390f35b34801561055d57600080fd5b5061057860048036038101906105739190612ac6565b61104f565b6040516105859190612473565b60405180910390f35b34801561059a57600080fd5b506105b560048036038101906105b091906126e8565b6110e3565b005b60007f780e9d63000000000000000000000000000000000000000000000000000000007bffffffffffffffffffffffffffffffffffffffffffffffffffffffff1916827bffffffffffffffffffffffffffffffffffffffffffffffffffffffff1916148061062a5750610629826111da565b5b9050919050565b600c805461063e90612b35565b80601f016020809104026020016040519081016040528092919081815260200182805461066a90612b35565b80156106b75780601f1061068c576101008083540402835291602001916106b7565b820191906000526020600020905b81548152906001019060200180831161069a57829003601f168201915b505050505081565b6060600080546106ce90612b35565b80601f01602080910402602001604051908101604052809291908181526020018280546106fa90612b35565b80156107475780601f1061071c57610100808354040283529160200191610747565b820191906000526020600020905b81548152906001019060200180831161072a57829003601f168201915b5050505050905090565b600061075c826112bc565b61079b576040517f08c379a000000000000000000000000000000000000000000000000000000000815260040161079290612bd8565b60405180910390fd5b6004600083815260200190815260200160002060009054906101000a900473ffffffffffffffffffffffffffffffffffffffff169050919050565b60006107e182610a90565b90508073ffffffffffffffffffffffffffffffffffffffff168373ffffffffffffffffffffffffffffffffffffffff1603610851576040517f08c379a000000000000000000000000000000000000000000000000000000000815260040161084890612c6a565b60405180910390fd5b8073ffffffffffffffffffffffffffffffffffffffff16610870611328565b73ffffffffffffffffffffffffffffffffffffffff16148061089f575061089e81610899611328565b61104f565b5b6108de576040517f08c379a00000000000000000000000000000000000000000000000000000000081526004016108d590612cfc565b60405180910390fd5b6108e88383611330565b505050565b6000600880549050905090565b61090b610905611328565b826113e9565b61094a576040517f08c379a000000000000000000000000000000000000000000000000000000000815260040161094190612d8e565b60405180910390fd5b6109558383836114c7565b505050565b600061096583610b47565b82106109a6576040517f08c379a000000000000000000000000000000000000000000000000000000000815260040161099d90612e20565b60405180910390fd5b600660008473ffffffffffffffffffffffffffffffffffffffff1673ffffffffffffffffffffffffffffffffffffffff168152602001908152602001600020600083815260200190815260200160002054905092915050565b610a1a83838360405180602001604052806000815250610fae565b505050565b6000610a296108ed565b8210610a6a576040517f08c379a0000000000000000000000000000000000000000000000000000000008152600401610a6190612eb2565b60405180910390fd5b60088281548110610a7e57610a7d612ed2565b5b90600052602060002001549050919050565b6000806002600084815260200190815260200160002060009054906101000a900473ffffffffffffffffffffffffffffffffffffffff169050600073ffffffffffffffffffffffffffffffffffffffff168173ffffffffffffffffffffffffffffffffffffffff1603610b38576040517f08c379a0000000000000000000000000000000000000000000000000000000008152600401610b2f90612f73565b60405180910390fd5b80915050919050565b600b5481565b60008073ffffffffffffffffffffffffffffffffffffffff168273ffffffffffffffffffffffffffffffffffffffff1603610bb7576040517f08c379a0000000000000000000000000000000000000000000000000000000008152600401610bae90613005565b60405180910390fd5b600360008373ffffffffffffffffffffffffffffffffffffffff1673ffffffffffffffffffffffffffffffffffffffff168152602001908152602001600020549050919050565b610c06611328565b73ffffffffffffffffffffffffffffffffffffffff16610c24610d15565b73ffffffffffffffffffffffffffffffffffffffff1614610c7a576040517f08c379a0000000000000000000000000000000000000000000000000000000008152600401610c7190613071565b60405180910390fd5b610c84600061172d565b565b610c8e611328565b73ffffffffffffffffffffffffffffffffffffffff16610cac610d15565b73ffffffffffffffffffffffffffffffffffffffff1614610d02576040517f08c379a0000000000000000000000000000000000000000000000000000000008152600401610cf990613071565b60405180910390fd5b80600c9081610d11919061323d565b5050565b6000600a60009054906101000a900473ffffffffffffffffffffffffffffffffffffffff16905090565b606060018054610d4e90612b35565b80601f0160208091040260200160405190810160405280929190818152602001828054610d7a90612b35565b8015610dc75780601f10610d9c57610100808354040283529160200191610dc7565b820191906000526020600020905b815481529060010190602001808311610daa57829003601f168201915b5050505050905090565b610de3610ddc611328565b83836117f3565b5050565b610df08161195f565b610e2f576040517f08c379a0000000000000000000000000000000000000000000000000000000008152600401610e2690613381565b60405180910390fd5b600b54341015610e74576040517f08c379a0000000000000000000000000000000000000000000000000000000008152600401610e6b906133ed565b60405180910390fd5b610e7c6108ed565b606460ff1611610ec1576040517f08c379a0000000000000000000000000000000000000000000000000000000008152600401610eb89061347f565b60405180910390fd5b610ec9610d15565b73ffffffffffffffffffffffffffffffffffffffff166108fc349081150290604051600060405180830381858888f19350505050158015610f0e573d6000803e3d6000fd5b50610f1c338260ff166119f4565b610f27826001610dd1565b600d8190806001815401808255809150506001900390600052602060002090602091828204019190069091909190916101000a81548160ff021916908360ff1602179055507f6d2d67718d510327fd5fd0529fc15afc2846a8cd2a1b9d66e43493e4be7b92fe8160008033604051610fa29493929190613526565b60405180910390a15050565b610fbf610fb9611328565b836113e9565b610ffe576040517f08c379a0000000000000000000000000000000000000000000000000000000008152600401610ff590612d8e565b60405180910390fd5b61100a84848484611bcd565b50505050565b6060600061101d83611c29565b9050600c816040516020016110339291906136d5565b604051602081830303815290604052915050919050565b606481565b6000600560008473ffffffffffffffffffffffffffffffffffffffff1673ffffffffffffffffffffffffffffffffffffffff16815260200190815260200160002060008373ffffffffffffffffffffffffffffffffffffffff1673ffffffffffffffffffffffffffffffffffffffff16815260200190815260200160002060009054906101000a900460ff16905092915050565b6110eb611328565b73ffffffffffffffffffffffffffffffffffffffff16611109610d15565b73ffffffffffffffffffffffffffffffffffffffff161461115f576040517f08c379a000000000000000000000000000000000000000000000000000000000815260040161115690613071565b60405180910390fd5b600073ffffffffffffffffffffffffffffffffffffffff168173ffffffffffffffffffffffffffffffffffffffff16036111ce576040517f08c379a00000000000000000000000000000000000000000000000000000000081526004016111c590613781565b60405180910390fd5b6111d78161172d565b50565b60007f80ac58cd000000000000000000000000000000000000000000000000000000007bffffffffffffffffffffffffffffffffffffffffffffffffffffffff1916827bffffffffffffffffffffffffffffffffffffffffffffffffffffffff191614806112a557507f5b5e139f000000000000000000000000000000000000000000000000000000007bffffffffffffffffffffffffffffffffffffffffffffffffffffffff1916827bffffffffffffffffffffffffffffffffffffffffffffffffffffffff1916145b806112b557506112b482611d89565b5b9050919050565b60008073ffffffffffffffffffffffffffffffffffffffff166002600084815260200190815260200160002060009054906101000a900473ffffffffffffffffffffffffffffffffffffffff1673ffffffffffffffffffffffffffffffffffffffff1614159050919050565b600033905090565b816004600083815260200190815260200160002060006101000a81548173ffffffffffffffffffffffffffffffffffffffff021916908373ffffffffffffffffffffffffffffffffffffffff160217905550808273ffffffffffffffffffffffffffffffffffffffff166113a383610a90565b73ffffffffffffffffffffffffffffffffffffffff167f8c5be1e5ebec7d5bd14f71427d1e84f3dd0314c0f7b2291e5b200ac8c7c3b92560405160405180910390a45050565b60006113f4826112bc565b611433576040517f08c379a000000000000000000000000000000000000000000000000000000000815260040161142a90613813565b60405180910390fd5b600061143e83610a90565b90508073ffffffffffffffffffffffffffffffffffffffff168473ffffffffffffffffffffffffffffffffffffffff161480611480575061147f818561104f565b5b806114be57508373ffffffffffffffffffffffffffffffffffffffff166114a684610751565b73ffffffffffffffffffffffffffffffffffffffff16145b91505092915050565b8273ffffffffffffffffffffffffffffffffffffffff166114e782610a90565b73ffffffffffffffffffffffffffffffffffffffff161461153d576040517f08c379a0000000000000000000000000000000000000000000000000000000008152600401611534906138a5565b60405180910390fd5b600073ffffffffffffffffffffffffffffffffffffffff168273ffffffffffffffffffffffffffffffffffffffff16036115ac576040517f08c379a00000000000000000000000000000000000000000000000000000000081526004016115a390613937565b60405180910390fd5b6115b7838383611df3565b6115c2600082611330565b6001600360008573ffffffffffffffffffffffffffffffffffffffff1673ffffffffffffffffffffffffffffffffffffffff16815260200190815260200160002060008282546116129190613986565b925050819055506001600360008473ffffffffffffffffffffffffffffffffffffffff1673ffffffffffffffffffffffffffffffffffffffff168152602001908152602001600020600082825461166991906139ba565b92505081905550816002600083815260200190815260200160002060006101000a81548173ffffffffffffffffffffffffffffffffffffffff021916908373ffffffffffffffffffffffffffffffffffffffff160217905550808273ffffffffffffffffffffffffffffffffffffffff168473ffffffffffffffffffffffffffffffffffffffff167fddf252ad1be2c89b69c2b068fc378daa952ba7f163c4a11628f55a4df523b3ef60405160405180910390a4611728838383611f05565b505050565b6000600a60009054906101000a900473ffffffffffffffffffffffffffffffffffffffff16905081600a60006101000a81548173ffffffffffffffffffffffffffffffffffffffff021916908373ffffffffffffffffffffffffffffffffffffffff1602179055508173ffffffffffffffffffffffffffffffffffffffff168173ffffffffffffffffffffffffffffffffffffffff167f8be0079c531659141344cd1fd0a4f28419497f9722a3daafe3b4186f6b6457e060405160405180910390a35050565b8173ffffffffffffffffffffffffffffffffffffffff168373ffffffffffffffffffffffffffffffffffffffff1603611861576040517f08c379a000000000000000000000000000000000000000000000000000000000815260040161185890613a3a565b60405180910390fd5b80600560008573ffffffffffffffffffffffffffffffffffffffff1673ffffffffffffffffffffffffffffffffffffffff16815260200190815260200160002060008473ffffffffffffffffffffffffffffffffffffffff1673ffffffffffffffffffffffffffffffffffffffff16815260200190815260200160002060006101000a81548160ff0219169083151502179055508173ffffffffffffffffffffffffffffffffffffffff168373ffffffffffffffffffffffffffffffffffffffff167f17307eab39ab6107e8899845ad3d59bd9653f200f220920489ca2b5937696c31836040516119529190612473565b60405180910390a3505050565b600080600d805490500361197657600190506119ef565b60005b600d805490508160ff1610156119e9578260ff16600d8260ff16815481106119a4576119a3612ed2565b5b90600052602060002090602091828204019190069054906101000a900460ff1660ff16036119d65760009150506119ef565b80806119e190613a5a565b915050611979565b50600190505b919050565b600073ffffffffffffffffffffffffffffffffffffffff168273ffffffffffffffffffffffffffffffffffffffff1603611a63576040517f08c379a0000000000000000000000000000000000000000000000000000000008152600401611a5a90613acf565b60405180910390fd5b611a6c816112bc565b15611aac576040517f08c379a0000000000000000000000000000000000000000000000000000000008152600401611aa390613b3b565b60405180910390fd5b611ab860008383611df3565b6001600360008473ffffffffffffffffffffffffffffffffffffffff1673ffffffffffffffffffffffffffffffffffffffff1681526020019081526020016000206000828254611b0891906139ba565b92505081905550816002600083815260200190815260200160002060006101000a81548173ffffffffffffffffffffffffffffffffffffffff021916908373ffffffffffffffffffffffffffffffffffffffff160217905550808273ffffffffffffffffffffffffffffffffffffffff16600073ffffffffffffffffffffffffffffffffffffffff167fddf252ad1be2c89b69c2b068fc378daa952ba7f163c4a11628f55a4df523b3ef60405160405180910390a4611bc960008383611f05565b5050565b611bd88484846114c7565b611be484848484611f0a565b611c23576040517f08c379a0000000000000000000000000000000000000000000000000000000008152600401611c1a90613bcd565b60405180910390fd5b50505050565b606060008203611c70576040518060400160405280600181526020017f30000000000000000000000000000000000000000000000000000000000000008152509050611d84565b600082905060005b60008214611ca2578080611c8b90613bed565b915050600a82611c9b9190613c64565b9150611c78565b60008167ffffffffffffffff811115611cbe57611cbd61271f565b5b6040519080825280601f01601f191660200182016040528015611cf05781602001600182028036833780820191505090505b5090505b60008514611d7d57600182611d099190613986565b9150600a85611d189190613c95565b6030611d2491906139ba565b60f81b818381518110611d3a57611d39612ed2565b5b60200101907effffffffffffffffffffffffffffffffffffffffffffffffffffffffffffff1916908160001a905350600a85611d769190613c64565b9450611cf4565b8093505050505b919050565b60007f01ffc9a7000000000000000000000000000000000000000000000000000000007bffffffffffffffffffffffffffffffffffffffffffffffffffffffff1916827bffffffffffffffffffffffffffffffffffffffffffffffffffffffff1916149050919050565b611dfe838383612091565b600073ffffffffffffffffffffffffffffffffffffffff168373ffffffffffffffffffffffffffffffffffffffff1603611e4057611e3b81612096565b611e7f565b8173ffffffffffffffffffffffffffffffffffffffff168373ffffffffffffffffffffffffffffffffffffffff1614611e7e57611e7d83826120df565b5b5b600073ffffffffffffffffffffffffffffffffffffffff168273ffffffffffffffffffffffffffffffffffffffff1603611ec157611ebc8161224c565b611f00565b8273ffffffffffffffffffffffffffffffffffffffff168273ffffffffffffffffffffffffffffffffffffffff1614611eff57611efe828261231d565b5b5b505050565b505050565b6000611f2b8473ffffffffffffffffffffffffffffffffffffffff1661239c565b15612084578373ffffffffffffffffffffffffffffffffffffffff1663150b7a02611f54611328565b8786866040518563ffffffff1660e01b8152600401611f769493929190613d1b565b6020604051808303816000875af1925050508015611fb257506040513d601f19601f82011682018060405250810190611faf9190613d7c565b60015b612034573d8060008114611fe2576040519150601f19603f3d011682016040523d82523d6000602084013e611fe7565b606091505b50600081510361202c576040517f08c379a000000000000000000000000000000000000000000000000000000000815260040161202390613bcd565b60405180910390fd5b805181602001fd5b63150b7a0260e01b7bffffffffffffffffffffffffffffffffffffffffffffffffffffffff1916817bffffffffffffffffffffffffffffffffffffffffffffffffffffffff191614915050612089565b600190505b949350505050565b505050565b6008805490506009600083815260200190815260200160002081905550600881908060018154018082558091505060019003906000526020600020016000909190919091505550565b600060016120ec84610b47565b6120f69190613986565b90506000600760008481526020019081526020016000205490508181146121db576000600660008673ffffffffffffffffffffffffffffffffffffffff1673ffffffffffffffffffffffffffffffffffffffff168152602001908152602001600020600084815260200190815260200160002054905080600660008773ffffffffffffffffffffffffffffffffffffffff1673ffffffffffffffffffffffffffffffffffffffff168152602001908152602001600020600084815260200190815260200160002081905550816007600083815260200190815260200160002081905550505b6007600084815260200190815260200160002060009055600660008573ffffffffffffffffffffffffffffffffffffffff1673ffffffffffffffffffffffffffffffffffffffff16815260200190815260200160002060008381526020019081526020016000206000905550505050565b600060016008805490506122609190613986565b90506000600960008481526020019081526020016000205490506000600883815481106122905761228f612ed2565b5b9060005260206000200154905080600883815481106122b2576122b1612ed2565b5b90600052602060002001819055508160096000838152602001908152602001600020819055506009600085815260200190815260200160002060009055600880548061230157612300613da9565b5b6001900381819060005260206000200160009055905550505050565b600061232883610b47565b905081600660008573ffffffffffffffffffffffffffffffffffffffff1673ffffffffffffffffffffffffffffffffffffffff168152602001908152602001600020600083815260200190815260200160002081905550806007600084815260200190815260200160002081905550505050565b6000808273ffffffffffffffffffffffffffffffffffffffff163b119050919050565b6000604051905090565b600080fd5b600080fd5b60007fffffffff0000000000000000000000000000000000000000000000000000000082169050919050565b612408816123d3565b811461241357600080fd5b50565b600081359050612425816123ff565b92915050565b600060208284031215612441576124406123c9565b5b600061244f84828501612416565b91505092915050565b60008115159050919050565b61246d81612458565b82525050565b60006020820190506124886000830184612464565b92915050565b600081519050919050565b600082825260208201905092915050565b60005b838110156124c85780820151818401526020810190506124ad565b60008484015250505050565b6000601f19601f8301169050919050565b60006124f08261248e565b6124fa8185612499565b935061250a8185602086016124aa565b612513816124d4565b840191505092915050565b6000602082019050818103600083015261253881846124e5565b905092915050565b6000819050919050565b61255381612540565b811461255e57600080fd5b50565b6000813590506125708161254a565b92915050565b60006020828403121561258c5761258b6123c9565b5b600061259a84828501612561565b91505092915050565b600073ffffffffffffffffffffffffffffffffffffffff82169050919050565b60006125ce826125a3565b9050919050565b6125de816125c3565b82525050565b60006020820190506125f960008301846125d5565b92915050565b612608816125c3565b811461261357600080fd5b50565b600081359050612625816125ff565b92915050565b60008060408385031215612642576126416123c9565b5b600061265085828601612616565b925050602061266185828601612561565b9150509250929050565b61267481612540565b82525050565b600060208201905061268f600083018461266b565b92915050565b6000806000606084860312156126ae576126ad6123c9565b5b60006126bc86828701612616565b93505060206126cd86828701612616565b92505060406126de86828701612561565b9150509250925092565b6000602082840312156126fe576126fd6123c9565b5b600061270c84828501612616565b91505092915050565b600080fd5b600080fd5b7f4e487b7100000000000000000000000000000000000000000000000000000000600052604160045260246000fd5b612757826124d4565b810181811067ffffffffffffffff821117156127765761277561271f565b5b80604052505050565b60006127896123bf565b9050612795828261274e565b919050565b600067ffffffffffffffff8211156127b5576127b461271f565b5b6127be826124d4565b9050602081019050919050565b82818337600083830152505050565b60006127ed6127e88461279a565b61277f565b9050828152602081018484840111156128095761280861271a565b5b6128148482856127cb565b509392505050565b600082601f83011261283157612830612715565b5b81356128418482602086016127da565b91505092915050565b6000602082840312156128605761285f6123c9565b5b600082013567ffffffffffffffff81111561287e5761287d6123ce565b5b61288a8482850161281c565b91505092915050565b61289c81612458565b81146128a757600080fd5b50565b6000813590506128b981612893565b92915050565b600080604083850312156128d6576128d56123c9565b5b60006128e485828601612616565b92505060206128f5858286016128aa565b9150509250929050565b600060ff82169050919050565b612915816128ff565b811461292057600080fd5b50565b6000813590506129328161290c565b92915050565b6000806040838503121561294f5761294e6123c9565b5b600061295d85828601612616565b925050602061296e85828601612923565b9150509250929050565b600067ffffffffffffffff8211156129935761299261271f565b5b61299c826124d4565b9050602081019050919050565b60006129bc6129b784612978565b61277f565b9050828152602081018484840111156129d8576129d761271a565b5b6129e38482856127cb565b509392505050565b600082601f830112612a00576129ff612715565b5b8135612a108482602086016129a9565b91505092915050565b60008060008060808587031215612a3357612a326123c9565b5b6000612a4187828801612616565b9450506020612a5287828801612616565b9350506040612a6387828801612561565b925050606085013567ffffffffffffffff811115612a8457612a836123ce565b5b612a90878288016129eb565b91505092959194509250565b612aa5816128ff565b82525050565b6000602082019050612ac06000830184612a9c565b92915050565b60008060408385031215612add57612adc6123c9565b5b6000612aeb85828601612616565b9250506020612afc85828601612616565b9150509250929050565b7f4e487b7100000000000000000000000000000000000000000000000000000000600052602260045260246000fd5b60006002820490506001821680612b4d57607f821691505b602082108103612b6057612b5f612b06565b5b50919050565b7f4552433732313a20617070726f76656420717565727920666f72206e6f6e657860008201527f697374656e7420746f6b656e0000000000000000000000000000000000000000602082015250565b6000612bc2602c83612499565b9150612bcd82612b66565b604082019050919050565b60006020820190508181036000830152612bf181612bb5565b9050919050565b7f4552433732313a20617070726f76616c20746f2063757272656e74206f776e6560008201527f7200000000000000000000000000000000000000000000000000000000000000602082015250565b6000612c54602183612499565b9150612c5f82612bf8565b604082019050919050565b60006020820190508181036000830152612c8381612c47565b9050919050565b7f4552433732313a20617070726f76652063616c6c6572206973206e6f74206f7760008201527f6e6572206e6f7220617070726f76656420666f7220616c6c0000000000000000602082015250565b6000612ce6603883612499565b9150612cf182612c8a565b604082019050919050565b60006020820190508181036000830152612d1581612cd9565b9050919050565b7f4552433732313a207472616e736665722063616c6c6572206973206e6f74206f60008201527f776e6572206e6f7220617070726f766564000000000000000000000000000000602082015250565b6000612d78603183612499565b9150612d8382612d1c565b604082019050919050565b60006020820190508181036000830152612da781612d6b565b9050919050565b7f455243373231456e756d657261626c653a206f776e657220696e646578206f7560008201527f74206f6620626f756e6473000000000000000000000000000000000000000000602082015250565b6000612e0a602b83612499565b9150612e1582612dae565b604082019050919050565b60006020820190508181036000830152612e3981612dfd565b9050919050565b7f455243373231456e756d657261626c653a20676c6f62616c20696e646578206f60008201527f7574206f6620626f756e64730000000000000000000000000000000000000000602082015250565b6000612e9c602c83612499565b9150612ea782612e40565b604082019050919050565b60006020820190508181036000830152612ecb81612e8f565b9050919050565b7f4e487b7100000000000000000000000000000000000000000000000000000000600052603260045260246000fd5b7f4552433732313a206f776e657220717565727920666f72206e6f6e657869737460008201527f656e7420746f6b656e0000000000000000000000000000000000000000000000602082015250565b6000612f5d602983612499565b9150612f6882612f01565b604082019050919050565b60006020820190508181036000830152612f8c81612f50565b9050919050565b7f4552433732313a2062616c616e636520717565727920666f7220746865207a6560008201527f726f206164647265737300000000000000000000000000000000000000000000602082015250565b6000612fef602a83612499565b9150612ffa82612f93565b604082019050919050565b6000602082019050818103600083015261301e81612fe2565b9050919050565b7f4f776e61626c653a2063616c6c6572206973206e6f7420746865206f776e6572600082015250565b600061305b602083612499565b915061306682613025565b602082019050919050565b6000602082019050818103600083015261308a8161304e565b9050919050565b60008190508160005260206000209050919050565b60006020601f8301049050919050565b600082821b905092915050565b6000600883026130f37fffffffffffffffffffffffffffffffffffffffffffffffffffffffffffffffff826130b6565b6130fd86836130b6565b95508019841693508086168417925050509392505050565b6000819050919050565b600061313a61313561313084612540565b613115565b612540565b9050919050565b6000819050919050565b6131548361311f565b61316861316082613141565b8484546130c3565b825550505050565b600090565b61317d613170565b61318881848461314b565b505050565b5b818110156131ac576131a1600082613175565b60018101905061318e565b5050565b601f8211156131f1576131c281613091565b6131cb846130a6565b810160208510156131da578190505b6131ee6131e6856130a6565b83018261318d565b50505b505050565b600082821c905092915050565b6000613214600019846008026131f6565b1980831691505092915050565b600061322d8383613203565b9150826002028217905092915050565b6132468261248e565b67ffffffffffffffff81111561325f5761325e61271f565b5b6132698254612b35565b6132748282856131b0565b600060209050601f8311600181146132a75760008415613295578287015190505b61329f8582613221565b865550613307565b601f1984166132b586613091565b60005b828110156132dd578489015182556001820191506020850194506020810190506132b8565b868310156132fa57848901516132f6601f891682613203565b8355505b6001600288020188555050505b505050505050565b7f456767546f6b656e203a2049742773206120746f6b656e207468617420616c7260008201527f6561647920657869737473000000000000000000000000000000000000000000602082015250565b600061336b602b83612499565b91506133768261330f565b604082019050919050565b6000602082019050818103600083015261339a8161335e565b9050919050565b7f456767546f6b656e203a2042652073686f7274206f66206d6f6e657900000000600082015250565b60006133d7601c83612499565b91506133e2826133a1565b602082019050919050565b60006020820190508181036000830152613406816133ca565b9050919050565b7f456767546f6b656e203a20497420657863656564656420746865206d6178696d60008201527f756d20616d6f756e742069737375656400000000000000000000000000000000602082015250565b6000613469603083612499565b91506134748261340d565b604082019050919050565b600060208201905081810360008301526134988161345c565b9050919050565b7f4d696e7465640000000000000000000000000000000000000000000000000000600082015250565b60006134d5600683612499565b91506134e08261349f565b602082019050919050565b6000819050919050565b600061351061350b613506846134eb565b613115565b612540565b9050919050565b613520816134f5565b82525050565b600060a08201905061353b6000830187612a9c565b818103602083015261354c816134c8565b905061355b6040830186613517565b61356860608301856125d5565b61357560808301846125d5565b95945050505050565b600081905092915050565b6000815461359681612b35565b6135a0818661357e565b945060018216600081146135bb57600181146135d057613603565b60ff1983168652811515820286019350613603565b6135d985613091565b60005b838110156135fb578154818901526001820191506020810190506135dc565b838801955050505b50505092915050565b7f2f00000000000000000000000000000000000000000000000000000000000000600082015250565b600061364260018361357e565b915061364d8261360c565b600182019050919050565b60006136638261248e565b61366d818561357e565b935061367d8185602086016124aa565b80840191505092915050565b7f2e6a736f6e000000000000000000000000000000000000000000000000000000600082015250565b60006136bf60058361357e565b91506136ca82613689565b600582019050919050565b60006136e18285613589565b91506136ec82613635565b91506136f88284613658565b9150613703826136b2565b91508190509392505050565b7f4f776e61626c653a206e6577206f776e657220697320746865207a65726f206160008201527f6464726573730000000000000000000000000000000000000000000000000000602082015250565b600061376b602683612499565b91506137768261370f565b604082019050919050565b6000602082019050818103600083015261379a8161375e565b9050919050565b7f4552433732313a206f70657261746f7220717565727920666f72206e6f6e657860008201527f697374656e7420746f6b656e0000000000000000000000000000000000000000602082015250565b60006137fd602c83612499565b9150613808826137a1565b604082019050919050565b6000602082019050818103600083015261382c816137f0565b9050919050565b7f4552433732313a207472616e736665722066726f6d20696e636f72726563742060008201527f6f776e6572000000000000000000000000000000000000000000000000000000602082015250565b600061388f602583612499565b915061389a82613833565b604082019050919050565b600060208201905081810360008301526138be81613882565b9050919050565b7f4552433732313a207472616e7366657220746f20746865207a65726f2061646460008201527f7265737300000000000000000000000000000000000000000000000000000000602082015250565b6000613921602483612499565b915061392c826138c5565b604082019050919050565b6000602082019050818103600083015261395081613914565b9050919050565b7f4e487b7100000000000000000000000000000000000000000000000000000000600052601160045260246000fd5b600061399182612540565b915061399c83612540565b92508282039050818111156139b4576139b3613957565b5b92915050565b60006139c582612540565b91506139d083612540565b92508282019050808211156139e8576139e7613957565b5b92915050565b7f4552433732313a20617070726f766520746f2063616c6c657200000000000000600082015250565b6000613a24601983612499565b9150613a2f826139ee565b602082019050919050565b60006020820190508181036000830152613a5381613a17565b9050919050565b6000613a65826128ff565b915060ff8203613a7857613a77613957565b5b600182019050919050565b7f4552433732313a206d696e7420746f20746865207a65726f2061646472657373600082015250565b6000613ab9602083612499565b9150613ac482613a83565b602082019050919050565b60006020820190508181036000830152613ae881613aac565b9050919050565b7f4552433732313a20746f6b656e20616c7265616479206d696e74656400000000600082015250565b6000613b25601c83612499565b9150613b3082613aef565b602082019050919050565b60006020820190508181036000830152613b5481613b18565b9050919050565b7f4552433732313a207472616e7366657220746f206e6f6e20455243373231526560008201527f63656976657220696d706c656d656e7465720000000000000000000000000000602082015250565b6000613bb7603283612499565b9150613bc282613b5b565b604082019050919050565b60006020820190508181036000830152613be681613baa565b9050919050565b6000613bf882612540565b91507fffffffffffffffffffffffffffffffffffffffffffffffffffffffffffffffff8203613c2a57613c29613957565b5b600182019050919050565b7f4e487b7100000000000000000000000000000000000000000000000000000000600052601260045260246000fd5b6000613c6f82612540565b9150613c7a83612540565b925082613c8a57613c89613c35565b5b828204905092915050565b6000613ca082612540565b9150613cab83612540565b925082613cbb57613cba613c35565b5b828206905092915050565b600081519050919050565b600082825260208201905092915050565b6000613ced82613cc6565b613cf78185613cd1565b9350613d078185602086016124aa565b613d10816124d4565b840191505092915050565b6000608082019050613d3060008301876125d5565b613d3d60208301866125d5565b613d4a604083018561266b565b8181036060830152613d5c8184613ce2565b905095945050505050565b600081519050613d76816123ff565b92915050565b600060208284031215613d9257613d916123c9565b5b6000613da084828501613d67565b91505092915050565b7f4e487b7100000000000000000000000000000000000000000000000000000000600052603160045260246000fdfea26469706673582212205845e137c23629735f154ab302ce87fc34a22362524a5c6be287b8e1e534c15664736f6c63430008110033",
  "immutableReferences": {},
  "source": "// SPDX-License-Identifier:MIT\r\npragma solidity ^0.8.17;\r\n\r\nimport \"../node_modules/openzeppelin-solidity/contracts/token/ERC721/extensions/ERC721Enumerable.sol\";\r\n\r\nimport \"../node_modules/openzeppelin-solidity/contracts/access/Ownable.sol\";\r\n\r\nimport \"../node_modules/openzeppelin-solidity/contracts/utils/Strings.sol\";\r\n\r\n\r\ncontract EggToken is ERC721Enumerable, Ownable {\r\n\r\n    //  \r\n    uint8 constant public MAX_TOKEN_COUNT = 100;\r\n\r\n    //       \r\n    uint public mintPrice = 10 wei;\r\n\r\n    // json metadata URI\r\n    string public metadataURI;\r\n\r\n    //   \r\n    uint8[] tokenList;\r\n\r\n    // minting  \r\n    event Minting(uint8 tokenId, string state, uint price, address from, address to);\r\n\r\n    //  \r\n    constructor(string memory _name, string memory _symbol, string memory _metadataURI) ERC721 (_name, _symbol) {\r\n        metadataURI = _metadataURI;\r\n    }\r\n\r\n    function mintToken(address _saleContractCA, uint8 _tokenId) public payable {\r\n\r\n        //  tokenId    .\r\n        require(_overlapCheckTokenId(_tokenId), \"EggToken : It's a token that already exists\");\r\n\r\n        // mintPrice     \r\n        require(msg.value >= mintPrice,\"EggToken : Be short of money\");\r\n\r\n        //      .\r\n        require(MAX_TOKEN_COUNT > totalSupply(), \"EggToken : It exceeded the maximum amount issued\");\r\n\r\n        // CA   .\r\n        payable(Ownable.owner()).transfer(msg.value);\r\n\r\n        //   () NTF \r\n        _mint(msg.sender, _tokenId);\r\n\r\n        setApprovalForAll(_saleContractCA, true);\r\n\r\n        tokenList.push(_tokenId);\r\n\r\n        emit Minting(_tokenId, \"Minted\", 0, address(0), msg.sender);\r\n    }\r\n\r\n    function _overlapCheckTokenId(uint8 _tokenId) private view returns (bool){\r\n        if(tokenList.length == 0) return true;\r\n        //     100 0~255   uint8 .\r\n        for(uint8 i = 0; i < tokenList.length; i++){\r\n            if(tokenList[i] == _tokenId) return false;\r\n        }\r\n        return true;\r\n    }\r\n\r\n    function tokenURI(uint _tokenId) public override view returns (string memory) {\r\n\r\n        string memory tokenIdStr = Strings.toString(_tokenId);\r\n        return string(abi.encodePacked(metadataURI, \"/\", tokenIdStr,\".json\"));\r\n    }\r\n\r\n    function setMetadataURI(string memory _uri) public onlyOwner {\r\n        metadataURI = _uri;\r\n    } \r\n}",
  "sourcePath": "C:\\Users\\natay\\OneDrive\\ \\coding\\Projects\\EGG-NFT-STORE\\front\\contracts\\EggToken.sol",
  "compiler": {
    "name": "solc",
    "version": "0.8.17+commit.8df45f5f.Emscripten.clang"
  },
  "schemaVersion": "3.4.11",
  "updatedAt": "2022-12-26T15:49:04.114Z",
  "networkType": "ethereum",
  "devdoc": {
    "kind": "dev",
    "methods": {
      "approve(address,uint256)": {
        "details": "See {IERC721-approve}."
      },
      "balanceOf(address)": {
        "details": "See {IERC721-balanceOf}."
      },
      "getApproved(uint256)": {
        "details": "See {IERC721-getApproved}."
      },
      "isApprovedForAll(address,address)": {
        "details": "See {IERC721-isApprovedForAll}."
      },
      "name()": {
        "details": "See {IERC721Metadata-name}."
      },
      "owner()": {
        "details": "Returns the address of the current owner."
      },
      "ownerOf(uint256)": {
        "details": "See {IERC721-ownerOf}."
      },
      "renounceOwnership()": {
        "details": "Leaves the contract without owner. It will not be possible to call `onlyOwner` functions anymore. Can only be called by the current owner. NOTE: Renouncing ownership will leave the contract without an owner, thereby removing any functionality that is only available to the owner."
      },
      "safeTransferFrom(address,address,uint256)": {
        "details": "See {IERC721-safeTransferFrom}."
      },
      "safeTransferFrom(address,address,uint256,bytes)": {
        "details": "See {IERC721-safeTransferFrom}."
      },
      "setApprovalForAll(address,bool)": {
        "details": "See {IERC721-setApprovalForAll}."
      },
      "supportsInterface(bytes4)": {
        "details": "See {IERC165-supportsInterface}."
      },
      "symbol()": {
        "details": "See {IERC721Metadata-symbol}."
      },
      "tokenByIndex(uint256)": {
        "details": "See {IERC721Enumerable-tokenByIndex}."
      },
      "tokenOfOwnerByIndex(address,uint256)": {
        "details": "See {IERC721Enumerable-tokenOfOwnerByIndex}."
      },
      "totalSupply()": {
        "details": "See {IERC721Enumerable-totalSupply}."
      },
      "transferFrom(address,address,uint256)": {
        "details": "See {IERC721-transferFrom}."
      },
      "transferOwnership(address)": {
        "details": "Transfers ownership of the contract to a new account (`newOwner`). Can only be called by the current owner."
      }
    },
    "version": 1
  },
  "userdoc": {
    "kind": "user",
    "methods": {},
    "version": 1
  }
}