{
  "contractName": "EggToken",
  "abi": [
    {
      "inputs": [
        {
          "internalType": "string",
          "name": "_name",
          "type": "string"
        },
        {
          "internalType": "string",
          "name": "_symbol",
          "type": "string"
        },
        {
          "internalType": "string",
          "name": "_metadataURI",
          "type": "string"
        }
      ],
      "stateMutability": "nonpayable",
      "type": "constructor"
    },
    {
      "anonymous": false,
      "inputs": [
        {
          "indexed": true,
          "internalType": "address",
          "name": "owner",
          "type": "address"
        },
        {
          "indexed": true,
          "internalType": "address",
          "name": "approved",
          "type": "address"
        },
        {
          "indexed": true,
          "internalType": "uint256",
          "name": "tokenId",
          "type": "uint256"
        }
      ],
      "name": "Approval",
      "type": "event"
    },
    {
      "anonymous": false,
      "inputs": [
        {
          "indexed": true,
          "internalType": "address",
          "name": "owner",
          "type": "address"
        },
        {
          "indexed": true,
          "internalType": "address",
          "name": "operator",
          "type": "address"
        },
        {
          "indexed": false,
          "internalType": "bool",
          "name": "approved",
          "type": "bool"
        }
      ],
      "name": "ApprovalForAll",
      "type": "event"
    },
    {
      "anonymous": false,
      "inputs": [
        {
          "indexed": false,
          "internalType": "uint256",
          "name": "tokenId",
          "type": "uint256"
        },
        {
          "indexed": false,
          "internalType": "string",
          "name": "state",
          "type": "string"
        },
        {
          "indexed": false,
          "internalType": "uint256",
          "name": "price",
          "type": "uint256"
        },
        {
          "indexed": false,
          "internalType": "address",
          "name": "from",
          "type": "address"
        },
        {
          "indexed": false,
          "internalType": "address",
          "name": "to",
          "type": "address"
        }
      ],
      "name": "Minting",
      "type": "event"
    },
    {
      "anonymous": false,
      "inputs": [
        {
          "indexed": true,
          "internalType": "address",
          "name": "previousOwner",
          "type": "address"
        },
        {
          "indexed": true,
          "internalType": "address",
          "name": "newOwner",
          "type": "address"
        }
      ],
      "name": "OwnershipTransferred",
      "type": "event"
    },
    {
      "anonymous": false,
      "inputs": [
        {
          "indexed": true,
          "internalType": "address",
          "name": "from",
          "type": "address"
        },
        {
          "indexed": true,
          "internalType": "address",
          "name": "to",
          "type": "address"
        },
        {
          "indexed": true,
          "internalType": "uint256",
          "name": "tokenId",
          "type": "uint256"
        }
      ],
      "name": "Transfer",
      "type": "event"
    },
    {
      "inputs": [],
      "name": "MAX_TOKEN_COUNT",
      "outputs": [
        {
          "internalType": "uint8",
          "name": "",
          "type": "uint8"
        }
      ],
      "stateMutability": "view",
      "type": "function",
      "constant": true
    },
    {
      "inputs": [
        {
          "internalType": "address",
          "name": "to",
          "type": "address"
        },
        {
          "internalType": "uint256",
          "name": "tokenId",
          "type": "uint256"
        }
      ],
      "name": "approve",
      "outputs": [],
      "stateMutability": "nonpayable",
      "type": "function"
    },
    {
      "inputs": [
        {
          "internalType": "address",
          "name": "owner",
          "type": "address"
        }
      ],
      "name": "balanceOf",
      "outputs": [
        {
          "internalType": "uint256",
          "name": "",
          "type": "uint256"
        }
      ],
      "stateMutability": "view",
      "type": "function",
      "constant": true
    },
    {
      "inputs": [
        {
          "internalType": "uint256",
          "name": "tokenId",
          "type": "uint256"
        }
      ],
      "name": "getApproved",
      "outputs": [
        {
          "internalType": "address",
          "name": "",
          "type": "address"
        }
      ],
      "stateMutability": "view",
      "type": "function",
      "constant": true
    },
    {
      "inputs": [
        {
          "internalType": "address",
          "name": "owner",
          "type": "address"
        },
        {
          "internalType": "address",
          "name": "operator",
          "type": "address"
        }
      ],
      "name": "isApprovedForAll",
      "outputs": [
        {
          "internalType": "bool",
          "name": "",
          "type": "bool"
        }
      ],
      "stateMutability": "view",
      "type": "function",
      "constant": true
    },
    {
      "inputs": [],
      "name": "metadataURI",
      "outputs": [
        {
          "internalType": "string",
          "name": "",
          "type": "string"
        }
      ],
      "stateMutability": "view",
      "type": "function",
      "constant": true
    },
    {
      "inputs": [],
      "name": "mintPrice",
      "outputs": [
        {
          "internalType": "uint256",
          "name": "",
          "type": "uint256"
        }
      ],
      "stateMutability": "view",
      "type": "function",
      "constant": true
    },
    {
      "inputs": [],
      "name": "name",
      "outputs": [
        {
          "internalType": "string",
          "name": "",
          "type": "string"
        }
      ],
      "stateMutability": "view",
      "type": "function",
      "constant": true
    },
    {
      "inputs": [],
      "name": "owner",
      "outputs": [
        {
          "internalType": "address",
          "name": "",
          "type": "address"
        }
      ],
      "stateMutability": "view",
      "type": "function",
      "constant": true
    },
    {
      "inputs": [
        {
          "internalType": "uint256",
          "name": "tokenId",
          "type": "uint256"
        }
      ],
      "name": "ownerOf",
      "outputs": [
        {
          "internalType": "address",
          "name": "",
          "type": "address"
        }
      ],
      "stateMutability": "view",
      "type": "function",
      "constant": true
    },
    {
      "inputs": [],
      "name": "renounceOwnership",
      "outputs": [],
      "stateMutability": "nonpayable",
      "type": "function"
    },
    {
      "inputs": [
        {
          "internalType": "address",
          "name": "from",
          "type": "address"
        },
        {
          "internalType": "address",
          "name": "to",
          "type": "address"
        },
        {
          "internalType": "uint256",
          "name": "tokenId",
          "type": "uint256"
        }
      ],
      "name": "safeTransferFrom",
      "outputs": [],
      "stateMutability": "nonpayable",
      "type": "function"
    },
    {
      "inputs": [
        {
          "internalType": "address",
          "name": "from",
          "type": "address"
        },
        {
          "internalType": "address",
          "name": "to",
          "type": "address"
        },
        {
          "internalType": "uint256",
          "name": "tokenId",
          "type": "uint256"
        },
        {
          "internalType": "bytes",
          "name": "_data",
          "type": "bytes"
        }
      ],
      "name": "safeTransferFrom",
      "outputs": [],
      "stateMutability": "nonpayable",
      "type": "function"
    },
    {
      "inputs": [
        {
          "internalType": "address",
          "name": "operator",
          "type": "address"
        },
        {
          "internalType": "bool",
          "name": "approved",
          "type": "bool"
        }
      ],
      "name": "setApprovalForAll",
      "outputs": [],
      "stateMutability": "nonpayable",
      "type": "function"
    },
    {
      "inputs": [
        {
          "internalType": "bytes4",
          "name": "interfaceId",
          "type": "bytes4"
        }
      ],
      "name": "supportsInterface",
      "outputs": [
        {
          "internalType": "bool",
          "name": "",
          "type": "bool"
        }
      ],
      "stateMutability": "view",
      "type": "function",
      "constant": true
    },
    {
      "inputs": [],
      "name": "symbol",
      "outputs": [
        {
          "internalType": "string",
          "name": "",
          "type": "string"
        }
      ],
      "stateMutability": "view",
      "type": "function",
      "constant": true
    },
    {
      "inputs": [
        {
          "internalType": "uint256",
          "name": "index",
          "type": "uint256"
        }
      ],
      "name": "tokenByIndex",
      "outputs": [
        {
          "internalType": "uint256",
          "name": "",
          "type": "uint256"
        }
      ],
      "stateMutability": "view",
      "type": "function",
      "constant": true
    },
    {
      "inputs": [
        {
          "internalType": "address",
          "name": "owner",
          "type": "address"
        },
        {
          "internalType": "uint256",
          "name": "index",
          "type": "uint256"
        }
      ],
      "name": "tokenOfOwnerByIndex",
      "outputs": [
        {
          "internalType": "uint256",
          "name": "",
          "type": "uint256"
        }
      ],
      "stateMutability": "view",
      "type": "function",
      "constant": true
    },
    {
      "inputs": [],
      "name": "totalSupply",
      "outputs": [
        {
          "internalType": "uint256",
          "name": "",
          "type": "uint256"
        }
      ],
      "stateMutability": "view",
      "type": "function",
      "constant": true
    },
    {
      "inputs": [
        {
          "internalType": "address",
          "name": "from",
          "type": "address"
        },
        {
          "internalType": "address",
          "name": "to",
          "type": "address"
        },
        {
          "internalType": "uint256",
          "name": "tokenId",
          "type": "uint256"
        }
      ],
      "name": "transferFrom",
      "outputs": [],
      "stateMutability": "nonpayable",
      "type": "function"
    },
    {
      "inputs": [
        {
          "internalType": "address",
          "name": "newOwner",
          "type": "address"
        }
      ],
      "name": "transferOwnership",
      "outputs": [],
      "stateMutability": "nonpayable",
      "type": "function"
    },
    {
      "inputs": [
        {
          "internalType": "address",
          "name": "_saleContractCA",
          "type": "address"
        }
      ],
      "name": "mintToken",
      "outputs": [],
      "stateMutability": "payable",
      "type": "function",
      "payable": true
    },
    {
      "inputs": [
        {
          "internalType": "uint256",
          "name": "_tokenId",
          "type": "uint256"
        }
      ],
      "name": "tokenURI",
      "outputs": [
        {
          "internalType": "string",
          "name": "",
          "type": "string"
        }
      ],
      "stateMutability": "view",
      "type": "function",
      "constant": true
    },
    {
      "inputs": [
        {
          "internalType": "string",
          "name": "_uri",
          "type": "string"
        }
      ],
      "name": "setMetadataURI",
      "outputs": [],
      "stateMutability": "nonpayable",
      "type": "function"
    }
  ],
  "bytecode": "0x6080604052600a600b553480156200001657600080fd5b50604051620042fe380380620042fe83398181016040528101906200003c919062000300565b828281600090816200004f919062000604565b50806001908162000061919062000604565b50505062000084620000786200009f60201b60201c565b620000a760201b60201c565b80600c908162000095919062000604565b50505050620006eb565b600033905090565b6000600a60009054906101000a900473ffffffffffffffffffffffffffffffffffffffff16905081600a60006101000a81548173ffffffffffffffffffffffffffffffffffffffff021916908373ffffffffffffffffffffffffffffffffffffffff1602179055508173ffffffffffffffffffffffffffffffffffffffff168173ffffffffffffffffffffffffffffffffffffffff167f8be0079c531659141344cd1fd0a4f28419497f9722a3daafe3b4186f6b6457e060405160405180910390a35050565b6000604051905090565b600080fd5b600080fd5b600080fd5b600080fd5b6000601f19601f8301169050919050565b7f4e487b7100000000000000000000000000000000000000000000000000000000600052604160045260246000fd5b620001d6826200018b565b810181811067ffffffffffffffff82111715620001f857620001f76200019c565b5b80604052505050565b60006200020d6200016d565b90506200021b8282620001cb565b919050565b600067ffffffffffffffff8211156200023e576200023d6200019c565b5b62000249826200018b565b9050602081019050919050565b60005b838110156200027657808201518184015260208101905062000259565b60008484015250505050565b600062000299620002938462000220565b62000201565b905082815260208101848484011115620002b857620002b762000186565b5b620002c584828562000256565b509392505050565b600082601f830112620002e557620002e462000181565b5b8151620002f784826020860162000282565b91505092915050565b6000806000606084860312156200031c576200031b62000177565b5b600084015167ffffffffffffffff8111156200033d576200033c6200017c565b5b6200034b86828701620002cd565b935050602084015167ffffffffffffffff8111156200036f576200036e6200017c565b5b6200037d86828701620002cd565b925050604084015167ffffffffffffffff811115620003a157620003a06200017c565b5b620003af86828701620002cd565b9150509250925092565b600081519050919050565b7f4e487b7100000000000000000000000000000000000000000000000000000000600052602260045260246000fd5b600060028204905060018216806200040c57607f821691505b602082108103620004225762000421620003c4565b5b50919050565b60008190508160005260206000209050919050565b60006020601f8301049050919050565b600082821b905092915050565b6000600883026200048c7fffffffffffffffffffffffffffffffffffffffffffffffffffffffffffffffff826200044d565b6200049886836200044d565b95508019841693508086168417925050509392505050565b6000819050919050565b6000819050919050565b6000620004e5620004df620004d984620004b0565b620004ba565b620004b0565b9050919050565b6000819050919050565b6200050183620004c4565b620005196200051082620004ec565b8484546200045a565b825550505050565b600090565b6200053062000521565b6200053d818484620004f6565b505050565b5b8181101562000565576200055960008262000526565b60018101905062000543565b5050565b601f821115620005b4576200057e8162000428565b62000589846200043d565b8101602085101562000599578190505b620005b1620005a8856200043d565b83018262000542565b50505b505050565b600082821c905092915050565b6000620005d960001984600802620005b9565b1980831691505092915050565b6000620005f48383620005c6565b9150826002028217905092915050565b6200060f82620003b9565b67ffffffffffffffff8111156200062b576200062a6200019c565b5b620006378254620003f3565b6200064482828562000569565b600060209050601f8311600181146200067c576000841562000667578287015190505b620006738582620005e6565b865550620006e3565b601f1984166200068c8662000428565b60005b82811015620006b6578489015182556001820191506020850194506020810190506200068f565b86831015620006d65784890151620006d2601f891682620005c6565b8355505b6001600288020188555050505b505050505050565b613c0380620006fb6000396000f3fe60806040526004361061014b5760003560e01c80636817c76c116100b6578063a22cb4651161006f578063a22cb46514610497578063b88d4fde146104c0578063c87b56dd146104e9578063d0bbb0d714610526578063e985e9c514610551578063f2fde38b1461058e5761014b565b80636817c76c1461039957806370a08231146103c4578063715018a614610401578063750521f5146104185780638da5cb5b1461044157806395d89b411461046c5761014b565b806318160ddd1161010857806318160ddd1461026557806323b872dd146102905780632f745c59146102b957806342842e0e146102f65780634f6ccce71461031f5780636352211e1461035c5761014b565b806301173a741461015057806301ffc9a71461016c57806303ee438c146101a957806306fdde03146101d4578063081812fc146101ff578063095ea7b31461023c575b600080fd5b61016a6004803603810190610165919061234d565b6105b7565b005b34801561017857600080fd5b50610193600480360381019061018e91906123d2565b61072f565b6040516101a0919061241a565b60405180910390f35b3480156101b557600080fd5b506101be6107a9565b6040516101cb91906124c5565b60405180910390f35b3480156101e057600080fd5b506101e9610837565b6040516101f691906124c5565b60405180910390f35b34801561020b57600080fd5b506102266004803603810190610221919061251d565b6108c9565b6040516102339190612559565b60405180910390f35b34801561024857600080fd5b50610263600480360381019061025e9190612574565b61094e565b005b34801561027157600080fd5b5061027a610a65565b60405161028791906125c3565b60405180910390f35b34801561029c57600080fd5b506102b760048036038101906102b291906125de565b610a72565b005b3480156102c557600080fd5b506102e060048036038101906102db9190612574565b610ad2565b6040516102ed91906125c3565b60405180910390f35b34801561030257600080fd5b5061031d600480360381019061031891906125de565b610b77565b005b34801561032b57600080fd5b506103466004803603810190610341919061251d565b610b97565b60405161035391906125c3565b60405180910390f35b34801561036857600080fd5b50610383600480360381019061037e919061251d565b610c08565b6040516103909190612559565b60405180910390f35b3480156103a557600080fd5b506103ae610cb9565b6040516103bb91906125c3565b60405180910390f35b3480156103d057600080fd5b506103eb60048036038101906103e6919061234d565b610cbf565b6040516103f891906125c3565b60405180910390f35b34801561040d57600080fd5b50610416610d76565b005b34801561042457600080fd5b5061043f600480360381019061043a9190612766565b610dfe565b005b34801561044d57600080fd5b50610456610e8d565b6040516104639190612559565b60405180910390f35b34801561047857600080fd5b50610481610eb7565b60405161048e91906124c5565b60405180910390f35b3480156104a357600080fd5b506104be60048036038101906104b991906127db565b610f49565b005b3480156104cc57600080fd5b506104e760048036038101906104e291906128bc565b610f5f565b005b3480156104f557600080fd5b50610510600480360381019061050b919061251d565b610fc1565b60405161051d91906124c5565b60405180910390f35b34801561053257600080fd5b5061053b610ffb565b604051610548919061295b565b60405180910390f35b34801561055d57600080fd5b5061057860048036038101906105739190612976565b611000565b604051610585919061241a565b60405180910390f35b34801561059a57600080fd5b506105b560048036038101906105b0919061234d565b611094565b005b600b543410156105fc576040517f08c379a00000000000000000000000000000000000000000000000000000000081526004016105f390612a02565b60405180910390fd5b610604610a65565b606460ff1611610649576040517f08c379a000000000000000000000000000000000000000000000000000000000815260040161064090612a94565b60405180910390fd5b610651610e8d565b73ffffffffffffffffffffffffffffffffffffffff166108fc349081150290604051600060405180830381858888f19350505050158015610696573d6000803e3d6000fd5b50600060016106a3610a65565b6106ad9190612ae3565b90506106b9338261118b565b6106c4826001610f49565b600d8190806001815401808255809150506001900390600052602060002001600090919091909150557f02a7ba4c53bc7189642c7895c6827a394b701a4763f59bdde50ec993f13089fc81600080336040516107239493929190612ba8565b60405180910390a15050565b60007f780e9d63000000000000000000000000000000000000000000000000000000007bffffffffffffffffffffffffffffffffffffffffffffffffffffffff1916827bffffffffffffffffffffffffffffffffffffffffffffffffffffffff191614806107a257506107a182611364565b5b9050919050565b600c80546107b690612c2f565b80601f01602080910402602001604051908101604052809291908181526020018280546107e290612c2f565b801561082f5780601f106108045761010080835404028352916020019161082f565b820191906000526020600020905b81548152906001019060200180831161081257829003601f168201915b505050505081565b60606000805461084690612c2f565b80601f016020809104026020016040519081016040528092919081815260200182805461087290612c2f565b80156108bf5780601f10610894576101008083540402835291602001916108bf565b820191906000526020600020905b8154815290600101906020018083116108a257829003601f168201915b5050505050905090565b60006108d482611446565b610913576040517f08c379a000000000000000000000000000000000000000000000000000000000815260040161090a90612cd2565b60405180910390fd5b6004600083815260200190815260200160002060009054906101000a900473ffffffffffffffffffffffffffffffffffffffff169050919050565b600061095982610c08565b90508073ffffffffffffffffffffffffffffffffffffffff168373ffffffffffffffffffffffffffffffffffffffff16036109c9576040517f08c379a00000000000000000000000000000000000000000000000000000000081526004016109c090612d64565b60405180910390fd5b8073ffffffffffffffffffffffffffffffffffffffff166109e86114b2565b73ffffffffffffffffffffffffffffffffffffffff161480610a175750610a1681610a116114b2565b611000565b5b610a56576040517f08c379a0000000000000000000000000000000000000000000000000000000008152600401610a4d90612df6565b60405180910390fd5b610a6083836114ba565b505050565b6000600880549050905090565b610a83610a7d6114b2565b82611573565b610ac2576040517f08c379a0000000000000000000000000000000000000000000000000000000008152600401610ab990612e88565b60405180910390fd5b610acd838383611651565b505050565b6000610add83610cbf565b8210610b1e576040517f08c379a0000000000000000000000000000000000000000000000000000000008152600401610b1590612f1a565b60405180910390fd5b600660008473ffffffffffffffffffffffffffffffffffffffff1673ffffffffffffffffffffffffffffffffffffffff168152602001908152602001600020600083815260200190815260200160002054905092915050565b610b9283838360405180602001604052806000815250610f5f565b505050565b6000610ba1610a65565b8210610be2576040517f08c379a0000000000000000000000000000000000000000000000000000000008152600401610bd990612fac565b60405180910390fd5b60088281548110610bf657610bf5612fcc565b5b90600052602060002001549050919050565b6000806002600084815260200190815260200160002060009054906101000a900473ffffffffffffffffffffffffffffffffffffffff169050600073ffffffffffffffffffffffffffffffffffffffff168173ffffffffffffffffffffffffffffffffffffffff1603610cb0576040517f08c379a0000000000000000000000000000000000000000000000000000000008152600401610ca79061306d565b60405180910390fd5b80915050919050565b600b5481565b60008073ffffffffffffffffffffffffffffffffffffffff168273ffffffffffffffffffffffffffffffffffffffff1603610d2f576040517f08c379a0000000000000000000000000000000000000000000000000000000008152600401610d26906130ff565b60405180910390fd5b600360008373ffffffffffffffffffffffffffffffffffffffff1673ffffffffffffffffffffffffffffffffffffffff168152602001908152602001600020549050919050565b610d7e6114b2565b73ffffffffffffffffffffffffffffffffffffffff16610d9c610e8d565b73ffffffffffffffffffffffffffffffffffffffff1614610df2576040517f08c379a0000000000000000000000000000000000000000000000000000000008152600401610de99061316b565b60405180910390fd5b610dfc60006118b7565b565b610e066114b2565b73ffffffffffffffffffffffffffffffffffffffff16610e24610e8d565b73ffffffffffffffffffffffffffffffffffffffff1614610e7a576040517f08c379a0000000000000000000000000000000000000000000000000000000008152600401610e719061316b565b60405180910390fd5b80600c9081610e89919061332d565b5050565b6000600a60009054906101000a900473ffffffffffffffffffffffffffffffffffffffff16905090565b606060018054610ec690612c2f565b80601f0160208091040260200160405190810160405280929190818152602001828054610ef290612c2f565b8015610f3f5780601f10610f1457610100808354040283529160200191610f3f565b820191906000526020600020905b815481529060010190602001808311610f2257829003601f168201915b5050505050905090565b610f5b610f546114b2565b838361197d565b5050565b610f70610f6a6114b2565b83611573565b610faf576040517f08c379a0000000000000000000000000000000000000000000000000000000008152600401610fa690612e88565b60405180910390fd5b610fbb84848484611ae9565b50505050565b60606000610fce83611b45565b9050600c81604051602001610fe4929190613556565b604051602081830303815290604052915050919050565b606481565b6000600560008473ffffffffffffffffffffffffffffffffffffffff1673ffffffffffffffffffffffffffffffffffffffff16815260200190815260200160002060008373ffffffffffffffffffffffffffffffffffffffff1673ffffffffffffffffffffffffffffffffffffffff16815260200190815260200160002060009054906101000a900460ff16905092915050565b61109c6114b2565b73ffffffffffffffffffffffffffffffffffffffff166110ba610e8d565b73ffffffffffffffffffffffffffffffffffffffff1614611110576040517f08c379a00000000000000000000000000000000000000000000000000000000081526004016111079061316b565b60405180910390fd5b600073ffffffffffffffffffffffffffffffffffffffff168173ffffffffffffffffffffffffffffffffffffffff160361117f576040517f08c379a000000000000000000000000000000000000000000000000000000000815260040161117690613602565b60405180910390fd5b611188816118b7565b50565b600073ffffffffffffffffffffffffffffffffffffffff168273ffffffffffffffffffffffffffffffffffffffff16036111fa576040517f08c379a00000000000000000000000000000000000000000000000000000000081526004016111f19061366e565b60405180910390fd5b61120381611446565b15611243576040517f08c379a000000000000000000000000000000000000000000000000000000000815260040161123a906136da565b60405180910390fd5b61124f60008383611ca5565b6001600360008473ffffffffffffffffffffffffffffffffffffffff1673ffffffffffffffffffffffffffffffffffffffff168152602001908152602001600020600082825461129f9190612ae3565b92505081905550816002600083815260200190815260200160002060006101000a81548173ffffffffffffffffffffffffffffffffffffffff021916908373ffffffffffffffffffffffffffffffffffffffff160217905550808273ffffffffffffffffffffffffffffffffffffffff16600073ffffffffffffffffffffffffffffffffffffffff167fddf252ad1be2c89b69c2b068fc378daa952ba7f163c4a11628f55a4df523b3ef60405160405180910390a461136060008383611db7565b5050565b60007f80ac58cd000000000000000000000000000000000000000000000000000000007bffffffffffffffffffffffffffffffffffffffffffffffffffffffff1916827bffffffffffffffffffffffffffffffffffffffffffffffffffffffff1916148061142f57507f5b5e139f000000000000000000000000000000000000000000000000000000007bffffffffffffffffffffffffffffffffffffffffffffffffffffffff1916827bffffffffffffffffffffffffffffffffffffffffffffffffffffffff1916145b8061143f575061143e82611dbc565b5b9050919050565b60008073ffffffffffffffffffffffffffffffffffffffff166002600084815260200190815260200160002060009054906101000a900473ffffffffffffffffffffffffffffffffffffffff1673ffffffffffffffffffffffffffffffffffffffff1614159050919050565b600033905090565b816004600083815260200190815260200160002060006101000a81548173ffffffffffffffffffffffffffffffffffffffff021916908373ffffffffffffffffffffffffffffffffffffffff160217905550808273ffffffffffffffffffffffffffffffffffffffff1661152d83610c08565b73ffffffffffffffffffffffffffffffffffffffff167f8c5be1e5ebec7d5bd14f71427d1e84f3dd0314c0f7b2291e5b200ac8c7c3b92560405160405180910390a45050565b600061157e82611446565b6115bd576040517f08c379a00000000000000000000000000000000000000000000000000000000081526004016115b49061376c565b60405180910390fd5b60006115c883610c08565b90508073ffffffffffffffffffffffffffffffffffffffff168473ffffffffffffffffffffffffffffffffffffffff16148061160a57506116098185611000565b5b8061164857508373ffffffffffffffffffffffffffffffffffffffff16611630846108c9565b73ffffffffffffffffffffffffffffffffffffffff16145b91505092915050565b8273ffffffffffffffffffffffffffffffffffffffff1661167182610c08565b73ffffffffffffffffffffffffffffffffffffffff16146116c7576040517f08c379a00000000000000000000000000000000000000000000000000000000081526004016116be906137fe565b60405180910390fd5b600073ffffffffffffffffffffffffffffffffffffffff168273ffffffffffffffffffffffffffffffffffffffff1603611736576040517f08c379a000000000000000000000000000000000000000000000000000000000815260040161172d90613890565b60405180910390fd5b611741838383611ca5565b61174c6000826114ba565b6001600360008573ffffffffffffffffffffffffffffffffffffffff1673ffffffffffffffffffffffffffffffffffffffff168152602001908152602001600020600082825461179c91906138b0565b925050819055506001600360008473ffffffffffffffffffffffffffffffffffffffff1673ffffffffffffffffffffffffffffffffffffffff16815260200190815260200160002060008282546117f39190612ae3565b92505081905550816002600083815260200190815260200160002060006101000a81548173ffffffffffffffffffffffffffffffffffffffff021916908373ffffffffffffffffffffffffffffffffffffffff160217905550808273ffffffffffffffffffffffffffffffffffffffff168473ffffffffffffffffffffffffffffffffffffffff167fddf252ad1be2c89b69c2b068fc378daa952ba7f163c4a11628f55a4df523b3ef60405160405180910390a46118b2838383611db7565b505050565b6000600a60009054906101000a900473ffffffffffffffffffffffffffffffffffffffff16905081600a60006101000a81548173ffffffffffffffffffffffffffffffffffffffff021916908373ffffffffffffffffffffffffffffffffffffffff1602179055508173ffffffffffffffffffffffffffffffffffffffff168173ffffffffffffffffffffffffffffffffffffffff167f8be0079c531659141344cd1fd0a4f28419497f9722a3daafe3b4186f6b6457e060405160405180910390a35050565b8173ffffffffffffffffffffffffffffffffffffffff168373ffffffffffffffffffffffffffffffffffffffff16036119eb576040517f08c379a00000000000000000000000000000000000000000000000000000000081526004016119e290613930565b60405180910390fd5b80600560008573ffffffffffffffffffffffffffffffffffffffff1673ffffffffffffffffffffffffffffffffffffffff16815260200190815260200160002060008473ffffffffffffffffffffffffffffffffffffffff1673ffffffffffffffffffffffffffffffffffffffff16815260200190815260200160002060006101000a81548160ff0219169083151502179055508173ffffffffffffffffffffffffffffffffffffffff168373ffffffffffffffffffffffffffffffffffffffff167f17307eab39ab6107e8899845ad3d59bd9653f200f220920489ca2b5937696c3183604051611adc919061241a565b60405180910390a3505050565b611af4848484611651565b611b0084848484611e26565b611b3f576040517f08c379a0000000000000000000000000000000000000000000000000000000008152600401611b36906139c2565b60405180910390fd5b50505050565b606060008203611b8c576040518060400160405280600181526020017f30000000000000000000000000000000000000000000000000000000000000008152509050611ca0565b600082905060005b60008214611bbe578080611ba7906139e2565b915050600a82611bb79190613a59565b9150611b94565b60008167ffffffffffffffff811115611bda57611bd961263b565b5b6040519080825280601f01601f191660200182016040528015611c0c5781602001600182028036833780820191505090505b5090505b60008514611c9957600182611c2591906138b0565b9150600a85611c349190613a8a565b6030611c409190612ae3565b60f81b818381518110611c5657611c55612fcc565b5b60200101907effffffffffffffffffffffffffffffffffffffffffffffffffffffffffffff1916908160001a905350600a85611c929190613a59565b9450611c10565b8093505050505b919050565b611cb0838383611fad565b600073ffffffffffffffffffffffffffffffffffffffff168373ffffffffffffffffffffffffffffffffffffffff1603611cf257611ced81611fb2565b611d31565b8173ffffffffffffffffffffffffffffffffffffffff168373ffffffffffffffffffffffffffffffffffffffff1614611d3057611d2f8382611ffb565b5b5b600073ffffffffffffffffffffffffffffffffffffffff168273ffffffffffffffffffffffffffffffffffffffff1603611d7357611d6e81612168565b611db2565b8273ffffffffffffffffffffffffffffffffffffffff168273ffffffffffffffffffffffffffffffffffffffff1614611db157611db08282612239565b5b5b505050565b505050565b60007f01ffc9a7000000000000000000000000000000000000000000000000000000007bffffffffffffffffffffffffffffffffffffffffffffffffffffffff1916827bffffffffffffffffffffffffffffffffffffffffffffffffffffffff1916149050919050565b6000611e478473ffffffffffffffffffffffffffffffffffffffff166122b8565b15611fa0578373ffffffffffffffffffffffffffffffffffffffff1663150b7a02611e706114b2565b8786866040518563ffffffff1660e01b8152600401611e929493929190613b10565b6020604051808303816000875af1925050508015611ece57506040513d601f19601f82011682018060405250810190611ecb9190613b71565b60015b611f50573d8060008114611efe576040519150601f19603f3d011682016040523d82523d6000602084013e611f03565b606091505b506000815103611f48576040517f08c379a0000000000000000000000000000000000000000000000000000000008152600401611f3f906139c2565b60405180910390fd5b805181602001fd5b63150b7a0260e01b7bffffffffffffffffffffffffffffffffffffffffffffffffffffffff1916817bffffffffffffffffffffffffffffffffffffffffffffffffffffffff191614915050611fa5565b600190505b949350505050565b505050565b6008805490506009600083815260200190815260200160002081905550600881908060018154018082558091505060019003906000526020600020016000909190919091505550565b6000600161200884610cbf565b61201291906138b0565b90506000600760008481526020019081526020016000205490508181146120f7576000600660008673ffffffffffffffffffffffffffffffffffffffff1673ffffffffffffffffffffffffffffffffffffffff168152602001908152602001600020600084815260200190815260200160002054905080600660008773ffffffffffffffffffffffffffffffffffffffff1673ffffffffffffffffffffffffffffffffffffffff168152602001908152602001600020600084815260200190815260200160002081905550816007600083815260200190815260200160002081905550505b6007600084815260200190815260200160002060009055600660008573ffffffffffffffffffffffffffffffffffffffff1673ffffffffffffffffffffffffffffffffffffffff16815260200190815260200160002060008381526020019081526020016000206000905550505050565b6000600160088054905061217c91906138b0565b90506000600960008481526020019081526020016000205490506000600883815481106121ac576121ab612fcc565b5b9060005260206000200154905080600883815481106121ce576121cd612fcc565b5b90600052602060002001819055508160096000838152602001908152602001600020819055506009600085815260200190815260200160002060009055600880548061221d5761221c613b9e565b5b6001900381819060005260206000200160009055905550505050565b600061224483610cbf565b905081600660008573ffffffffffffffffffffffffffffffffffffffff1673ffffffffffffffffffffffffffffffffffffffff168152602001908152602001600020600083815260200190815260200160002081905550806007600084815260200190815260200160002081905550505050565b6000808273ffffffffffffffffffffffffffffffffffffffff163b119050919050565b6000604051905090565b600080fd5b600080fd5b600073ffffffffffffffffffffffffffffffffffffffff82169050919050565b600061231a826122ef565b9050919050565b61232a8161230f565b811461233557600080fd5b50565b60008135905061234781612321565b92915050565b600060208284031215612363576123626122e5565b5b600061237184828501612338565b91505092915050565b60007fffffffff0000000000000000000000000000000000000000000000000000000082169050919050565b6123af8161237a565b81146123ba57600080fd5b50565b6000813590506123cc816123a6565b92915050565b6000602082840312156123e8576123e76122e5565b5b60006123f6848285016123bd565b91505092915050565b60008115159050919050565b612414816123ff565b82525050565b600060208201905061242f600083018461240b565b92915050565b600081519050919050565b600082825260208201905092915050565b60005b8381101561246f578082015181840152602081019050612454565b60008484015250505050565b6000601f19601f8301169050919050565b600061249782612435565b6124a18185612440565b93506124b1818560208601612451565b6124ba8161247b565b840191505092915050565b600060208201905081810360008301526124df818461248c565b905092915050565b6000819050919050565b6124fa816124e7565b811461250557600080fd5b50565b600081359050612517816124f1565b92915050565b600060208284031215612533576125326122e5565b5b600061254184828501612508565b91505092915050565b6125538161230f565b82525050565b600060208201905061256e600083018461254a565b92915050565b6000806040838503121561258b5761258a6122e5565b5b600061259985828601612338565b92505060206125aa85828601612508565b9150509250929050565b6125bd816124e7565b82525050565b60006020820190506125d860008301846125b4565b92915050565b6000806000606084860312156125f7576125f66122e5565b5b600061260586828701612338565b935050602061261686828701612338565b925050604061262786828701612508565b9150509250925092565b600080fd5b600080fd5b7f4e487b7100000000000000000000000000000000000000000000000000000000600052604160045260246000fd5b6126738261247b565b810181811067ffffffffffffffff821117156126925761269161263b565b5b80604052505050565b60006126a56122db565b90506126b1828261266a565b919050565b600067ffffffffffffffff8211156126d1576126d061263b565b5b6126da8261247b565b9050602081019050919050565b82818337600083830152505050565b6000612709612704846126b6565b61269b565b90508281526020810184848401111561272557612724612636565b5b6127308482856126e7565b509392505050565b600082601f83011261274d5761274c612631565b5b813561275d8482602086016126f6565b91505092915050565b60006020828403121561277c5761277b6122e5565b5b600082013567ffffffffffffffff81111561279a576127996122ea565b5b6127a684828501612738565b91505092915050565b6127b8816123ff565b81146127c357600080fd5b50565b6000813590506127d5816127af565b92915050565b600080604083850312156127f2576127f16122e5565b5b600061280085828601612338565b9250506020612811858286016127c6565b9150509250929050565b600067ffffffffffffffff8211156128365761283561263b565b5b61283f8261247b565b9050602081019050919050565b600061285f61285a8461281b565b61269b565b90508281526020810184848401111561287b5761287a612636565b5b6128868482856126e7565b509392505050565b600082601f8301126128a3576128a2612631565b5b81356128b384826020860161284c565b91505092915050565b600080600080608085870312156128d6576128d56122e5565b5b60006128e487828801612338565b94505060206128f587828801612338565b935050604061290687828801612508565b925050606085013567ffffffffffffffff811115612927576129266122ea565b5b6129338782880161288e565b91505092959194509250565b600060ff82169050919050565b6129558161293f565b82525050565b6000602082019050612970600083018461294c565b92915050565b6000806040838503121561298d5761298c6122e5565b5b600061299b85828601612338565b92505060206129ac85828601612338565b9150509250929050565b7f456767546f6b656e203a2042652073686f7274206f66206d6f6e657900000000600082015250565b60006129ec601c83612440565b91506129f7826129b6565b602082019050919050565b60006020820190508181036000830152612a1b816129df565b9050919050565b7f456767546f6b656e203a20497420657863656564656420746865206d6178696d60008201527f756d20616d6f756e742069737375656400000000000000000000000000000000602082015250565b6000612a7e603083612440565b9150612a8982612a22565b604082019050919050565b60006020820190508181036000830152612aad81612a71565b9050919050565b7f4e487b7100000000000000000000000000000000000000000000000000000000600052601160045260246000fd5b6000612aee826124e7565b9150612af9836124e7565b9250828201905080821115612b1157612b10612ab4565b5b92915050565b7f4d696e7465640000000000000000000000000000000000000000000000000000600082015250565b6000612b4d600683612440565b9150612b5882612b17565b602082019050919050565b6000819050919050565b6000819050919050565b6000612b92612b8d612b8884612b63565b612b6d565b6124e7565b9050919050565b612ba281612b77565b82525050565b600060a082019050612bbd60008301876125b4565b8181036020830152612bce81612b40565b9050612bdd6040830186612b99565b612bea606083018561254a565b612bf7608083018461254a565b95945050505050565b7f4e487b7100000000000000000000000000000000000000000000000000000000600052602260045260246000fd5b60006002820490506001821680612c4757607f821691505b602082108103612c5a57612c59612c00565b5b50919050565b7f4552433732313a20617070726f76656420717565727920666f72206e6f6e657860008201527f697374656e7420746f6b656e0000000000000000000000000000000000000000602082015250565b6000612cbc602c83612440565b9150612cc782612c60565b604082019050919050565b60006020820190508181036000830152612ceb81612caf565b9050919050565b7f4552433732313a20617070726f76616c20746f2063757272656e74206f776e6560008201527f7200000000000000000000000000000000000000000000000000000000000000602082015250565b6000612d4e602183612440565b9150612d5982612cf2565b604082019050919050565b60006020820190508181036000830152612d7d81612d41565b9050919050565b7f4552433732313a20617070726f76652063616c6c6572206973206e6f74206f7760008201527f6e6572206e6f7220617070726f76656420666f7220616c6c0000000000000000602082015250565b6000612de0603883612440565b9150612deb82612d84565b604082019050919050565b60006020820190508181036000830152612e0f81612dd3565b9050919050565b7f4552433732313a207472616e736665722063616c6c6572206973206e6f74206f60008201527f776e6572206e6f7220617070726f766564000000000000000000000000000000602082015250565b6000612e72603183612440565b9150612e7d82612e16565b604082019050919050565b60006020820190508181036000830152612ea181612e65565b9050919050565b7f455243373231456e756d657261626c653a206f776e657220696e646578206f7560008201527f74206f6620626f756e6473000000000000000000000000000000000000000000602082015250565b6000612f04602b83612440565b9150612f0f82612ea8565b604082019050919050565b60006020820190508181036000830152612f3381612ef7565b9050919050565b7f455243373231456e756d657261626c653a20676c6f62616c20696e646578206f60008201527f7574206f6620626f756e64730000000000000000000000000000000000000000602082015250565b6000612f96602c83612440565b9150612fa182612f3a565b604082019050919050565b60006020820190508181036000830152612fc581612f89565b9050919050565b7f4e487b7100000000000000000000000000000000000000000000000000000000600052603260045260246000fd5b7f4552433732313a206f776e657220717565727920666f72206e6f6e657869737460008201527f656e7420746f6b656e0000000000000000000000000000000000000000000000602082015250565b6000613057602983612440565b915061306282612ffb565b604082019050919050565b600060208201905081810360008301526130868161304a565b9050919050565b7f4552433732313a2062616c616e636520717565727920666f7220746865207a6560008201527f726f206164647265737300000000000000000000000000000000000000000000602082015250565b60006130e9602a83612440565b91506130f48261308d565b604082019050919050565b60006020820190508181036000830152613118816130dc565b9050919050565b7f4f776e61626c653a2063616c6c6572206973206e6f7420746865206f776e6572600082015250565b6000613155602083612440565b91506131608261311f565b602082019050919050565b6000602082019050818103600083015261318481613148565b9050919050565b60008190508160005260206000209050919050565b60006020601f8301049050919050565b600082821b905092915050565b6000600883026131ed7fffffffffffffffffffffffffffffffffffffffffffffffffffffffffffffffff826131b0565b6131f786836131b0565b95508019841693508086168417925050509392505050565b600061322a613225613220846124e7565b612b6d565b6124e7565b9050919050565b6000819050919050565b6132448361320f565b61325861325082613231565b8484546131bd565b825550505050565b600090565b61326d613260565b61327881848461323b565b505050565b5b8181101561329c57613291600082613265565b60018101905061327e565b5050565b601f8211156132e1576132b28161318b565b6132bb846131a0565b810160208510156132ca578190505b6132de6132d6856131a0565b83018261327d565b50505b505050565b600082821c905092915050565b6000613304600019846008026132e6565b1980831691505092915050565b600061331d83836132f3565b9150826002028217905092915050565b61333682612435565b67ffffffffffffffff81111561334f5761334e61263b565b5b6133598254612c2f565b6133648282856132a0565b600060209050601f8311600181146133975760008415613385578287015190505b61338f8582613311565b8655506133f7565b601f1984166133a58661318b565b60005b828110156133cd578489015182556001820191506020850194506020810190506133a8565b868310156133ea57848901516133e6601f8916826132f3565b8355505b6001600288020188555050505b505050505050565b600081905092915050565b6000815461341781612c2f565b61342181866133ff565b9450600182166000811461343c576001811461345157613484565b60ff1983168652811515820286019350613484565b61345a8561318b565b60005b8381101561347c5781548189015260018201915060208101905061345d565b838801955050505b50505092915050565b7f2f00000000000000000000000000000000000000000000000000000000000000600082015250565b60006134c36001836133ff565b91506134ce8261348d565b600182019050919050565b60006134e482612435565b6134ee81856133ff565b93506134fe818560208601612451565b80840191505092915050565b7f2e6a736f6e000000000000000000000000000000000000000000000000000000600082015250565b60006135406005836133ff565b915061354b8261350a565b600582019050919050565b6000613562828561340a565b915061356d826134b6565b915061357982846134d9565b915061358482613533565b91508190509392505050565b7f4f776e61626c653a206e6577206f776e657220697320746865207a65726f206160008201527f6464726573730000000000000000000000000000000000000000000000000000602082015250565b60006135ec602683612440565b91506135f782613590565b604082019050919050565b6000602082019050818103600083015261361b816135df565b9050919050565b7f4552433732313a206d696e7420746f20746865207a65726f2061646472657373600082015250565b6000613658602083612440565b915061366382613622565b602082019050919050565b600060208201905081810360008301526136878161364b565b9050919050565b7f4552433732313a20746f6b656e20616c7265616479206d696e74656400000000600082015250565b60006136c4601c83612440565b91506136cf8261368e565b602082019050919050565b600060208201905081810360008301526136f3816136b7565b9050919050565b7f4552433732313a206f70657261746f7220717565727920666f72206e6f6e657860008201527f697374656e7420746f6b656e0000000000000000000000000000000000000000602082015250565b6000613756602c83612440565b9150613761826136fa565b604082019050919050565b6000602082019050818103600083015261378581613749565b9050919050565b7f4552433732313a207472616e736665722066726f6d20696e636f72726563742060008201527f6f776e6572000000000000000000000000000000000000000000000000000000602082015250565b60006137e8602583612440565b91506137f38261378c565b604082019050919050565b60006020820190508181036000830152613817816137db565b9050919050565b7f4552433732313a207472616e7366657220746f20746865207a65726f2061646460008201527f7265737300000000000000000000000000000000000000000000000000000000602082015250565b600061387a602483612440565b91506138858261381e565b604082019050919050565b600060208201905081810360008301526138a98161386d565b9050919050565b60006138bb826124e7565b91506138c6836124e7565b92508282039050818111156138de576138dd612ab4565b5b92915050565b7f4552433732313a20617070726f766520746f2063616c6c657200000000000000600082015250565b600061391a601983612440565b9150613925826138e4565b602082019050919050565b600060208201905081810360008301526139498161390d565b9050919050565b7f4552433732313a207472616e7366657220746f206e6f6e20455243373231526560008201527f63656976657220696d706c656d656e7465720000000000000000000000000000602082015250565b60006139ac603283612440565b91506139b782613950565b604082019050919050565b600060208201905081810360008301526139db8161399f565b9050919050565b60006139ed826124e7565b91507fffffffffffffffffffffffffffffffffffffffffffffffffffffffffffffffff8203613a1f57613a1e612ab4565b5b600182019050919050565b7f4e487b7100000000000000000000000000000000000000000000000000000000600052601260045260246000fd5b6000613a64826124e7565b9150613a6f836124e7565b925082613a7f57613a7e613a2a565b5b828204905092915050565b6000613a95826124e7565b9150613aa0836124e7565b925082613ab057613aaf613a2a565b5b828206905092915050565b600081519050919050565b600082825260208201905092915050565b6000613ae282613abb565b613aec8185613ac6565b9350613afc818560208601612451565b613b058161247b565b840191505092915050565b6000608082019050613b25600083018761254a565b613b32602083018661254a565b613b3f60408301856125b4565b8181036060830152613b518184613ad7565b905095945050505050565b600081519050613b6b816123a6565b92915050565b600060208284031215613b8757613b866122e5565b5b6000613b9584828501613b5c565b91505092915050565b7f4e487b7100000000000000000000000000000000000000000000000000000000600052603160045260246000fdfea26469706673582212201547811316eab8ab3e05012ee69c3d446fcd620543eb14402d72b01380af2b9764736f6c63430008110033",
  "immutableReferences": {},
  "source": "// SPDX-License-Identifier:MIT\r\npragma solidity ^0.8.17;\r\n\r\nimport \"../node_modules/openzeppelin-solidity/contracts/token/ERC721/extensions/ERC721Enumerable.sol\";\r\n\r\nimport \"../node_modules/openzeppelin-solidity/contracts/access/Ownable.sol\";\r\n\r\nimport \"../node_modules/openzeppelin-solidity/contracts/utils/Strings.sol\";\r\n\r\n\r\ncontract EggToken is ERC721Enumerable, Ownable {\r\n\r\n    //  \r\n    uint8 constant public MAX_TOKEN_COUNT = 100;\r\n\r\n    //       \r\n    uint public mintPrice = 10 wei;\r\n\r\n    // json metadata URI\r\n    string public metadataURI;\r\n\r\n    //   \r\n    uint256[] tokenList;\r\n\r\n    // minting  \r\n    event Minting(uint256 tokenId, string state, uint price, address from, address to);\r\n\r\n    //  \r\n    constructor(string memory _name, string memory _symbol, string memory _metadataURI) ERC721 (_name, _symbol) {\r\n        metadataURI = _metadataURI;\r\n    }\r\n\r\n    function mintToken(address _saleContractCA) public payable {\r\n\r\n        // mintPrice     \r\n        require(msg.value >= mintPrice,\"EggToken : Be short of money\");\r\n\r\n        //      .\r\n        require(MAX_TOKEN_COUNT > totalSupply(), \"EggToken : It exceeded the maximum amount issued\");\r\n\r\n        // CA   .\r\n        payable(Ownable.owner()).transfer(msg.value);\r\n\r\n        uint256 tokenId = totalSupply() + 1;\r\n        //   () NTF \r\n        _mint(msg.sender, tokenId);\r\n\r\n        setApprovalForAll(_saleContractCA, true);\r\n\r\n        tokenList.push(tokenId);\r\n\r\n        emit Minting(tokenId, \"Minted\", 0, address(0), msg.sender);\r\n    }\r\n\r\n    function tokenURI(uint _tokenId) public override view returns (string memory) {\r\n\r\n        string memory tokenIdStr = Strings.toString(_tokenId);\r\n        return string(abi.encodePacked(metadataURI, \"/\", tokenIdStr,\".json\"));\r\n    }\r\n\r\n    function setMetadataURI(string memory _uri) public onlyOwner {\r\n        metadataURI = _uri;\r\n    } \r\n}",
  "sourcePath": "C:\\Users\\KGA_029\\Desktop\\projects\\EGG-NFT-STORE\\front\\contracts\\EggToken.sol",
  "compiler": {
    "name": "solc",
    "version": "0.8.17+commit.8df45f5f.Emscripten.clang"
  },
  "schemaVersion": "3.4.11",
  "updatedAt": "2022-12-27T06:12:21.243Z",
  "networkType": "ethereum",
  "devdoc": {
    "kind": "dev",
    "methods": {
      "approve(address,uint256)": {
        "details": "See {IERC721-approve}."
      },
      "balanceOf(address)": {
        "details": "See {IERC721-balanceOf}."
      },
      "getApproved(uint256)": {
        "details": "See {IERC721-getApproved}."
      },
      "isApprovedForAll(address,address)": {
        "details": "See {IERC721-isApprovedForAll}."
      },
      "name()": {
        "details": "See {IERC721Metadata-name}."
      },
      "owner()": {
        "details": "Returns the address of the current owner."
      },
      "ownerOf(uint256)": {
        "details": "See {IERC721-ownerOf}."
      },
      "renounceOwnership()": {
        "details": "Leaves the contract without owner. It will not be possible to call `onlyOwner` functions anymore. Can only be called by the current owner. NOTE: Renouncing ownership will leave the contract without an owner, thereby removing any functionality that is only available to the owner."
      },
      "safeTransferFrom(address,address,uint256)": {
        "details": "See {IERC721-safeTransferFrom}."
      },
      "safeTransferFrom(address,address,uint256,bytes)": {
        "details": "See {IERC721-safeTransferFrom}."
      },
      "setApprovalForAll(address,bool)": {
        "details": "See {IERC721-setApprovalForAll}."
      },
      "supportsInterface(bytes4)": {
        "details": "See {IERC165-supportsInterface}."
      },
      "symbol()": {
        "details": "See {IERC721Metadata-symbol}."
      },
      "tokenByIndex(uint256)": {
        "details": "See {IERC721Enumerable-tokenByIndex}."
      },
      "tokenOfOwnerByIndex(address,uint256)": {
        "details": "See {IERC721Enumerable-tokenOfOwnerByIndex}."
      },
      "totalSupply()": {
        "details": "See {IERC721Enumerable-totalSupply}."
      },
      "transferFrom(address,address,uint256)": {
        "details": "See {IERC721-transferFrom}."
      },
      "transferOwnership(address)": {
        "details": "Transfers ownership of the contract to a new account (`newOwner`). Can only be called by the current owner."
      }
    },
    "version": 1
  },
  "userdoc": {
    "kind": "user",
    "methods": {},
    "version": 1
  }
}