{
  "contractName": "SaleContract",
  "abi": [
    {
      "inputs": [
        {
          "internalType": "address",
          "name": "_eggTokenCA",
          "type": "address"
        }
      ],
      "stateMutability": "nonpayable",
      "type": "constructor"
    },
    {
      "anonymous": false,
      "inputs": [
        {
          "indexed": false,
          "internalType": "uint8",
          "name": "tokenId",
          "type": "uint8"
        },
        {
          "indexed": false,
          "internalType": "string",
          "name": "state",
          "type": "string"
        },
        {
          "indexed": false,
          "internalType": "uint256",
          "name": "price",
          "type": "uint256"
        },
        {
          "indexed": false,
          "internalType": "address",
          "name": "from",
          "type": "address"
        },
        {
          "indexed": false,
          "internalType": "address",
          "name": "to",
          "type": "address"
        }
      ],
      "name": "List",
      "type": "event"
    },
    {
      "anonymous": false,
      "inputs": [
        {
          "indexed": false,
          "internalType": "uint8",
          "name": "tokenId",
          "type": "uint8"
        },
        {
          "indexed": false,
          "internalType": "string",
          "name": "state",
          "type": "string"
        },
        {
          "indexed": false,
          "internalType": "uint256",
          "name": "price",
          "type": "uint256"
        },
        {
          "indexed": false,
          "internalType": "address",
          "name": "from",
          "type": "address"
        },
        {
          "indexed": false,
          "internalType": "address",
          "name": "to",
          "type": "address"
        }
      ],
      "name": "Sale",
      "type": "event"
    },
    {
      "anonymous": false,
      "inputs": [
        {
          "indexed": false,
          "internalType": "uint256",
          "name": "tokenId",
          "type": "uint256"
        },
        {
          "indexed": false,
          "internalType": "string",
          "name": "state",
          "type": "string"
        },
        {
          "indexed": false,
          "internalType": "uint256",
          "name": "price",
          "type": "uint256"
        },
        {
          "indexed": false,
          "internalType": "address",
          "name": "from",
          "type": "address"
        },
        {
          "indexed": false,
          "internalType": "address",
          "name": "to",
          "type": "address"
        }
      ],
      "name": "Transfer",
      "type": "event"
    },
    {
      "inputs": [
        {
          "internalType": "uint256",
          "name": "",
          "type": "uint256"
        }
      ],
      "name": "SaleContractList",
      "outputs": [
        {
          "internalType": "uint8",
          "name": "",
          "type": "uint8"
        }
      ],
      "stateMutability": "view",
      "type": "function",
      "constant": true
    },
    {
      "inputs": [],
      "name": "Token",
      "outputs": [
        {
          "internalType": "contract EggToken",
          "name": "",
          "type": "address"
        }
      ],
      "stateMutability": "view",
      "type": "function",
      "constant": true
    },
    {
      "inputs": [
        {
          "internalType": "uint256",
          "name": "",
          "type": "uint256"
        }
      ],
      "name": "tokenPrices",
      "outputs": [
        {
          "internalType": "uint256",
          "name": "",
          "type": "uint256"
        }
      ],
      "stateMutability": "view",
      "type": "function",
      "constant": true
    },
    {
      "inputs": [
        {
          "internalType": "uint8",
          "name": "_tokenId",
          "type": "uint8"
        },
        {
          "internalType": "uint256",
          "name": "_price",
          "type": "uint256"
        }
      ],
      "name": "ListFotSaleContract",
      "outputs": [],
      "stateMutability": "nonpayable",
      "type": "function"
    },
    {
      "inputs": [
        {
          "internalType": "uint8",
          "name": "_tokenId",
          "type": "uint8"
        }
      ],
      "name": "PurchaseToken",
      "outputs": [],
      "stateMutability": "payable",
      "type": "function",
      "payable": true
    },
    {
      "inputs": [],
      "name": "getSaleContractList",
      "outputs": [
        {
          "components": [
            {
              "internalType": "uint256",
              "name": "tokenId",
              "type": "uint256"
            },
            {
              "internalType": "uint256",
              "name": "price",
              "type": "uint256"
            }
          ],
          "internalType": "struct SaleContract.TokenInfo[]",
          "name": "",
          "type": "tuple[]"
        }
      ],
      "stateMutability": "view",
      "type": "function",
      "constant": true
    },
    {
      "inputs": [
        {
          "internalType": "address",
          "name": "_tokenOwner",
          "type": "address"
        }
      ],
      "name": "getOwnerToken",
      "outputs": [
        {
          "components": [
            {
              "internalType": "uint256",
              "name": "tokenId",
              "type": "uint256"
            },
            {
              "internalType": "uint256",
              "name": "price",
              "type": "uint256"
            }
          ],
          "internalType": "struct SaleContract.TokenInfo[]",
          "name": "",
          "type": "tuple[]"
        }
      ],
      "stateMutability": "view",
      "type": "function",
      "constant": true
    },
    {
      "inputs": [
        {
          "internalType": "address",
          "name": "_tokenOwner",
          "type": "address"
        }
      ],
      "name": "getLatestToken",
      "outputs": [
        {
          "components": [
            {
              "internalType": "uint256",
              "name": "tokenId",
              "type": "uint256"
            },
            {
              "internalType": "uint256",
              "name": "price",
              "type": "uint256"
            }
          ],
          "internalType": "struct SaleContract.TokenInfo",
          "name": "",
          "type": "tuple"
        }
      ],
      "stateMutability": "view",
      "type": "function",
      "constant": true
    }
  ],
  "bytecode": "0x60806040523480156200001157600080fd5b5060405162001aaa38038062001aaa8339818101604052810190620000379190620000e8565b806000806101000a81548173ffffffffffffffffffffffffffffffffffffffff021916908373ffffffffffffffffffffffffffffffffffffffff160217905550506200011a565b600080fd5b600073ffffffffffffffffffffffffffffffffffffffff82169050919050565b6000620000b08262000083565b9050919050565b620000c281620000a3565b8114620000ce57600080fd5b50565b600081519050620000e281620000b7565b92915050565b6000602082840312156200010157620001006200007e565b5b60006200011184828501620000d1565b91505092915050565b611980806200012a6000396000f3fe60806040526004361061007b5760003560e01c8063ba7096731161004e578063ba7096731461014e578063c24126761461018b578063e5afe3e6146101b6578063ea8028ae146101f35761007b565b80635e263c5c146100805780637e1dc255146100ab578063966c0574146100d4578063a4ad760b14610111575b600080fd5b34801561008c57600080fd5b5061009561020f565b6040516100a29190610ed7565b60405180910390f35b3480156100b757600080fd5b506100d260048036038101906100cd9190610f63565b61033f565b005b3480156100e057600080fd5b506100fb60048036038101906100f69190611001565b610532565b6040516101089190610ed7565b60405180910390f35b34801561011d57600080fd5b5061013860048036038101906101339190611001565b610755565b604051610145919061105d565b60405180910390f35b34801561015a57600080fd5b5061017560048036038101906101709190611078565b6108e0565b60405161018291906110b4565b60405180910390f35b34801561019757600080fd5b506101a0610914565b6040516101ad919061112e565b60405180910390f35b3480156101c257600080fd5b506101dd60048036038101906101d89190611078565b610938565b6040516101ea9190611158565b60405180910390f35b61020d60048036038101906102089190611173565b610950565b005b606060006002805490501161022357600080fd5b600060028054905067ffffffffffffffff811115610244576102436111a0565b5b60405190808252806020026020018201604052801561027d57816020015b61026a610dc6565b8152602001906001900390816102625790505b50905060005b6002805490508160ff16101561033757600060028260ff16815481106102ac576102ab6111cf565b5b90600052602060002090602091828204019190069054906101000a900460ff1690506000600160008360ff16815260200190815260200160002054905060405180604001604052808360ff16815260200182815250848460ff1681518110610317576103166111cf565b5b60200260200101819052505050808061032f9061122d565b915050610283565b508091505090565b60008060009054906101000a900473ffffffffffffffffffffffffffffffffffffffff1673ffffffffffffffffffffffffffffffffffffffff16636352211e846040518263ffffffff1660e01b815260040161039b9190611287565b602060405180830381865afa1580156103b8573d6000803e3d6000fd5b505050506040513d601f19601f820116820180604052508101906103dc91906112b7565b905060008211610421576040517f08c379a000000000000000000000000000000000000000000000000000000000815260040161041890611367565b60405180910390fd5b8073ffffffffffffffffffffffffffffffffffffffff163373ffffffffffffffffffffffffffffffffffffffff161461048f576040517f08c379a0000000000000000000000000000000000000000000000000000000008152600401610486906113d3565b60405180910390fd5b81600160008560ff1681526020019081526020016000208190555060028390806001815401808255809150506001900390600052602060002090602091828204019190069091909190916101000a81548160ff021916908360ff1602179055507fcb45953b9d03ab2950a3ceeac1aa271f56efa485fd69fa4ca85e50be236123718383336000604051610525949392919061144e565b60405180910390a1505050565b606060008060009054906101000a900473ffffffffffffffffffffffffffffffffffffffff1673ffffffffffffffffffffffffffffffffffffffff166370a08231846040518263ffffffff1660e01b815260040161059091906114a6565b602060405180830381865afa1580156105ad573d6000803e3d6000fd5b505050506040513d601f19601f820116820180604052508101906105d191906114d6565b9050600081116105e057600080fd5b60008167ffffffffffffffff8111156105fc576105fb6111a0565b5b60405190808252806020026020018201604052801561063557816020015b610622610dc6565b81526020019060019003908161061a5790505b50905060005b828160ff16101561074a5760008060009054906101000a900473ffffffffffffffffffffffffffffffffffffffff1673ffffffffffffffffffffffffffffffffffffffff16632f745c5987846040518363ffffffff1660e01b81526004016106a4929190611503565b602060405180830381865afa1580156106c1573d6000803e3d6000fd5b505050506040513d601f19601f820116820180604052508101906106e591906114d6565b9050600060016000838152602001908152602001600020549050604051806040016040528083815260200182815250848460ff168151811061072a576107296111cf565b5b6020026020010181905250505080806107429061122d565b91505061063b565b508092505050919050565b61075d610dc6565b60008060009054906101000a900473ffffffffffffffffffffffffffffffffffffffff1673ffffffffffffffffffffffffffffffffffffffff166370a08231846040518263ffffffff1660e01b81526004016107b991906114a6565b602060405180830381865afa1580156107d6573d6000803e3d6000fd5b505050506040513d601f19601f820116820180604052508101906107fa91906114d6565b905060008060009054906101000a900473ffffffffffffffffffffffffffffffffffffffff1673ffffffffffffffffffffffffffffffffffffffff16632f745c5985600185610849919061152c565b6040518363ffffffff1660e01b8152600401610866929190611560565b602060405180830381865afa158015610883573d6000803e3d6000fd5b505050506040513d601f19601f820116820180604052508101906108a791906114d6565b90506000600160008381526020019081526020016000205490506040518060400160405280838152602001828152509350505050919050565b600281815481106108f057600080fd5b9060005260206000209060209182820401919006915054906101000a900460ff1681565b60008054906101000a900473ffffffffffffffffffffffffffffffffffffffff1681565b60016020528060005260406000206000915090505481565b60008060009054906101000a900473ffffffffffffffffffffffffffffffffffffffff1673ffffffffffffffffffffffffffffffffffffffff16636352211e836040518263ffffffff1660e01b81526004016109ac9190611287565b602060405180830381865afa1580156109c9573d6000803e3d6000fd5b505050506040513d601f19601f820116820180604052508101906109ed91906112b7565b90503373ffffffffffffffffffffffffffffffffffffffff168173ffffffffffffffffffffffffffffffffffffffff1603610a5d576040517f08c379a0000000000000000000000000000000000000000000000000000000008152600401610a54906115d5565b60405180910390fd5b6000600160008460ff1681526020019081526020016000205411610ab6576040517f08c379a0000000000000000000000000000000000000000000000000000000008152600401610aad90611667565b60405180910390fd5b34600160008460ff168152602001908152602001600020541115610b0f576040517f08c379a0000000000000000000000000000000000000000000000000000000008152600401610b06906116f9565b60405180910390fd5b8073ffffffffffffffffffffffffffffffffffffffff166108fc349081150290604051600060405180830381858888f19350505050158015610b55573d6000803e3d6000fd5b5060008054906101000a900473ffffffffffffffffffffffffffffffffffffffff1673ffffffffffffffffffffffffffffffffffffffff166323b872dd8233856040518463ffffffff1660e01b8152600401610bb393929190611719565b600060405180830381600087803b158015610bcd57600080fd5b505af1158015610be1573d6000803e3d6000fd5b505050506000600160008460ff16815260200190815260200160002081905550610c0a82610c8a565b507f24bb5c80c343192cb7ff6c932f0c969d4ce352cae0c999cd01ec995b301a638582343384604051610c40949392919061179c565b60405180910390a17f5d8149e46829a28f28ce1ffc2eeaca852a7b6f68d02440645c1c2ec7bceafb6b8260008333604051610c7e949392919061187b565b60405180910390a15050565b600080600090505b600280549050811015610dbb578260ff1660028281548110610cb757610cb66111cf565b5b90600052602060002090602091828204019190069054906101000a900460ff1660ff1603610da85760026001600280549050610cf3919061152c565b81548110610d0457610d036111cf565b5b90600052602060002090602091828204019190069054906101000a900460ff1660028281548110610d3857610d376111cf565b5b90600052602060002090602091828204019190066101000a81548160ff021916908360ff1602179055506002805480610d7457610d736118d3565b5b60019003818190600052602060002090602091828204019190066101000a81549060ff021916905590556001915050610dc1565b8080610db390611902565b915050610c92565b50600090505b919050565b604051806040016040528060008152602001600081525090565b600081519050919050565b600082825260208201905092915050565b6000819050602082019050919050565b6000819050919050565b610e1f81610e0c565b82525050565b604082016000820151610e3b6000850182610e16565b506020820151610e4e6020850182610e16565b50505050565b6000610e608383610e25565b60408301905092915050565b6000602082019050919050565b6000610e8482610de0565b610e8e8185610deb565b9350610e9983610dfc565b8060005b83811015610eca578151610eb18882610e54565b9750610ebc83610e6c565b925050600181019050610e9d565b5085935050505092915050565b60006020820190508181036000830152610ef18184610e79565b905092915050565b600080fd5b600060ff82169050919050565b610f1481610efe565b8114610f1f57600080fd5b50565b600081359050610f3181610f0b565b92915050565b610f4081610e0c565b8114610f4b57600080fd5b50565b600081359050610f5d81610f37565b92915050565b60008060408385031215610f7a57610f79610ef9565b5b6000610f8885828601610f22565b9250506020610f9985828601610f4e565b9150509250929050565b600073ffffffffffffffffffffffffffffffffffffffff82169050919050565b6000610fce82610fa3565b9050919050565b610fde81610fc3565b8114610fe957600080fd5b50565b600081359050610ffb81610fd5565b92915050565b60006020828403121561101757611016610ef9565b5b600061102584828501610fec565b91505092915050565b6040820160008201516110446000850182610e16565b5060208201516110576020850182610e16565b50505050565b6000604082019050611072600083018461102e565b92915050565b60006020828403121561108e5761108d610ef9565b5b600061109c84828501610f4e565b91505092915050565b6110ae81610efe565b82525050565b60006020820190506110c960008301846110a5565b92915050565b6000819050919050565b60006110f46110ef6110ea84610fa3565b6110cf565b610fa3565b9050919050565b6000611106826110d9565b9050919050565b6000611118826110fb565b9050919050565b6111288161110d565b82525050565b6000602082019050611143600083018461111f565b92915050565b61115281610e0c565b82525050565b600060208201905061116d6000830184611149565b92915050565b60006020828403121561118957611188610ef9565b5b600061119784828501610f22565b91505092915050565b7f4e487b7100000000000000000000000000000000000000000000000000000000600052604160045260246000fd5b7f4e487b7100000000000000000000000000000000000000000000000000000000600052603260045260246000fd5b7f4e487b7100000000000000000000000000000000000000000000000000000000600052601160045260246000fd5b600061123882610efe565b915060ff820361124b5761124a6111fe565b5b600182019050919050565b600061127161126c61126784610efe565b6110cf565b610e0c565b9050919050565b61128181611256565b82525050565b600060208201905061129c6000830184611278565b92915050565b6000815190506112b181610fd5565b92915050565b6000602082840312156112cd576112cc610ef9565b5b60006112db848285016112a2565b91505092915050565b600082825260208201905092915050565b7f53616c65436f6e7472616374203a205468652073656c6c696e6720707269636560008201527f206d757374206265206174206c65617374207a65726f00000000000000000000602082015250565b60006113516036836112e4565b915061135c826112f5565b604082019050919050565b6000602082019050818103600083015261138081611344565b9050919050565b7f53616c65436f6e7472616374203a204265206e6f7420746865206f776e657200600082015250565b60006113bd601f836112e4565b91506113c882611387565b602082019050919050565b600060208201905081810360008301526113ec816113b0565b9050919050565b7f4c69737400000000000000000000000000000000000000000000000000000000600082015250565b60006114296004836112e4565b9150611434826113f3565b602082019050919050565b61144881610fc3565b82525050565b600060a08201905061146360008301876110a5565b81810360208301526114748161141c565b90506114836040830186611149565b611490606083018561143f565b61149d608083018461143f565b95945050505050565b60006020820190506114bb600083018461143f565b92915050565b6000815190506114d081610f37565b92915050565b6000602082840312156114ec576114eb610ef9565b5b60006114fa848285016114c1565b91505092915050565b6000604082019050611518600083018561143f565b6115256020830184611278565b9392505050565b600061153782610e0c565b915061154283610e0c565b925082820390508181111561155a576115596111fe565b5b92915050565b6000604082019050611575600083018561143f565b6115826020830184611149565b9392505050565b7f53616c65436f6e7472616374203a204f776e65722063616e6e6f742062757900600082015250565b60006115bf601f836112e4565b91506115ca82611589565b602082019050919050565b600060208201905081810360008301526115ee816115b2565b9050919050565b7f53616c65436f6e7472616374203a20546f6b656e7320617265206e6f7420666f60008201527f722073616c650000000000000000000000000000000000000000000000000000602082015250565b60006116516026836112e4565b915061165c826115f5565b604082019050919050565b6000602082019050818103600083015261168081611644565b9050919050565b7f53616c65436f6e7472616374203a204f66666572206d6f7265207468616e207460008201527f68652073656c6c696e6720707269636500000000000000000000000000000000602082015250565b60006116e36030836112e4565b91506116ee82611687565b604082019050919050565b60006020820190508181036000830152611712816116d6565b9050919050565b600060608201905061172e600083018661143f565b61173b602083018561143f565b6117486040830184611278565b949350505050565b7f53616c6500000000000000000000000000000000000000000000000000000000600082015250565b60006117866004836112e4565b915061179182611750565b602082019050919050565b600060a0820190506117b160008301876110a5565b81810360208301526117c281611779565b90506117d16040830186611149565b6117de606083018561143f565b6117eb608083018461143f565b95945050505050565b7f5472616e73666572000000000000000000000000000000000000000000000000600082015250565b600061182a6008836112e4565b9150611835826117f4565b602082019050919050565b6000819050919050565b600061186561186061185b84611840565b6110cf565b610e0c565b9050919050565b6118758161184a565b82525050565b600060a0820190506118906000830187611278565b81810360208301526118a18161181d565b90506118b0604083018661186c565b6118bd606083018561143f565b6118ca608083018461143f565b95945050505050565b7f4e487b7100000000000000000000000000000000000000000000000000000000600052603160045260246000fd5b600061190d82610e0c565b91507fffffffffffffffffffffffffffffffffffffffffffffffffffffffffffffffff820361193f5761193e6111fe565b5b60018201905091905056fea2646970667358221220b88625be7f03452723e1eb3d33a85b907df4255d6f6d96d2c9e5e23b9c98ffc164736f6c63430008110033",
  "immutableReferences": {},
  "source": "// SPDX-License-Identifier:MIT\r\npragma solidity ^0.8.17;\r\n\r\nimport \"./EggToken.sol\";\r\n\r\ncontract SaleContract {\r\n    // EggToken  \r\n    EggToken public Token;\r\n\r\n    // token  => price( );\r\n    mapping(uint => uint) public tokenPrices;\r\n\r\n    //   \r\n    struct TokenInfo {\r\n        uint tokenId;\r\n        uint price;\r\n    }\r\n\r\n    uint8[] public SaleContractList;\r\n\r\n    //    \r\n    event List(uint8 tokenId, string state, uint price, address from, address to);\r\n\r\n    //   \r\n    event Sale(uint8 tokenId, string state, uint price, address from, address to);\r\n\r\n    //   \r\n    event Transfer(uint tokenId, string state, uint price, address from, address to);\r\n\r\n    //   EggToken CA  Token  .\r\n    constructor(address _eggTokenCA) {\r\n        Token = EggToken(_eggTokenCA);\r\n    }\r\n\r\n    //   \r\n    function ListFotSaleContract(uint8 _tokenId, uint _price) public {\r\n        address tokenOwner = Token.ownerOf(_tokenId);\r\n\r\n        //  0   \r\n        require(_price > 0, \"SaleContract : The selling price must be at least zero\");\r\n\r\n        //   ()    .\r\n        require(msg.sender == tokenOwner, \"SaleContract : Be not the owner\" );\r\n\r\n        // require(Token.isApprovedForAll(msg.sender, address(this)), \"approve caller is not owner nor approved for all\");\r\n\r\n        //     .\r\n        tokenPrices[_tokenId] = _price;\r\n\r\n        //    \r\n        SaleContractList.push(_tokenId);\r\n\r\n        emit List(_tokenId, \"List\", _price, msg.sender, address(0));\r\n    }\r\n\r\n    function PurchaseToken(uint8 _tokenId) public payable {\r\n        //   \r\n        address tokenOwner = Token.ownerOf(_tokenId);\r\n\r\n        //       .\r\n        require(tokenOwner != msg.sender, \"SaleContract : Owner cannot buy\");\r\n\r\n        //      .\r\n        require(tokenPrices[_tokenId] > 0, \"SaleContract : Tokens are not for sale\");\r\n\r\n        //       .\r\n        require(tokenPrices[_tokenId] <= msg.value, \"SaleContract : Offer more than the selling price\");\r\n\r\n        // CA    .\r\n        payable(tokenOwner).transfer(msg.value);\r\n        \r\n        //    .\r\n        // Token.newTransfer(msg.sender, _tokenId);\r\n        Token.transferFrom(tokenOwner, msg.sender, _tokenId);\r\n        //   0    .\r\n        tokenPrices[_tokenId] = 0;   \r\n\r\n        popSaleContract(_tokenId); \r\n\r\n        emit Sale(_tokenId, \"Sale\", msg.value, msg.sender, tokenOwner);\r\n        emit Transfer(_tokenId, \"Transfer\", 0, tokenOwner, msg.sender);\r\n    }\r\n\r\n    function popSaleContract(uint8 _tokenId) private returns (bool) {\r\n        for (uint256 i = 0; i < SaleContractList.length; i++) {\r\n            if(SaleContractList[i] == _tokenId){\r\n                //       \r\n                SaleContractList[i] = SaleContractList[SaleContractList.length - 1];\r\n\r\n                //    \r\n                SaleContractList.pop();\r\n                return true;\r\n            }\r\n        }\r\n        return false;\r\n    }\r\n    \r\n    //     view\r\n    function getSaleContractList() public view returns (TokenInfo[] memory){\r\n        \r\n        //       \r\n        require(SaleContractList.length > 0);\r\n        \r\n        TokenInfo[] memory list = new TokenInfo[](SaleContractList.length);\r\n\r\n        for (uint8 i = 0; i < SaleContractList.length; i++) {\r\n            uint8 tokenId = SaleContractList[i];\r\n            uint price = tokenPrices[tokenId];\r\n            //     \r\n            list[i] = TokenInfo(tokenId, price);\r\n        }\r\n        return list;\r\n    }\r\n\r\n    //  NFT   \r\n    function getOwnerToken(address _tokenOwner) public view returns (TokenInfo[] memory) {\r\n        uint balance = Token.balanceOf(_tokenOwner);\r\n\r\n        require(balance > 0);\r\n\r\n        TokenInfo[] memory list = new TokenInfo[](balance);\r\n\r\n        for (uint8 i = 0; i < balance; i++) {\r\n            //      .\r\n            uint tokenId = Token.tokenOfOwnerByIndex(_tokenOwner, i);\r\n            uint price = tokenPrices[tokenId];\r\n\r\n            //     \r\n            list[i] = TokenInfo(tokenId, price);\r\n        }\r\n\r\n        return list;\r\n    }\r\n\r\n    //       \r\n    function getLatestToken(address _tokenOwner) public view returns (TokenInfo memory) {\r\n        //   \r\n        uint balance = Token.balanceOf(_tokenOwner);\r\n\r\n        //    \r\n        uint tokenId = Token.tokenOfOwnerByIndex(_tokenOwner, balance - 1);\r\n        uint price = tokenPrices[tokenId];\r\n\r\n        return TokenInfo(tokenId, price);\r\n    }\r\n\r\n}   ",
  "sourcePath": "C:\\Users\\jdunm\\OneDrive\\ \\EGG-NFT-STORE\\front\\contracts\\SaleContract.sol",
  "compiler": {
    "name": "solc",
    "version": "0.8.17+commit.8df45f5f.Emscripten.clang"
  },
  "schemaVersion": "3.4.11",
  "updatedAt": "2022-12-26T03:32:24.479Z",
  "networkType": "ethereum",
  "devdoc": {
    "kind": "dev",
    "methods": {},
    "version": 1
  },
  "userdoc": {
    "kind": "user",
    "methods": {},
    "version": 1
  }
}