{
  "contractName": "SaleContract",
  "abi": [
    {
      "inputs": [
        {
          "internalType": "address",
          "name": "_eggTokenCA",
          "type": "address"
        }
      ],
      "stateMutability": "nonpayable",
      "type": "constructor"
    },
    {
      "anonymous": false,
      "inputs": [
        {
          "indexed": false,
          "internalType": "uint256",
          "name": "tokenId",
          "type": "uint256"
        },
        {
          "indexed": false,
          "internalType": "string",
          "name": "state",
          "type": "string"
        },
        {
          "indexed": false,
          "internalType": "uint256",
          "name": "price",
          "type": "uint256"
        },
        {
          "indexed": false,
          "internalType": "address",
          "name": "from",
          "type": "address"
        },
        {
          "indexed": false,
          "internalType": "address",
          "name": "to",
          "type": "address"
        }
      ],
      "name": "List",
      "type": "event"
    },
    {
      "anonymous": false,
      "inputs": [
        {
          "indexed": false,
          "internalType": "uint256",
          "name": "tokenId",
          "type": "uint256"
        },
        {
          "indexed": false,
          "internalType": "string",
          "name": "state",
          "type": "string"
        },
        {
          "indexed": false,
          "internalType": "uint256",
          "name": "price",
          "type": "uint256"
        },
        {
          "indexed": false,
          "internalType": "address",
          "name": "from",
          "type": "address"
        },
        {
          "indexed": false,
          "internalType": "address",
          "name": "to",
          "type": "address"
        }
      ],
      "name": "Sale",
      "type": "event"
    },
    {
      "anonymous": false,
      "inputs": [
        {
          "indexed": false,
          "internalType": "uint256",
          "name": "tokenId",
          "type": "uint256"
        },
        {
          "indexed": false,
          "internalType": "string",
          "name": "state",
          "type": "string"
        },
        {
          "indexed": false,
          "internalType": "uint256",
          "name": "price",
          "type": "uint256"
        },
        {
          "indexed": false,
          "internalType": "address",
          "name": "from",
          "type": "address"
        },
        {
          "indexed": false,
          "internalType": "address",
          "name": "to",
          "type": "address"
        }
      ],
      "name": "Transfer",
      "type": "event"
    },
    {
      "inputs": [
        {
          "internalType": "uint256",
          "name": "",
          "type": "uint256"
        }
      ],
      "name": "SaleContractList",
      "outputs": [
        {
          "internalType": "uint256",
          "name": "",
          "type": "uint256"
        }
      ],
      "stateMutability": "view",
      "type": "function",
      "constant": true
    },
    {
      "inputs": [],
      "name": "Token",
      "outputs": [
        {
          "internalType": "contract EggToken",
          "name": "",
          "type": "address"
        }
      ],
      "stateMutability": "view",
      "type": "function",
      "constant": true
    },
    {
      "inputs": [
        {
          "internalType": "uint256",
          "name": "",
          "type": "uint256"
        }
      ],
      "name": "tokenPrices",
      "outputs": [
        {
          "internalType": "uint256",
          "name": "",
          "type": "uint256"
        }
      ],
      "stateMutability": "view",
      "type": "function",
      "constant": true
    },
    {
      "inputs": [
        {
          "internalType": "uint256",
          "name": "_tokenId",
          "type": "uint256"
        },
        {
          "internalType": "uint256",
          "name": "_price",
          "type": "uint256"
        }
      ],
      "name": "ListFotSaleContract",
      "outputs": [],
      "stateMutability": "nonpayable",
      "type": "function"
    },
    {
      "inputs": [
        {
          "internalType": "uint256",
          "name": "_tokenId",
          "type": "uint256"
        }
      ],
      "name": "PurchaseToken",
      "outputs": [],
      "stateMutability": "payable",
      "type": "function",
      "payable": true
    },
    {
      "inputs": [],
      "name": "getSaleContractList",
      "outputs": [
        {
          "components": [
            {
              "internalType": "uint256",
              "name": "tokenId",
              "type": "uint256"
            },
            {
              "internalType": "uint256",
              "name": "price",
              "type": "uint256"
            }
          ],
          "internalType": "struct SaleContract.TokenInfo[]",
          "name": "",
          "type": "tuple[]"
        }
      ],
      "stateMutability": "view",
      "type": "function",
      "constant": true
    },
    {
      "inputs": [
        {
          "internalType": "address",
          "name": "_tokenOwner",
          "type": "address"
        }
      ],
      "name": "getOwnerToken",
      "outputs": [
        {
          "components": [
            {
              "internalType": "uint256",
              "name": "tokenId",
              "type": "uint256"
            },
            {
              "internalType": "uint256",
              "name": "price",
              "type": "uint256"
            }
          ],
          "internalType": "struct SaleContract.TokenInfo[]",
          "name": "",
          "type": "tuple[]"
        }
      ],
      "stateMutability": "view",
      "type": "function",
      "constant": true
    },
    {
      "inputs": [
        {
          "internalType": "address",
          "name": "_tokenOwner",
          "type": "address"
        }
      ],
      "name": "getLatestToken",
      "outputs": [
        {
          "components": [
            {
              "internalType": "uint256",
              "name": "tokenId",
              "type": "uint256"
            },
            {
              "internalType": "uint256",
              "name": "price",
              "type": "uint256"
            }
          ],
          "internalType": "struct SaleContract.TokenInfo",
          "name": "",
          "type": "tuple"
        }
      ],
      "stateMutability": "view",
      "type": "function",
      "constant": true
    }
  ],
  "bytecode": "0x60806040523480156200001157600080fd5b5060405162001894380380620018948339818101604052810190620000379190620000e8565b806000806101000a81548173ffffffffffffffffffffffffffffffffffffffff021916908373ffffffffffffffffffffffffffffffffffffffff160217905550506200011a565b600080fd5b600073ffffffffffffffffffffffffffffffffffffffff82169050919050565b6000620000b08262000083565b9050919050565b620000c281620000a3565b8114620000ce57600080fd5b50565b600081519050620000e281620000b7565b92915050565b6000602082840312156200010157620001006200007e565b5b60006200011184828501620000d1565b91505092915050565b61176a806200012a6000396000f3fe60806040526004361061007b5760003560e01c8063ba7096731161004e578063ba70967314610141578063c24126761461017e578063c3d2b887146101a9578063e5afe3e6146101d25761007b565b80633048f512146100805780635e263c5c1461009c578063966c0574146100c7578063a4ad760b14610104575b600080fd5b61009a60048036038101906100959190610d59565b61020f565b005b3480156100a857600080fd5b506100b1610540565b6040516100be9190610e73565b60405180910390f35b3480156100d357600080fd5b506100ee60048036038101906100e99190610ef3565b61064c565b6040516100fb9190610e73565b60405180910390f35b34801561011057600080fd5b5061012b60048036038101906101269190610ef3565b610869565b6040516101389190610f4f565b60405180910390f35b34801561014d57600080fd5b5061016860048036038101906101639190610d59565b6109f4565b6040516101759190610f79565b60405180910390f35b34801561018a57600080fd5b50610193610a18565b6040516101a09190610ff3565b60405180910390f35b3480156101b557600080fd5b506101d060048036038101906101cb919061100e565b610a3c565b005b3480156101de57600080fd5b506101f960048036038101906101f49190610d59565b610c10565b6040516102069190610f79565b60405180910390f35b60008060009054906101000a900473ffffffffffffffffffffffffffffffffffffffff1673ffffffffffffffffffffffffffffffffffffffff16636352211e836040518263ffffffff1660e01b815260040161026b9190610f79565b602060405180830381865afa158015610288573d6000803e3d6000fd5b505050506040513d601f19601f820116820180604052508101906102ac9190611063565b90503373ffffffffffffffffffffffffffffffffffffffff168173ffffffffffffffffffffffffffffffffffffffff160361031c576040517f08c379a0000000000000000000000000000000000000000000000000000000008152600401610313906110ed565b60405180910390fd5b6000600160008481526020019081526020016000205411610372576040517f08c379a000000000000000000000000000000000000000000000000000000000815260040161036990611159565b60405180910390fd5b34600160008481526020019081526020016000205411156103c8576040517f08c379a00000000000000000000000000000000000000000000000000000000081526004016103bf906111eb565b60405180910390fd5b8073ffffffffffffffffffffffffffffffffffffffff166108fc349081150290604051600060405180830381858888f1935050505015801561040e573d6000803e3d6000fd5b5060008054906101000a900473ffffffffffffffffffffffffffffffffffffffff1673ffffffffffffffffffffffffffffffffffffffff166323b872dd8233856040518463ffffffff1660e01b815260040161046c9392919061121a565b600060405180830381600087803b15801561048657600080fd5b505af115801561049a573d6000803e3d6000fd5b50505050600060016000848152602001908152602001600020819055506104c082610c28565b507fc19cc4853052017037beb34f01d8098f4389b76c5a752a960ee68c73f7d06c92823483336040516104f6949392919061129d565b60405180910390a17f5d8149e46829a28f28ce1ffc2eeaca852a7b6f68d02440645c1c2ec7bceafb6b8260008333604051610534949392919061137c565b60405180910390a15050565b606060006002805490501161055457600080fd5b600060028054905067ffffffffffffffff811115610575576105746113d4565b5b6040519080825280602002602001820160405280156105ae57816020015b61059b610d04565b8152602001906001900390816105935790505b50905060005b600280549050811015610644576000600282815481106105d7576105d6611403565b5b9060005260206000200154905060006001600083815260200190815260200160002054905060405180604001604052808381526020018281525084848151811061062457610623611403565b5b60200260200101819052505050808061063c90611461565b9150506105b4565b508091505090565b606060008060009054906101000a900473ffffffffffffffffffffffffffffffffffffffff1673ffffffffffffffffffffffffffffffffffffffff166370a08231846040518263ffffffff1660e01b81526004016106aa91906114a9565b602060405180830381865afa1580156106c7573d6000803e3d6000fd5b505050506040513d601f19601f820116820180604052508101906106eb91906114d9565b9050600081116106fa57600080fd5b60008167ffffffffffffffff811115610716576107156113d4565b5b60405190808252806020026020018201604052801561074f57816020015b61073c610d04565b8152602001906001900390816107345790505b50905060005b8281101561085e5760008060009054906101000a900473ffffffffffffffffffffffffffffffffffffffff1673ffffffffffffffffffffffffffffffffffffffff16632f745c5987846040518363ffffffff1660e01b81526004016107bb929190611506565b602060405180830381865afa1580156107d8573d6000803e3d6000fd5b505050506040513d601f19601f820116820180604052508101906107fc91906114d9565b905060006001600083815260200190815260200160002054905060405180604001604052808381526020018281525084848151811061083e5761083d611403565b5b60200260200101819052505050808061085690611461565b915050610755565b508092505050919050565b610871610d04565b60008060009054906101000a900473ffffffffffffffffffffffffffffffffffffffff1673ffffffffffffffffffffffffffffffffffffffff166370a08231846040518263ffffffff1660e01b81526004016108cd91906114a9565b602060405180830381865afa1580156108ea573d6000803e3d6000fd5b505050506040513d601f19601f8201168201806040525081019061090e91906114d9565b905060008060009054906101000a900473ffffffffffffffffffffffffffffffffffffffff1673ffffffffffffffffffffffffffffffffffffffff16632f745c598560018561095d919061152f565b6040518363ffffffff1660e01b815260040161097a929190611506565b602060405180830381865afa158015610997573d6000803e3d6000fd5b505050506040513d601f19601f820116820180604052508101906109bb91906114d9565b90506000600160008381526020019081526020016000205490506040518060400160405280838152602001828152509350505050919050565b60028181548110610a0457600080fd5b906000526020600020016000915090505481565b60008054906101000a900473ffffffffffffffffffffffffffffffffffffffff1681565b60008060009054906101000a900473ffffffffffffffffffffffffffffffffffffffff1673ffffffffffffffffffffffffffffffffffffffff16636352211e846040518263ffffffff1660e01b8152600401610a989190610f79565b602060405180830381865afa158015610ab5573d6000803e3d6000fd5b505050506040513d601f19601f82011682018060405250810190610ad99190611063565b905060008211610b1e576040517f08c379a0000000000000000000000000000000000000000000000000000000008152600401610b15906115d5565b60405180910390fd5b8073ffffffffffffffffffffffffffffffffffffffff163373ffffffffffffffffffffffffffffffffffffffff1614610b8c576040517f08c379a0000000000000000000000000000000000000000000000000000000008152600401610b8390611641565b60405180910390fd5b81600160008581526020019081526020016000208190555060028390806001815401808255809150506001900390600052602060002001600090919091909150557fb538b7aa8f82bf2bb7b47d413f2cee6c596f1233826e04667dec9b1fd8578c218383336000604051610c0394939291906116ad565b60405180910390a1505050565b60016020528060005260406000206000915090505481565b600080600090505b600280549050811015610cf9578260028281548110610c5257610c51611403565b5b906000526020600020015403610ce65760026001600280549050610c76919061152f565b81548110610c8757610c86611403565b5b906000526020600020015460028281548110610ca657610ca5611403565b5b90600052602060002001819055506002805480610cc657610cc5611705565b5b600190038181906000526020600020016000905590556001915050610cff565b8080610cf190611461565b915050610c30565b50600090505b919050565b604051806040016040528060008152602001600081525090565b600080fd5b6000819050919050565b610d3681610d23565b8114610d4157600080fd5b50565b600081359050610d5381610d2d565b92915050565b600060208284031215610d6f57610d6e610d1e565b5b6000610d7d84828501610d44565b91505092915050565b600081519050919050565b600082825260208201905092915050565b6000819050602082019050919050565b610dbb81610d23565b82525050565b604082016000820151610dd76000850182610db2565b506020820151610dea6020850182610db2565b50505050565b6000610dfc8383610dc1565b60408301905092915050565b6000602082019050919050565b6000610e2082610d86565b610e2a8185610d91565b9350610e3583610da2565b8060005b83811015610e66578151610e4d8882610df0565b9750610e5883610e08565b925050600181019050610e39565b5085935050505092915050565b60006020820190508181036000830152610e8d8184610e15565b905092915050565b600073ffffffffffffffffffffffffffffffffffffffff82169050919050565b6000610ec082610e95565b9050919050565b610ed081610eb5565b8114610edb57600080fd5b50565b600081359050610eed81610ec7565b92915050565b600060208284031215610f0957610f08610d1e565b5b6000610f1784828501610ede565b91505092915050565b604082016000820151610f366000850182610db2565b506020820151610f496020850182610db2565b50505050565b6000604082019050610f646000830184610f20565b92915050565b610f7381610d23565b82525050565b6000602082019050610f8e6000830184610f6a565b92915050565b6000819050919050565b6000610fb9610fb4610faf84610e95565b610f94565b610e95565b9050919050565b6000610fcb82610f9e565b9050919050565b6000610fdd82610fc0565b9050919050565b610fed81610fd2565b82525050565b60006020820190506110086000830184610fe4565b92915050565b6000806040838503121561102557611024610d1e565b5b600061103385828601610d44565b925050602061104485828601610d44565b9150509250929050565b60008151905061105d81610ec7565b92915050565b60006020828403121561107957611078610d1e565b5b60006110878482850161104e565b91505092915050565b600082825260208201905092915050565b7f4f776e65722063616e6e6f742062757900000000000000000000000000000000600082015250565b60006110d7601083611090565b91506110e2826110a1565b602082019050919050565b60006020820190508181036000830152611106816110ca565b9050919050565b7f546f6b656e7320617265206e6f7420666f722073616c65000000000000000000600082015250565b6000611143601783611090565b915061114e8261110d565b602082019050919050565b6000602082019050818103600083015261117281611136565b9050919050565b7f4f66666572206d6f7265207468616e207468652073656c6c696e67207072696360008201527f6500000000000000000000000000000000000000000000000000000000000000602082015250565b60006111d5602183611090565b91506111e082611179565b604082019050919050565b60006020820190508181036000830152611204816111c8565b9050919050565b61121481610eb5565b82525050565b600060608201905061122f600083018661120b565b61123c602083018561120b565b6112496040830184610f6a565b949350505050565b7f53616c6500000000000000000000000000000000000000000000000000000000600082015250565b6000611287600483611090565b915061129282611251565b602082019050919050565b600060a0820190506112b26000830187610f6a565b81810360208301526112c38161127a565b90506112d26040830186610f6a565b6112df606083018561120b565b6112ec608083018461120b565b95945050505050565b7f5472616e73666572000000000000000000000000000000000000000000000000600082015250565b600061132b600883611090565b9150611336826112f5565b602082019050919050565b6000819050919050565b600061136661136161135c84611341565b610f94565b610d23565b9050919050565b6113768161134b565b82525050565b600060a0820190506113916000830187610f6a565b81810360208301526113a28161131e565b90506113b1604083018661136d565b6113be606083018561120b565b6113cb608083018461120b565b95945050505050565b7f4e487b7100000000000000000000000000000000000000000000000000000000600052604160045260246000fd5b7f4e487b7100000000000000000000000000000000000000000000000000000000600052603260045260246000fd5b7f4e487b7100000000000000000000000000000000000000000000000000000000600052601160045260246000fd5b600061146c82610d23565b91507fffffffffffffffffffffffffffffffffffffffffffffffffffffffffffffffff820361149e5761149d611432565b5b600182019050919050565b60006020820190506114be600083018461120b565b92915050565b6000815190506114d381610d2d565b92915050565b6000602082840312156114ef576114ee610d1e565b5b60006114fd848285016114c4565b91505092915050565b600060408201905061151b600083018561120b565b6115286020830184610f6a565b9392505050565b600061153a82610d23565b915061154583610d23565b925082820390508181111561155d5761155c611432565b5b92915050565b7f5468652073656c6c696e67207072696365206d757374206265206174206c656160008201527f7374207a65726f00000000000000000000000000000000000000000000000000602082015250565b60006115bf602783611090565b91506115ca82611563565b604082019050919050565b600060208201905081810360008301526115ee816115b2565b9050919050565b7f6265206e6f7420746865206f776e657200000000000000000000000000000000600082015250565b600061162b601083611090565b9150611636826115f5565b602082019050919050565b6000602082019050818103600083015261165a8161161e565b9050919050565b7f4c69737400000000000000000000000000000000000000000000000000000000600082015250565b6000611697600483611090565b91506116a282611661565b602082019050919050565b600060a0820190506116c26000830187610f6a565b81810360208301526116d38161168a565b90506116e26040830186610f6a565b6116ef606083018561120b565b6116fc608083018461120b565b95945050505050565b7f4e487b7100000000000000000000000000000000000000000000000000000000600052603160045260246000fdfea2646970667358221220aa40e21f0014e526ed93383e56453cecc030f5883a033ddf090cb99ace18998f64736f6c63430008110033",
  "immutableReferences": {},
  "source": "// SPDX-License-Identifier:MIT\r\npragma solidity ^0.8.17;\r\n\r\nimport \"./EggToken.sol\";\r\n\r\ncontract SaleContract {\r\n    // EggToken  \r\n    EggToken public Token;\r\n\r\n    // token  => price( );\r\n    mapping(uint => uint) public tokenPrices;\r\n\r\n    //   \r\n    struct TokenInfo {\r\n        uint tokenId;\r\n        uint price;\r\n    }\r\n\r\n    uint[] public SaleContractList;\r\n\r\n    //    \r\n    event List(uint tokenId, string state, uint price, address from, address to);\r\n\r\n    //   \r\n    event Sale(uint tokenId, string state, uint price, address from, address to);\r\n\r\n    //   \r\n    event Transfer(uint tokenId, string state, uint price, address from, address to);\r\n\r\n    //   EggToken CA  Token  .\r\n    constructor(address _eggTokenCA) {\r\n        Token = EggToken(_eggTokenCA);\r\n    }\r\n\r\n    //   \r\n    function ListFotSaleContract(uint _tokenId, uint _price) public {\r\n        address tokenOwner = Token.ownerOf(_tokenId);\r\n\r\n        //  0   \r\n        require(_price > 0, \"The selling price must be at least zero\");\r\n\r\n        //   ()    .\r\n        require(msg.sender == tokenOwner, \"be not the owner\" );\r\n\r\n        // require(Token.isApprovedForAll(msg.sender, address(this)), \"approve caller is not owner nor approved for all\");\r\n\r\n        //     .\r\n        tokenPrices[_tokenId] = _price;\r\n\r\n        //    \r\n        SaleContractList.push(_tokenId);\r\n\r\n        emit List(_tokenId, \"List\", _price, msg.sender, address(0));\r\n    }\r\n\r\n    function PurchaseToken(uint _tokenId) public payable {\r\n        //   \r\n        address tokenOwner = Token.ownerOf(_tokenId);\r\n\r\n        //       .\r\n        require(tokenOwner != msg.sender, \"Owner cannot buy\");\r\n\r\n        //      .\r\n        require(tokenPrices[_tokenId] > 0, \"Tokens are not for sale\");\r\n\r\n        //       .\r\n        require(tokenPrices[_tokenId] <= msg.value, \"Offer more than the selling price\");\r\n\r\n        // CA    .\r\n        payable(tokenOwner).transfer(msg.value);\r\n        \r\n        //    .\r\n        // Token.newTransfer(msg.sender, _tokenId);\r\n        Token.transferFrom(tokenOwner, msg.sender, _tokenId);\r\n        //   0    .\r\n        tokenPrices[_tokenId] = 0;   \r\n\r\n        popSaleContract(_tokenId); \r\n\r\n        emit Sale(_tokenId, \"Sale\", msg.value, tokenOwner, msg.sender);\r\n        emit Transfer(_tokenId, \"Transfer\", 0, tokenOwner, msg.sender);\r\n    }\r\n\r\n    function popSaleContract(uint _tokenId) private returns (bool) {\r\n        for (uint256 i = 0; i < SaleContractList.length; i++) {\r\n            if(SaleContractList[i] == _tokenId){\r\n                //       \r\n                SaleContractList[i] = SaleContractList[SaleContractList.length - 1];\r\n\r\n                //    \r\n                SaleContractList.pop();\r\n                return true;\r\n            }\r\n        }\r\n        return false;\r\n    }\r\n    \r\n    //     view\r\n    function getSaleContractList() public view returns (TokenInfo[] memory){\r\n        \r\n        //       \r\n        require(SaleContractList.length > 0);\r\n        \r\n        TokenInfo[] memory list = new TokenInfo[](SaleContractList.length);\r\n\r\n        for (uint256 i = 0; i < SaleContractList.length; i++) {\r\n            uint tokenId = SaleContractList[i];\r\n            uint price = tokenPrices[tokenId];\r\n            //     \r\n            list[i] = TokenInfo(tokenId, price);\r\n        }\r\n        return list;\r\n    }\r\n\r\n    //  NFT   \r\n    function getOwnerToken(address _tokenOwner) public view returns (TokenInfo[] memory) {\r\n        uint balance = Token.balanceOf(_tokenOwner);\r\n\r\n        require(balance > 0);\r\n\r\n        TokenInfo[] memory list = new TokenInfo[](balance);\r\n\r\n        for (uint256 i = 0; i < balance; i++) {\r\n            //      .\r\n            uint tokenId = Token.tokenOfOwnerByIndex(_tokenOwner, i);\r\n            uint price = tokenPrices[tokenId];\r\n\r\n            //     \r\n            list[i] = TokenInfo(tokenId, price);\r\n        }\r\n\r\n        return list;\r\n    }\r\n\r\n    //       \r\n    function getLatestToken(address _tokenOwner) public view returns (TokenInfo memory) {\r\n        //   \r\n        uint balance = Token.balanceOf(_tokenOwner);\r\n\r\n        //    \r\n        uint tokenId = Token.tokenOfOwnerByIndex(_tokenOwner, balance - 1);\r\n        uint price = tokenPrices[tokenId];\r\n\r\n        return TokenInfo(tokenId, price);\r\n    }\r\n\r\n}   ",
  "sourcePath": "C:\\Users\\jdunm\\OneDrive\\ \\EGG-NFT-STORE\\front\\contracts\\SaleContract.sol",
  "compiler": {
    "name": "solc",
    "version": "0.8.17+commit.8df45f5f.Emscripten.clang"
  },
  "schemaVersion": "3.4.11",
  "updatedAt": "2022-12-23T07:56:14.085Z",
  "networkType": "ethereum",
  "devdoc": {
    "kind": "dev",
    "methods": {},
    "version": 1
  },
  "userdoc": {
    "kind": "user",
    "methods": {},
    "version": 1
  }
}