{
  "contractName": "EggToken",
  "abi": [
    {
      "inputs": [
        {
          "internalType": "string",
          "name": "_name",
          "type": "string"
        },
        {
          "internalType": "string",
          "name": "_symbol",
          "type": "string"
        },
        {
          "internalType": "string",
          "name": "_metadataURI",
          "type": "string"
        }
      ],
      "stateMutability": "nonpayable",
      "type": "constructor"
    },
    {
      "anonymous": false,
      "inputs": [
        {
          "indexed": true,
          "internalType": "address",
          "name": "owner",
          "type": "address"
        },
        {
          "indexed": true,
          "internalType": "address",
          "name": "approved",
          "type": "address"
        },
        {
          "indexed": true,
          "internalType": "uint256",
          "name": "tokenId",
          "type": "uint256"
        }
      ],
      "name": "Approval",
      "type": "event"
    },
    {
      "anonymous": false,
      "inputs": [
        {
          "indexed": true,
          "internalType": "address",
          "name": "owner",
          "type": "address"
        },
        {
          "indexed": true,
          "internalType": "address",
          "name": "operator",
          "type": "address"
        },
        {
          "indexed": false,
          "internalType": "bool",
          "name": "approved",
          "type": "bool"
        }
      ],
      "name": "ApprovalForAll",
      "type": "event"
    },
    {
      "anonymous": false,
      "inputs": [
        {
          "indexed": false,
          "internalType": "uint256",
          "name": "price",
          "type": "uint256"
        },
        {
          "indexed": false,
          "internalType": "address",
          "name": "from",
          "type": "address"
        },
        {
          "indexed": false,
          "internalType": "address",
          "name": "to",
          "type": "address"
        }
      ],
      "name": "Minted",
      "type": "event"
    },
    {
      "anonymous": false,
      "inputs": [
        {
          "indexed": true,
          "internalType": "address",
          "name": "previousOwner",
          "type": "address"
        },
        {
          "indexed": true,
          "internalType": "address",
          "name": "newOwner",
          "type": "address"
        }
      ],
      "name": "OwnershipTransferred",
      "type": "event"
    },
    {
      "anonymous": false,
      "inputs": [
        {
          "indexed": true,
          "internalType": "address",
          "name": "from",
          "type": "address"
        },
        {
          "indexed": true,
          "internalType": "address",
          "name": "to",
          "type": "address"
        },
        {
          "indexed": true,
          "internalType": "uint256",
          "name": "tokenId",
          "type": "uint256"
        }
      ],
      "name": "Transfer",
      "type": "event"
    },
    {
      "inputs": [],
      "name": "MAX_TOKEN_COUNT",
      "outputs": [
        {
          "internalType": "uint256",
          "name": "",
          "type": "uint256"
        }
      ],
      "stateMutability": "view",
      "type": "function",
      "constant": true
    },
    {
      "inputs": [],
      "name": "a",
      "outputs": [
        {
          "internalType": "string",
          "name": "",
          "type": "string"
        }
      ],
      "stateMutability": "view",
      "type": "function",
      "constant": true
    },
    {
      "inputs": [
        {
          "internalType": "address",
          "name": "to",
          "type": "address"
        },
        {
          "internalType": "uint256",
          "name": "tokenId",
          "type": "uint256"
        }
      ],
      "name": "approve",
      "outputs": [],
      "stateMutability": "nonpayable",
      "type": "function"
    },
    {
      "inputs": [
        {
          "internalType": "address",
          "name": "owner",
          "type": "address"
        }
      ],
      "name": "balanceOf",
      "outputs": [
        {
          "internalType": "uint256",
          "name": "",
          "type": "uint256"
        }
      ],
      "stateMutability": "view",
      "type": "function",
      "constant": true
    },
    {
      "inputs": [
        {
          "internalType": "uint256",
          "name": "tokenId",
          "type": "uint256"
        }
      ],
      "name": "getApproved",
      "outputs": [
        {
          "internalType": "address",
          "name": "",
          "type": "address"
        }
      ],
      "stateMutability": "view",
      "type": "function",
      "constant": true
    },
    {
      "inputs": [
        {
          "internalType": "address",
          "name": "owner",
          "type": "address"
        },
        {
          "internalType": "address",
          "name": "operator",
          "type": "address"
        }
      ],
      "name": "isApprovedForAll",
      "outputs": [
        {
          "internalType": "bool",
          "name": "",
          "type": "bool"
        }
      ],
      "stateMutability": "view",
      "type": "function",
      "constant": true
    },
    {
      "inputs": [],
      "name": "metadataURI",
      "outputs": [
        {
          "internalType": "string",
          "name": "",
          "type": "string"
        }
      ],
      "stateMutability": "view",
      "type": "function",
      "constant": true
    },
    {
      "inputs": [],
      "name": "mintPrice",
      "outputs": [
        {
          "internalType": "uint256",
          "name": "",
          "type": "uint256"
        }
      ],
      "stateMutability": "view",
      "type": "function",
      "constant": true
    },
    {
      "inputs": [],
      "name": "name",
      "outputs": [
        {
          "internalType": "string",
          "name": "",
          "type": "string"
        }
      ],
      "stateMutability": "view",
      "type": "function",
      "constant": true
    },
    {
      "inputs": [],
      "name": "owner",
      "outputs": [
        {
          "internalType": "address",
          "name": "",
          "type": "address"
        }
      ],
      "stateMutability": "view",
      "type": "function",
      "constant": true
    },
    {
      "inputs": [
        {
          "internalType": "uint256",
          "name": "tokenId",
          "type": "uint256"
        }
      ],
      "name": "ownerOf",
      "outputs": [
        {
          "internalType": "address",
          "name": "",
          "type": "address"
        }
      ],
      "stateMutability": "view",
      "type": "function",
      "constant": true
    },
    {
      "inputs": [],
      "name": "renounceOwnership",
      "outputs": [],
      "stateMutability": "nonpayable",
      "type": "function"
    },
    {
      "inputs": [
        {
          "internalType": "address",
          "name": "from",
          "type": "address"
        },
        {
          "internalType": "address",
          "name": "to",
          "type": "address"
        },
        {
          "internalType": "uint256",
          "name": "tokenId",
          "type": "uint256"
        }
      ],
      "name": "safeTransferFrom",
      "outputs": [],
      "stateMutability": "nonpayable",
      "type": "function"
    },
    {
      "inputs": [
        {
          "internalType": "address",
          "name": "from",
          "type": "address"
        },
        {
          "internalType": "address",
          "name": "to",
          "type": "address"
        },
        {
          "internalType": "uint256",
          "name": "tokenId",
          "type": "uint256"
        },
        {
          "internalType": "bytes",
          "name": "_data",
          "type": "bytes"
        }
      ],
      "name": "safeTransferFrom",
      "outputs": [],
      "stateMutability": "nonpayable",
      "type": "function"
    },
    {
      "inputs": [
        {
          "internalType": "address",
          "name": "operator",
          "type": "address"
        },
        {
          "internalType": "bool",
          "name": "approved",
          "type": "bool"
        }
      ],
      "name": "setApprovalForAll",
      "outputs": [],
      "stateMutability": "nonpayable",
      "type": "function"
    },
    {
      "inputs": [
        {
          "internalType": "bytes4",
          "name": "interfaceId",
          "type": "bytes4"
        }
      ],
      "name": "supportsInterface",
      "outputs": [
        {
          "internalType": "bool",
          "name": "",
          "type": "bool"
        }
      ],
      "stateMutability": "view",
      "type": "function",
      "constant": true
    },
    {
      "inputs": [],
      "name": "symbol",
      "outputs": [
        {
          "internalType": "string",
          "name": "",
          "type": "string"
        }
      ],
      "stateMutability": "view",
      "type": "function",
      "constant": true
    },
    {
      "inputs": [
        {
          "internalType": "uint256",
          "name": "index",
          "type": "uint256"
        }
      ],
      "name": "tokenByIndex",
      "outputs": [
        {
          "internalType": "uint256",
          "name": "",
          "type": "uint256"
        }
      ],
      "stateMutability": "view",
      "type": "function",
      "constant": true
    },
    {
      "inputs": [
        {
          "internalType": "address",
          "name": "owner",
          "type": "address"
        },
        {
          "internalType": "uint256",
          "name": "index",
          "type": "uint256"
        }
      ],
      "name": "tokenOfOwnerByIndex",
      "outputs": [
        {
          "internalType": "uint256",
          "name": "",
          "type": "uint256"
        }
      ],
      "stateMutability": "view",
      "type": "function",
      "constant": true
    },
    {
      "inputs": [],
      "name": "totalSupply",
      "outputs": [
        {
          "internalType": "uint256",
          "name": "",
          "type": "uint256"
        }
      ],
      "stateMutability": "view",
      "type": "function",
      "constant": true
    },
    {
      "inputs": [
        {
          "internalType": "address",
          "name": "from",
          "type": "address"
        },
        {
          "internalType": "address",
          "name": "to",
          "type": "address"
        },
        {
          "internalType": "uint256",
          "name": "tokenId",
          "type": "uint256"
        }
      ],
      "name": "transferFrom",
      "outputs": [],
      "stateMutability": "nonpayable",
      "type": "function"
    },
    {
      "inputs": [
        {
          "internalType": "address",
          "name": "newOwner",
          "type": "address"
        }
      ],
      "name": "transferOwnership",
      "outputs": [],
      "stateMutability": "nonpayable",
      "type": "function"
    },
    {
      "inputs": [
        {
          "internalType": "address",
          "name": "_saleContractCA",
          "type": "address"
        }
      ],
      "name": "mintToken",
      "outputs": [],
      "stateMutability": "payable",
      "type": "function",
      "payable": true
    },
    {
      "inputs": [
        {
          "internalType": "uint256",
          "name": "_tokenId",
          "type": "uint256"
        }
      ],
      "name": "tokenURI",
      "outputs": [
        {
          "internalType": "string",
          "name": "",
          "type": "string"
        }
      ],
      "stateMutability": "view",
      "type": "function",
      "constant": true
    },
    {
      "inputs": [
        {
          "internalType": "string",
          "name": "_uri",
          "type": "string"
        }
      ],
      "name": "setMetadataURI",
      "outputs": [],
      "stateMutability": "nonpayable",
      "type": "function"
    }
  ],
  "bytecode": "0x6080604052600a600c553480156200001657600080fd5b50604051620041983803806200419883398181016040528101906200003c919062000300565b828281600090816200004f919062000604565b50806001908162000061919062000604565b50505062000084620000786200009f60201b60201c565b620000a760201b60201c565b80600d908162000095919062000604565b50505050620006eb565b600033905090565b6000600a60009054906101000a900473ffffffffffffffffffffffffffffffffffffffff16905081600a60006101000a81548173ffffffffffffffffffffffffffffffffffffffff021916908373ffffffffffffffffffffffffffffffffffffffff1602179055508173ffffffffffffffffffffffffffffffffffffffff168173ffffffffffffffffffffffffffffffffffffffff167f8be0079c531659141344cd1fd0a4f28419497f9722a3daafe3b4186f6b6457e060405160405180910390a35050565b6000604051905090565b600080fd5b600080fd5b600080fd5b600080fd5b6000601f19601f8301169050919050565b7f4e487b7100000000000000000000000000000000000000000000000000000000600052604160045260246000fd5b620001d6826200018b565b810181811067ffffffffffffffff82111715620001f857620001f76200019c565b5b80604052505050565b60006200020d6200016d565b90506200021b8282620001cb565b919050565b600067ffffffffffffffff8211156200023e576200023d6200019c565b5b62000249826200018b565b9050602081019050919050565b60005b838110156200027657808201518184015260208101905062000259565b60008484015250505050565b600062000299620002938462000220565b62000201565b905082815260208101848484011115620002b857620002b762000186565b5b620002c584828562000256565b509392505050565b600082601f830112620002e557620002e462000181565b5b8151620002f784826020860162000282565b91505092915050565b6000806000606084860312156200031c576200031b62000177565b5b600084015167ffffffffffffffff8111156200033d576200033c6200017c565b5b6200034b86828701620002cd565b935050602084015167ffffffffffffffff8111156200036f576200036e6200017c565b5b6200037d86828701620002cd565b925050604084015167ffffffffffffffff811115620003a157620003a06200017c565b5b620003af86828701620002cd565b9150509250925092565b600081519050919050565b7f4e487b7100000000000000000000000000000000000000000000000000000000600052602260045260246000fd5b600060028204905060018216806200040c57607f821691505b602082108103620004225762000421620003c4565b5b50919050565b60008190508160005260206000209050919050565b60006020601f8301049050919050565b600082821b905092915050565b6000600883026200048c7fffffffffffffffffffffffffffffffffffffffffffffffffffffffffffffffff826200044d565b6200049886836200044d565b95508019841693508086168417925050509392505050565b6000819050919050565b6000819050919050565b6000620004e5620004df620004d984620004b0565b620004ba565b620004b0565b9050919050565b6000819050919050565b6200050183620004c4565b620005196200051082620004ec565b8484546200045a565b825550505050565b600090565b6200053062000521565b6200053d818484620004f6565b505050565b5b8181101562000565576200055960008262000526565b60018101905062000543565b5050565b601f821115620005b4576200057e8162000428565b62000589846200043d565b8101602085101562000599578190505b620005b1620005a8856200043d565b83018262000542565b50505b505050565b600082821c905092915050565b6000620005d960001984600802620005b9565b1980831691505092915050565b6000620005f48383620005c6565b9150826002028217905092915050565b6200060f82620003b9565b67ffffffffffffffff8111156200062b576200062a6200019c565b5b620006378254620003f3565b6200064482828562000569565b600060209050601f8311600181146200067c576000841562000667578287015190505b620006738582620005e6565b865550620006e3565b601f1984166200068c8662000428565b60005b82811015620006b6578489015182556001820191506020850194506020810190506200068f565b86831015620006d65784890151620006d2601f891682620005c6565b8355505b6001600288020188555050505b505050505050565b613a9d80620006fb6000396000f3fe6080604052600436106101665760003560e01c80636352211e116100d157806395d89b411161008a578063c87b56dd11610064578063c87b56dd1461052f578063d0bbb0d71461056c578063e985e9c514610597578063f2fde38b146105d457610166565b806395d89b41146104b2578063a22cb465146104dd578063b88d4fde1461050657610166565b80636352211e146103a25780636817c76c146103df57806370a082311461040a578063715018a614610447578063750521f51461045e5780638da5cb5b1461048757610166565b80630dbe671f116101235780630dbe671f1461028057806318160ddd146102ab57806323b872dd146102d65780632f745c59146102ff57806342842e0e1461033c5780634f6ccce71461036557610166565b806301173a741461016b57806301ffc9a71461018757806303ee438c146101c457806306fdde03146101ef578063081812fc1461021a578063095ea7b314610257575b600080fd5b61018560048036038101906101809190612389565b6105fd565b005b34801561019357600080fd5b506101ae60048036038101906101a9919061240e565b6106dc565b6040516101bb9190612456565b60405180910390f35b3480156101d057600080fd5b506101d9610756565b6040516101e69190612501565b60405180910390f35b3480156101fb57600080fd5b506102046107e4565b6040516102119190612501565b60405180910390f35b34801561022657600080fd5b50610241600480360381019061023c9190612559565b610876565b60405161024e9190612595565b60405180910390f35b34801561026357600080fd5b5061027e600480360381019061027991906125b0565b6108fb565b005b34801561028c57600080fd5b50610295610a12565b6040516102a29190612501565b60405180910390f35b3480156102b757600080fd5b506102c0610aa0565b6040516102cd91906125ff565b60405180910390f35b3480156102e257600080fd5b506102fd60048036038101906102f8919061261a565b610aad565b005b34801561030b57600080fd5b50610326600480360381019061032191906125b0565b610b0d565b60405161033391906125ff565b60405180910390f35b34801561034857600080fd5b50610363600480360381019061035e919061261a565b610bb2565b005b34801561037157600080fd5b5061038c60048036038101906103879190612559565b610bd2565b60405161039991906125ff565b60405180910390f35b3480156103ae57600080fd5b506103c960048036038101906103c49190612559565b610c43565b6040516103d69190612595565b60405180910390f35b3480156103eb57600080fd5b506103f4610cf4565b60405161040191906125ff565b60405180910390f35b34801561041657600080fd5b50610431600480360381019061042c9190612389565b610cfa565b60405161043e91906125ff565b60405180910390f35b34801561045357600080fd5b5061045c610db1565b005b34801561046a57600080fd5b50610485600480360381019061048091906127a2565b610e39565b005b34801561049357600080fd5b5061049c610ec8565b6040516104a99190612595565b60405180910390f35b3480156104be57600080fd5b506104c7610ef2565b6040516104d49190612501565b60405180910390f35b3480156104e957600080fd5b5061050460048036038101906104ff9190612817565b610f84565b005b34801561051257600080fd5b5061052d600480360381019061052891906128f8565b610f9a565b005b34801561053b57600080fd5b5061055660048036038101906105519190612559565b610ffc565b6040516105639190612501565b60405180910390f35b34801561057857600080fd5b50610581611036565b60405161058e91906125ff565b60405180910390f35b3480156105a357600080fd5b506105be60048036038101906105b9919061297b565b61103c565b6040516105cb9190612456565b60405180910390f35b3480156105e057600080fd5b506105fb60048036038101906105f69190612389565b6110d0565b005b600c5434101561060c57600080fd5b610614610aa0565b6101f41161062157600080fd5b6000600161062d610aa0565b61063791906129ea565b9050610641610ec8565b73ffffffffffffffffffffffffffffffffffffffff166108fc349081150290604051600060405180830381858888f19350505050158015610686573d6000803e3d6000fd5b5061069133826111c7565b61069c826001610f84565b7f5758c4c0a4d007ca9768a0a574eedc39af88c4423f4ad0f8895b1b8fd1e76133600080336040516106d093929190612a63565b60405180910390a15050565b60007f780e9d63000000000000000000000000000000000000000000000000000000007bffffffffffffffffffffffffffffffffffffffffffffffffffffffff1916827bffffffffffffffffffffffffffffffffffffffffffffffffffffffff1916148061074f575061074e826113a0565b5b9050919050565b600d805461076390612ac9565b80601f016020809104026020016040519081016040528092919081815260200182805461078f90612ac9565b80156107dc5780601f106107b1576101008083540402835291602001916107dc565b820191906000526020600020905b8154815290600101906020018083116107bf57829003601f168201915b505050505081565b6060600080546107f390612ac9565b80601f016020809104026020016040519081016040528092919081815260200182805461081f90612ac9565b801561086c5780601f106108415761010080835404028352916020019161086c565b820191906000526020600020905b81548152906001019060200180831161084f57829003601f168201915b5050505050905090565b600061088182611482565b6108c0576040517f08c379a00000000000000000000000000000000000000000000000000000000081526004016108b790612b6c565b60405180910390fd5b6004600083815260200190815260200160002060009054906101000a900473ffffffffffffffffffffffffffffffffffffffff169050919050565b600061090682610c43565b90508073ffffffffffffffffffffffffffffffffffffffff168373ffffffffffffffffffffffffffffffffffffffff1603610976576040517f08c379a000000000000000000000000000000000000000000000000000000000815260040161096d90612bfe565b60405180910390fd5b8073ffffffffffffffffffffffffffffffffffffffff166109956114ee565b73ffffffffffffffffffffffffffffffffffffffff1614806109c457506109c3816109be6114ee565b61103c565b5b610a03576040517f08c379a00000000000000000000000000000000000000000000000000000000081526004016109fa90612c90565b60405180910390fd5b610a0d83836114f6565b505050565b600b8054610a1f90612ac9565b80601f0160208091040260200160405190810160405280929190818152602001828054610a4b90612ac9565b8015610a985780601f10610a6d57610100808354040283529160200191610a98565b820191906000526020600020905b815481529060010190602001808311610a7b57829003601f168201915b505050505081565b6000600880549050905090565b610abe610ab86114ee565b826115af565b610afd576040517f08c379a0000000000000000000000000000000000000000000000000000000008152600401610af490612d22565b60405180910390fd5b610b0883838361168d565b505050565b6000610b1883610cfa565b8210610b59576040517f08c379a0000000000000000000000000000000000000000000000000000000008152600401610b5090612db4565b60405180910390fd5b600660008473ffffffffffffffffffffffffffffffffffffffff1673ffffffffffffffffffffffffffffffffffffffff168152602001908152602001600020600083815260200190815260200160002054905092915050565b610bcd83838360405180602001604052806000815250610f9a565b505050565b6000610bdc610aa0565b8210610c1d576040517f08c379a0000000000000000000000000000000000000000000000000000000008152600401610c1490612e46565b60405180910390fd5b60088281548110610c3157610c30612e66565b5b90600052602060002001549050919050565b6000806002600084815260200190815260200160002060009054906101000a900473ffffffffffffffffffffffffffffffffffffffff169050600073ffffffffffffffffffffffffffffffffffffffff168173ffffffffffffffffffffffffffffffffffffffff1603610ceb576040517f08c379a0000000000000000000000000000000000000000000000000000000008152600401610ce290612f07565b60405180910390fd5b80915050919050565b600c5481565b60008073ffffffffffffffffffffffffffffffffffffffff168273ffffffffffffffffffffffffffffffffffffffff1603610d6a576040517f08c379a0000000000000000000000000000000000000000000000000000000008152600401610d6190612f99565b60405180910390fd5b600360008373ffffffffffffffffffffffffffffffffffffffff1673ffffffffffffffffffffffffffffffffffffffff168152602001908152602001600020549050919050565b610db96114ee565b73ffffffffffffffffffffffffffffffffffffffff16610dd7610ec8565b73ffffffffffffffffffffffffffffffffffffffff1614610e2d576040517f08c379a0000000000000000000000000000000000000000000000000000000008152600401610e2490613005565b60405180910390fd5b610e3760006118f3565b565b610e416114ee565b73ffffffffffffffffffffffffffffffffffffffff16610e5f610ec8565b73ffffffffffffffffffffffffffffffffffffffff1614610eb5576040517f08c379a0000000000000000000000000000000000000000000000000000000008152600401610eac90613005565b60405180910390fd5b80600d9081610ec491906131c7565b5050565b6000600a60009054906101000a900473ffffffffffffffffffffffffffffffffffffffff16905090565b606060018054610f0190612ac9565b80601f0160208091040260200160405190810160405280929190818152602001828054610f2d90612ac9565b8015610f7a5780601f10610f4f57610100808354040283529160200191610f7a565b820191906000526020600020905b815481529060010190602001808311610f5d57829003601f168201915b5050505050905090565b610f96610f8f6114ee565b83836119b9565b5050565b610fab610fa56114ee565b836115af565b610fea576040517f08c379a0000000000000000000000000000000000000000000000000000000008152600401610fe190612d22565b60405180910390fd5b610ff684848484611b25565b50505050565b6060600061100983611b81565b9050600d8160405160200161101f9291906133f0565b604051602081830303815290604052915050919050565b6101f481565b6000600560008473ffffffffffffffffffffffffffffffffffffffff1673ffffffffffffffffffffffffffffffffffffffff16815260200190815260200160002060008373ffffffffffffffffffffffffffffffffffffffff1673ffffffffffffffffffffffffffffffffffffffff16815260200190815260200160002060009054906101000a900460ff16905092915050565b6110d86114ee565b73ffffffffffffffffffffffffffffffffffffffff166110f6610ec8565b73ffffffffffffffffffffffffffffffffffffffff161461114c576040517f08c379a000000000000000000000000000000000000000000000000000000000815260040161114390613005565b60405180910390fd5b600073ffffffffffffffffffffffffffffffffffffffff168173ffffffffffffffffffffffffffffffffffffffff16036111bb576040517f08c379a00000000000000000000000000000000000000000000000000000000081526004016111b29061349c565b60405180910390fd5b6111c4816118f3565b50565b600073ffffffffffffffffffffffffffffffffffffffff168273ffffffffffffffffffffffffffffffffffffffff1603611236576040517f08c379a000000000000000000000000000000000000000000000000000000000815260040161122d90613508565b60405180910390fd5b61123f81611482565b1561127f576040517f08c379a000000000000000000000000000000000000000000000000000000000815260040161127690613574565b60405180910390fd5b61128b60008383611ce1565b6001600360008473ffffffffffffffffffffffffffffffffffffffff1673ffffffffffffffffffffffffffffffffffffffff16815260200190815260200160002060008282546112db91906129ea565b92505081905550816002600083815260200190815260200160002060006101000a81548173ffffffffffffffffffffffffffffffffffffffff021916908373ffffffffffffffffffffffffffffffffffffffff160217905550808273ffffffffffffffffffffffffffffffffffffffff16600073ffffffffffffffffffffffffffffffffffffffff167fddf252ad1be2c89b69c2b068fc378daa952ba7f163c4a11628f55a4df523b3ef60405160405180910390a461139c60008383611df3565b5050565b60007f80ac58cd000000000000000000000000000000000000000000000000000000007bffffffffffffffffffffffffffffffffffffffffffffffffffffffff1916827bffffffffffffffffffffffffffffffffffffffffffffffffffffffff1916148061146b57507f5b5e139f000000000000000000000000000000000000000000000000000000007bffffffffffffffffffffffffffffffffffffffffffffffffffffffff1916827bffffffffffffffffffffffffffffffffffffffffffffffffffffffff1916145b8061147b575061147a82611df8565b5b9050919050565b60008073ffffffffffffffffffffffffffffffffffffffff166002600084815260200190815260200160002060009054906101000a900473ffffffffffffffffffffffffffffffffffffffff1673ffffffffffffffffffffffffffffffffffffffff1614159050919050565b600033905090565b816004600083815260200190815260200160002060006101000a81548173ffffffffffffffffffffffffffffffffffffffff021916908373ffffffffffffffffffffffffffffffffffffffff160217905550808273ffffffffffffffffffffffffffffffffffffffff1661156983610c43565b73ffffffffffffffffffffffffffffffffffffffff167f8c5be1e5ebec7d5bd14f71427d1e84f3dd0314c0f7b2291e5b200ac8c7c3b92560405160405180910390a45050565b60006115ba82611482565b6115f9576040517f08c379a00000000000000000000000000000000000000000000000000000000081526004016115f090613606565b60405180910390fd5b600061160483610c43565b90508073ffffffffffffffffffffffffffffffffffffffff168473ffffffffffffffffffffffffffffffffffffffff1614806116465750611645818561103c565b5b8061168457508373ffffffffffffffffffffffffffffffffffffffff1661166c84610876565b73ffffffffffffffffffffffffffffffffffffffff16145b91505092915050565b8273ffffffffffffffffffffffffffffffffffffffff166116ad82610c43565b73ffffffffffffffffffffffffffffffffffffffff1614611703576040517f08c379a00000000000000000000000000000000000000000000000000000000081526004016116fa90613698565b60405180910390fd5b600073ffffffffffffffffffffffffffffffffffffffff168273ffffffffffffffffffffffffffffffffffffffff1603611772576040517f08c379a00000000000000000000000000000000000000000000000000000000081526004016117699061372a565b60405180910390fd5b61177d838383611ce1565b6117886000826114f6565b6001600360008573ffffffffffffffffffffffffffffffffffffffff1673ffffffffffffffffffffffffffffffffffffffff16815260200190815260200160002060008282546117d8919061374a565b925050819055506001600360008473ffffffffffffffffffffffffffffffffffffffff1673ffffffffffffffffffffffffffffffffffffffff168152602001908152602001600020600082825461182f91906129ea565b92505081905550816002600083815260200190815260200160002060006101000a81548173ffffffffffffffffffffffffffffffffffffffff021916908373ffffffffffffffffffffffffffffffffffffffff160217905550808273ffffffffffffffffffffffffffffffffffffffff168473ffffffffffffffffffffffffffffffffffffffff167fddf252ad1be2c89b69c2b068fc378daa952ba7f163c4a11628f55a4df523b3ef60405160405180910390a46118ee838383611df3565b505050565b6000600a60009054906101000a900473ffffffffffffffffffffffffffffffffffffffff16905081600a60006101000a81548173ffffffffffffffffffffffffffffffffffffffff021916908373ffffffffffffffffffffffffffffffffffffffff1602179055508173ffffffffffffffffffffffffffffffffffffffff168173ffffffffffffffffffffffffffffffffffffffff167f8be0079c531659141344cd1fd0a4f28419497f9722a3daafe3b4186f6b6457e060405160405180910390a35050565b8173ffffffffffffffffffffffffffffffffffffffff168373ffffffffffffffffffffffffffffffffffffffff1603611a27576040517f08c379a0000000000000000000000000000000000000000000000000000000008152600401611a1e906137ca565b60405180910390fd5b80600560008573ffffffffffffffffffffffffffffffffffffffff1673ffffffffffffffffffffffffffffffffffffffff16815260200190815260200160002060008473ffffffffffffffffffffffffffffffffffffffff1673ffffffffffffffffffffffffffffffffffffffff16815260200190815260200160002060006101000a81548160ff0219169083151502179055508173ffffffffffffffffffffffffffffffffffffffff168373ffffffffffffffffffffffffffffffffffffffff167f17307eab39ab6107e8899845ad3d59bd9653f200f220920489ca2b5937696c3183604051611b189190612456565b60405180910390a3505050565b611b3084848461168d565b611b3c84848484611e62565b611b7b576040517f08c379a0000000000000000000000000000000000000000000000000000000008152600401611b729061385c565b60405180910390fd5b50505050565b606060008203611bc8576040518060400160405280600181526020017f30000000000000000000000000000000000000000000000000000000000000008152509050611cdc565b600082905060005b60008214611bfa578080611be39061387c565b915050600a82611bf391906138f3565b9150611bd0565b60008167ffffffffffffffff811115611c1657611c15612677565b5b6040519080825280601f01601f191660200182016040528015611c485781602001600182028036833780820191505090505b5090505b60008514611cd557600182611c61919061374a565b9150600a85611c709190613924565b6030611c7c91906129ea565b60f81b818381518110611c9257611c91612e66565b5b60200101907effffffffffffffffffffffffffffffffffffffffffffffffffffffffffffff1916908160001a905350600a85611cce91906138f3565b9450611c4c565b8093505050505b919050565b611cec838383611fe9565b600073ffffffffffffffffffffffffffffffffffffffff168373ffffffffffffffffffffffffffffffffffffffff1603611d2e57611d2981611fee565b611d6d565b8173ffffffffffffffffffffffffffffffffffffffff168373ffffffffffffffffffffffffffffffffffffffff1614611d6c57611d6b8382612037565b5b5b600073ffffffffffffffffffffffffffffffffffffffff168273ffffffffffffffffffffffffffffffffffffffff1603611daf57611daa816121a4565b611dee565b8273ffffffffffffffffffffffffffffffffffffffff168273ffffffffffffffffffffffffffffffffffffffff1614611ded57611dec8282612275565b5b5b505050565b505050565b60007f01ffc9a7000000000000000000000000000000000000000000000000000000007bffffffffffffffffffffffffffffffffffffffffffffffffffffffff1916827bffffffffffffffffffffffffffffffffffffffffffffffffffffffff1916149050919050565b6000611e838473ffffffffffffffffffffffffffffffffffffffff166122f4565b15611fdc578373ffffffffffffffffffffffffffffffffffffffff1663150b7a02611eac6114ee565b8786866040518563ffffffff1660e01b8152600401611ece94939291906139aa565b6020604051808303816000875af1925050508015611f0a57506040513d601f19601f82011682018060405250810190611f079190613a0b565b60015b611f8c573d8060008114611f3a576040519150601f19603f3d011682016040523d82523d6000602084013e611f3f565b606091505b506000815103611f84576040517f08c379a0000000000000000000000000000000000000000000000000000000008152600401611f7b9061385c565b60405180910390fd5b805181602001fd5b63150b7a0260e01b7bffffffffffffffffffffffffffffffffffffffffffffffffffffffff1916817bffffffffffffffffffffffffffffffffffffffffffffffffffffffff191614915050611fe1565b600190505b949350505050565b505050565b6008805490506009600083815260200190815260200160002081905550600881908060018154018082558091505060019003906000526020600020016000909190919091505550565b6000600161204484610cfa565b61204e919061374a565b9050600060076000848152602001908152602001600020549050818114612133576000600660008673ffffffffffffffffffffffffffffffffffffffff1673ffffffffffffffffffffffffffffffffffffffff168152602001908152602001600020600084815260200190815260200160002054905080600660008773ffffffffffffffffffffffffffffffffffffffff1673ffffffffffffffffffffffffffffffffffffffff168152602001908152602001600020600084815260200190815260200160002081905550816007600083815260200190815260200160002081905550505b6007600084815260200190815260200160002060009055600660008573ffffffffffffffffffffffffffffffffffffffff1673ffffffffffffffffffffffffffffffffffffffff16815260200190815260200160002060008381526020019081526020016000206000905550505050565b600060016008805490506121b8919061374a565b90506000600960008481526020019081526020016000205490506000600883815481106121e8576121e7612e66565b5b90600052602060002001549050806008838154811061220a57612209612e66565b5b90600052602060002001819055508160096000838152602001908152602001600020819055506009600085815260200190815260200160002060009055600880548061225957612258613a38565b5b6001900381819060005260206000200160009055905550505050565b600061228083610cfa565b905081600660008573ffffffffffffffffffffffffffffffffffffffff1673ffffffffffffffffffffffffffffffffffffffff168152602001908152602001600020600083815260200190815260200160002081905550806007600084815260200190815260200160002081905550505050565b6000808273ffffffffffffffffffffffffffffffffffffffff163b119050919050565b6000604051905090565b600080fd5b600080fd5b600073ffffffffffffffffffffffffffffffffffffffff82169050919050565b60006123568261232b565b9050919050565b6123668161234b565b811461237157600080fd5b50565b6000813590506123838161235d565b92915050565b60006020828403121561239f5761239e612321565b5b60006123ad84828501612374565b91505092915050565b60007fffffffff0000000000000000000000000000000000000000000000000000000082169050919050565b6123eb816123b6565b81146123f657600080fd5b50565b600081359050612408816123e2565b92915050565b60006020828403121561242457612423612321565b5b6000612432848285016123f9565b91505092915050565b60008115159050919050565b6124508161243b565b82525050565b600060208201905061246b6000830184612447565b92915050565b600081519050919050565b600082825260208201905092915050565b60005b838110156124ab578082015181840152602081019050612490565b60008484015250505050565b6000601f19601f8301169050919050565b60006124d382612471565b6124dd818561247c565b93506124ed81856020860161248d565b6124f6816124b7565b840191505092915050565b6000602082019050818103600083015261251b81846124c8565b905092915050565b6000819050919050565b61253681612523565b811461254157600080fd5b50565b6000813590506125538161252d565b92915050565b60006020828403121561256f5761256e612321565b5b600061257d84828501612544565b91505092915050565b61258f8161234b565b82525050565b60006020820190506125aa6000830184612586565b92915050565b600080604083850312156125c7576125c6612321565b5b60006125d585828601612374565b92505060206125e685828601612544565b9150509250929050565b6125f981612523565b82525050565b600060208201905061261460008301846125f0565b92915050565b60008060006060848603121561263357612632612321565b5b600061264186828701612374565b935050602061265286828701612374565b925050604061266386828701612544565b9150509250925092565b600080fd5b600080fd5b7f4e487b7100000000000000000000000000000000000000000000000000000000600052604160045260246000fd5b6126af826124b7565b810181811067ffffffffffffffff821117156126ce576126cd612677565b5b80604052505050565b60006126e1612317565b90506126ed82826126a6565b919050565b600067ffffffffffffffff82111561270d5761270c612677565b5b612716826124b7565b9050602081019050919050565b82818337600083830152505050565b6000612745612740846126f2565b6126d7565b90508281526020810184848401111561276157612760612672565b5b61276c848285612723565b509392505050565b600082601f8301126127895761278861266d565b5b8135612799848260208601612732565b91505092915050565b6000602082840312156127b8576127b7612321565b5b600082013567ffffffffffffffff8111156127d6576127d5612326565b5b6127e284828501612774565b91505092915050565b6127f48161243b565b81146127ff57600080fd5b50565b600081359050612811816127eb565b92915050565b6000806040838503121561282e5761282d612321565b5b600061283c85828601612374565b925050602061284d85828601612802565b9150509250929050565b600067ffffffffffffffff82111561287257612871612677565b5b61287b826124b7565b9050602081019050919050565b600061289b61289684612857565b6126d7565b9050828152602081018484840111156128b7576128b6612672565b5b6128c2848285612723565b509392505050565b600082601f8301126128df576128de61266d565b5b81356128ef848260208601612888565b91505092915050565b6000806000806080858703121561291257612911612321565b5b600061292087828801612374565b945050602061293187828801612374565b935050604061294287828801612544565b925050606085013567ffffffffffffffff81111561296357612962612326565b5b61296f878288016128ca565b91505092959194509250565b6000806040838503121561299257612991612321565b5b60006129a085828601612374565b92505060206129b185828601612374565b9150509250929050565b7f4e487b7100000000000000000000000000000000000000000000000000000000600052601160045260246000fd5b60006129f582612523565b9150612a0083612523565b9250828201905080821115612a1857612a176129bb565b5b92915050565b6000819050919050565b6000819050919050565b6000612a4d612a48612a4384612a1e565b612a28565b612523565b9050919050565b612a5d81612a32565b82525050565b6000606082019050612a786000830186612a54565b612a856020830185612586565b612a926040830184612586565b949350505050565b7f4e487b7100000000000000000000000000000000000000000000000000000000600052602260045260246000fd5b60006002820490506001821680612ae157607f821691505b602082108103612af457612af3612a9a565b5b50919050565b7f4552433732313a20617070726f76656420717565727920666f72206e6f6e657860008201527f697374656e7420746f6b656e0000000000000000000000000000000000000000602082015250565b6000612b56602c8361247c565b9150612b6182612afa565b604082019050919050565b60006020820190508181036000830152612b8581612b49565b9050919050565b7f4552433732313a20617070726f76616c20746f2063757272656e74206f776e6560008201527f7200000000000000000000000000000000000000000000000000000000000000602082015250565b6000612be860218361247c565b9150612bf382612b8c565b604082019050919050565b60006020820190508181036000830152612c1781612bdb565b9050919050565b7f4552433732313a20617070726f76652063616c6c6572206973206e6f74206f7760008201527f6e6572206e6f7220617070726f76656420666f7220616c6c0000000000000000602082015250565b6000612c7a60388361247c565b9150612c8582612c1e565b604082019050919050565b60006020820190508181036000830152612ca981612c6d565b9050919050565b7f4552433732313a207472616e736665722063616c6c6572206973206e6f74206f60008201527f776e6572206e6f7220617070726f766564000000000000000000000000000000602082015250565b6000612d0c60318361247c565b9150612d1782612cb0565b604082019050919050565b60006020820190508181036000830152612d3b81612cff565b9050919050565b7f455243373231456e756d657261626c653a206f776e657220696e646578206f7560008201527f74206f6620626f756e6473000000000000000000000000000000000000000000602082015250565b6000612d9e602b8361247c565b9150612da982612d42565b604082019050919050565b60006020820190508181036000830152612dcd81612d91565b9050919050565b7f455243373231456e756d657261626c653a20676c6f62616c20696e646578206f60008201527f7574206f6620626f756e64730000000000000000000000000000000000000000602082015250565b6000612e30602c8361247c565b9150612e3b82612dd4565b604082019050919050565b60006020820190508181036000830152612e5f81612e23565b9050919050565b7f4e487b7100000000000000000000000000000000000000000000000000000000600052603260045260246000fd5b7f4552433732313a206f776e657220717565727920666f72206e6f6e657869737460008201527f656e7420746f6b656e0000000000000000000000000000000000000000000000602082015250565b6000612ef160298361247c565b9150612efc82612e95565b604082019050919050565b60006020820190508181036000830152612f2081612ee4565b9050919050565b7f4552433732313a2062616c616e636520717565727920666f7220746865207a6560008201527f726f206164647265737300000000000000000000000000000000000000000000602082015250565b6000612f83602a8361247c565b9150612f8e82612f27565b604082019050919050565b60006020820190508181036000830152612fb281612f76565b9050919050565b7f4f776e61626c653a2063616c6c6572206973206e6f7420746865206f776e6572600082015250565b6000612fef60208361247c565b9150612ffa82612fb9565b602082019050919050565b6000602082019050818103600083015261301e81612fe2565b9050919050565b60008190508160005260206000209050919050565b60006020601f8301049050919050565b600082821b905092915050565b6000600883026130877fffffffffffffffffffffffffffffffffffffffffffffffffffffffffffffffff8261304a565b613091868361304a565b95508019841693508086168417925050509392505050565b60006130c46130bf6130ba84612523565b612a28565b612523565b9050919050565b6000819050919050565b6130de836130a9565b6130f26130ea826130cb565b848454613057565b825550505050565b600090565b6131076130fa565b6131128184846130d5565b505050565b5b818110156131365761312b6000826130ff565b600181019050613118565b5050565b601f82111561317b5761314c81613025565b6131558461303a565b81016020851015613164578190505b6131786131708561303a565b830182613117565b50505b505050565b600082821c905092915050565b600061319e60001984600802613180565b1980831691505092915050565b60006131b7838361318d565b9150826002028217905092915050565b6131d082612471565b67ffffffffffffffff8111156131e9576131e8612677565b5b6131f38254612ac9565b6131fe82828561313a565b600060209050601f831160018114613231576000841561321f578287015190505b61322985826131ab565b865550613291565b601f19841661323f86613025565b60005b8281101561326757848901518255600182019150602085019450602081019050613242565b868310156132845784890151613280601f89168261318d565b8355505b6001600288020188555050505b505050505050565b600081905092915050565b600081546132b181612ac9565b6132bb8186613299565b945060018216600081146132d657600181146132eb5761331e565b60ff198316865281151582028601935061331e565b6132f485613025565b60005b83811015613316578154818901526001820191506020810190506132f7565b838801955050505b50505092915050565b7f2f00000000000000000000000000000000000000000000000000000000000000600082015250565b600061335d600183613299565b915061336882613327565b600182019050919050565b600061337e82612471565b6133888185613299565b935061339881856020860161248d565b80840191505092915050565b7f2e6a736f6e000000000000000000000000000000000000000000000000000000600082015250565b60006133da600583613299565b91506133e5826133a4565b600582019050919050565b60006133fc82856132a4565b915061340782613350565b91506134138284613373565b915061341e826133cd565b91508190509392505050565b7f4f776e61626c653a206e6577206f776e657220697320746865207a65726f206160008201527f6464726573730000000000000000000000000000000000000000000000000000602082015250565b600061348660268361247c565b91506134918261342a565b604082019050919050565b600060208201905081810360008301526134b581613479565b9050919050565b7f4552433732313a206d696e7420746f20746865207a65726f2061646472657373600082015250565b60006134f260208361247c565b91506134fd826134bc565b602082019050919050565b60006020820190508181036000830152613521816134e5565b9050919050565b7f4552433732313a20746f6b656e20616c7265616479206d696e74656400000000600082015250565b600061355e601c8361247c565b915061356982613528565b602082019050919050565b6000602082019050818103600083015261358d81613551565b9050919050565b7f4552433732313a206f70657261746f7220717565727920666f72206e6f6e657860008201527f697374656e7420746f6b656e0000000000000000000000000000000000000000602082015250565b60006135f0602c8361247c565b91506135fb82613594565b604082019050919050565b6000602082019050818103600083015261361f816135e3565b9050919050565b7f4552433732313a207472616e736665722066726f6d20696e636f72726563742060008201527f6f776e6572000000000000000000000000000000000000000000000000000000602082015250565b600061368260258361247c565b915061368d82613626565b604082019050919050565b600060208201905081810360008301526136b181613675565b9050919050565b7f4552433732313a207472616e7366657220746f20746865207a65726f2061646460008201527f7265737300000000000000000000000000000000000000000000000000000000602082015250565b600061371460248361247c565b915061371f826136b8565b604082019050919050565b6000602082019050818103600083015261374381613707565b9050919050565b600061375582612523565b915061376083612523565b9250828203905081811115613778576137776129bb565b5b92915050565b7f4552433732313a20617070726f766520746f2063616c6c657200000000000000600082015250565b60006137b460198361247c565b91506137bf8261377e565b602082019050919050565b600060208201905081810360008301526137e3816137a7565b9050919050565b7f4552433732313a207472616e7366657220746f206e6f6e20455243373231526560008201527f63656976657220696d706c656d656e7465720000000000000000000000000000602082015250565b600061384660328361247c565b9150613851826137ea565b604082019050919050565b6000602082019050818103600083015261387581613839565b9050919050565b600061388782612523565b91507fffffffffffffffffffffffffffffffffffffffffffffffffffffffffffffffff82036138b9576138b86129bb565b5b600182019050919050565b7f4e487b7100000000000000000000000000000000000000000000000000000000600052601260045260246000fd5b60006138fe82612523565b915061390983612523565b925082613919576139186138c4565b5b828204905092915050565b600061392f82612523565b915061393a83612523565b92508261394a576139496138c4565b5b828206905092915050565b600081519050919050565b600082825260208201905092915050565b600061397c82613955565b6139868185613960565b935061399681856020860161248d565b61399f816124b7565b840191505092915050565b60006080820190506139bf6000830187612586565b6139cc6020830186612586565b6139d960408301856125f0565b81810360608301526139eb8184613971565b905095945050505050565b600081519050613a05816123e2565b92915050565b600060208284031215613a2157613a20612321565b5b6000613a2f848285016139f6565b91505092915050565b7f4e487b7100000000000000000000000000000000000000000000000000000000600052603160045260246000fdfea264697066735822122036daf0a2a13e21dd61d06a4186146747f018e4b2b2a5cf88d879eca9db44d1a764736f6c63430008110033",
  "immutableReferences": {},
  "source": "// SPDX-License-Identifier:MIT\r\npragma solidity ^0.8.17;\r\n\r\nimport \"../node_modules/openzeppelin-solidity/contracts/token/ERC721/extensions/ERC721Enumerable.sol\";\r\n\r\nimport \"../node_modules/openzeppelin-solidity/contracts/access/Ownable.sol\";\r\n\r\nimport \"../node_modules/openzeppelin-solidity/contracts/utils/Strings.sol\";\r\n\r\ncontract EggToken is ERC721Enumerable, Ownable {\r\n    string public a;\r\n    //  \r\n    uint constant public MAX_TOKEN_COUNT = 500;\r\n\r\n    //       \r\n    uint public mintPrice = 10 wei;\r\n\r\n    // json metadata URI\r\n    string public metadataURI;\r\n\r\n    // minting  \r\n\r\n    event Minted(uint price, address from, address to);\r\n\r\n    //  \r\n    constructor(string memory _name, string memory _symbol, string memory _metadataURI) ERC721 (_name, _symbol) {\r\n        metadataURI = _metadataURI;\r\n    }\r\n\r\n    function mintToken(address _saleContractCA) public payable {\r\n        // mintPrice     \r\n        require(msg.value >= mintPrice);\r\n\r\n        //      .\r\n        require(MAX_TOKEN_COUNT > totalSupply());\r\n\r\n        uint tokenId = totalSupply() + 1;\r\n\r\n        // CA   .\r\n        payable(Ownable.owner()).transfer(msg.value);\r\n\r\n        //   () NTF \r\n        _mint(msg.sender, tokenId);\r\n\r\n        setApprovalForAll(_saleContractCA, true);\r\n\r\n        emit Minted(0, address(0), msg.sender);\r\n    }\r\n\r\n    function tokenURI(uint _tokenId) public override view returns (string memory) {\r\n\r\n        string memory tokenIdStr = Strings.toString(_tokenId);\r\n        return string(abi.encodePacked(metadataURI, \"/\", tokenIdStr,\".json\"));\r\n    }\r\n\r\n    function setMetadataURI(string memory _uri) public onlyOwner {\r\n        metadataURI = _uri;\r\n    }\r\n}",
  "sourcePath": "C:\\Users\\KGA_029\\Desktop\\projects\\EGG-NFT-STORE\\back\\contracts\\EggToken.sol",
  "compiler": {
    "name": "solc",
    "version": "0.8.17+commit.8df45f5f.Emscripten.clang"
  },
  "schemaVersion": "3.4.11",
  "updatedAt": "2022-12-22T06:02:53.523Z",
  "networkType": "ethereum",
  "devdoc": {
    "kind": "dev",
    "methods": {
      "approve(address,uint256)": {
        "details": "See {IERC721-approve}."
      },
      "balanceOf(address)": {
        "details": "See {IERC721-balanceOf}."
      },
      "getApproved(uint256)": {
        "details": "See {IERC721-getApproved}."
      },
      "isApprovedForAll(address,address)": {
        "details": "See {IERC721-isApprovedForAll}."
      },
      "name()": {
        "details": "See {IERC721Metadata-name}."
      },
      "owner()": {
        "details": "Returns the address of the current owner."
      },
      "ownerOf(uint256)": {
        "details": "See {IERC721-ownerOf}."
      },
      "renounceOwnership()": {
        "details": "Leaves the contract without owner. It will not be possible to call `onlyOwner` functions anymore. Can only be called by the current owner. NOTE: Renouncing ownership will leave the contract without an owner, thereby removing any functionality that is only available to the owner."
      },
      "safeTransferFrom(address,address,uint256)": {
        "details": "See {IERC721-safeTransferFrom}."
      },
      "safeTransferFrom(address,address,uint256,bytes)": {
        "details": "See {IERC721-safeTransferFrom}."
      },
      "setApprovalForAll(address,bool)": {
        "details": "See {IERC721-setApprovalForAll}."
      },
      "supportsInterface(bytes4)": {
        "details": "See {IERC165-supportsInterface}."
      },
      "symbol()": {
        "details": "See {IERC721Metadata-symbol}."
      },
      "tokenByIndex(uint256)": {
        "details": "See {IERC721Enumerable-tokenByIndex}."
      },
      "tokenOfOwnerByIndex(address,uint256)": {
        "details": "See {IERC721Enumerable-tokenOfOwnerByIndex}."
      },
      "totalSupply()": {
        "details": "See {IERC721Enumerable-totalSupply}."
      },
      "transferFrom(address,address,uint256)": {
        "details": "See {IERC721-transferFrom}."
      },
      "transferOwnership(address)": {
        "details": "Transfers ownership of the contract to a new account (`newOwner`). Can only be called by the current owner."
      }
    },
    "version": 1
  },
  "userdoc": {
    "kind": "user",
    "methods": {},
    "version": 1
  }
}