{
  "contractName": "EggToken",
  "abi": [
    {
      "inputs": [
        {
          "internalType": "string",
          "name": "_name",
          "type": "string"
        },
        {
          "internalType": "string",
          "name": "_symbol",
          "type": "string"
        },
        {
          "internalType": "string",
          "name": "_metadataURI",
          "type": "string"
        }
      ],
      "stateMutability": "nonpayable",
      "type": "constructor"
    },
    {
      "anonymous": false,
      "inputs": [
        {
          "indexed": true,
          "internalType": "address",
          "name": "owner",
          "type": "address"
        },
        {
          "indexed": true,
          "internalType": "address",
          "name": "approved",
          "type": "address"
        },
        {
          "indexed": true,
          "internalType": "uint256",
          "name": "tokenId",
          "type": "uint256"
        }
      ],
      "name": "Approval",
      "type": "event"
    },
    {
      "anonymous": false,
      "inputs": [
        {
          "indexed": true,
          "internalType": "address",
          "name": "owner",
          "type": "address"
        },
        {
          "indexed": true,
          "internalType": "address",
          "name": "operator",
          "type": "address"
        },
        {
          "indexed": false,
          "internalType": "bool",
          "name": "approved",
          "type": "bool"
        }
      ],
      "name": "ApprovalForAll",
      "type": "event"
    },
    {
      "anonymous": false,
      "inputs": [
        {
          "indexed": false,
          "internalType": "uint256",
          "name": "tokenId",
          "type": "uint256"
        },
        {
          "indexed": false,
          "internalType": "string",
          "name": "state",
          "type": "string"
        },
        {
          "indexed": false,
          "internalType": "uint256",
          "name": "price",
          "type": "uint256"
        },
        {
          "indexed": false,
          "internalType": "address",
          "name": "from",
          "type": "address"
        },
        {
          "indexed": false,
          "internalType": "address",
          "name": "to",
          "type": "address"
        }
      ],
      "name": "Minting",
      "type": "event"
    },
    {
      "anonymous": false,
      "inputs": [
        {
          "indexed": true,
          "internalType": "address",
          "name": "previousOwner",
          "type": "address"
        },
        {
          "indexed": true,
          "internalType": "address",
          "name": "newOwner",
          "type": "address"
        }
      ],
      "name": "OwnershipTransferred",
      "type": "event"
    },
    {
      "anonymous": false,
      "inputs": [
        {
          "indexed": true,
          "internalType": "address",
          "name": "from",
          "type": "address"
        },
        {
          "indexed": true,
          "internalType": "address",
          "name": "to",
          "type": "address"
        },
        {
          "indexed": true,
          "internalType": "uint256",
          "name": "tokenId",
          "type": "uint256"
        }
      ],
      "name": "Transfer",
      "type": "event"
    },
    {
      "inputs": [],
      "name": "MAX_TOKEN_COUNT",
      "outputs": [
        {
          "internalType": "uint256",
          "name": "",
          "type": "uint256"
        }
      ],
      "stateMutability": "view",
      "type": "function"
    },
    {
      "inputs": [],
      "name": "a",
      "outputs": [
        {
          "internalType": "string",
          "name": "",
          "type": "string"
        }
      ],
      "stateMutability": "view",
      "type": "function"
    },
    {
      "inputs": [
        {
          "internalType": "address",
          "name": "to",
          "type": "address"
        },
        {
          "internalType": "uint256",
          "name": "tokenId",
          "type": "uint256"
        }
      ],
      "name": "approve",
      "outputs": [],
      "stateMutability": "nonpayable",
      "type": "function"
    },
    {
      "inputs": [
        {
          "internalType": "address",
          "name": "owner",
          "type": "address"
        }
      ],
      "name": "balanceOf",
      "outputs": [
        {
          "internalType": "uint256",
          "name": "",
          "type": "uint256"
        }
      ],
      "stateMutability": "view",
      "type": "function"
    },
    {
      "inputs": [
        {
          "internalType": "uint256",
          "name": "tokenId",
          "type": "uint256"
        }
      ],
      "name": "getApproved",
      "outputs": [
        {
          "internalType": "address",
          "name": "",
          "type": "address"
        }
      ],
      "stateMutability": "view",
      "type": "function"
    },
    {
      "inputs": [
        {
          "internalType": "address",
          "name": "owner",
          "type": "address"
        },
        {
          "internalType": "address",
          "name": "operator",
          "type": "address"
        }
      ],
      "name": "isApprovedForAll",
      "outputs": [
        {
          "internalType": "bool",
          "name": "",
          "type": "bool"
        }
      ],
      "stateMutability": "view",
      "type": "function"
    },
    {
      "inputs": [],
      "name": "metadataURI",
      "outputs": [
        {
          "internalType": "string",
          "name": "",
          "type": "string"
        }
      ],
      "stateMutability": "view",
      "type": "function"
    },
    {
      "inputs": [],
      "name": "mintPrice",
      "outputs": [
        {
          "internalType": "uint256",
          "name": "",
          "type": "uint256"
        }
      ],
      "stateMutability": "view",
      "type": "function"
    },
    {
      "inputs": [],
      "name": "name",
      "outputs": [
        {
          "internalType": "string",
          "name": "",
          "type": "string"
        }
      ],
      "stateMutability": "view",
      "type": "function"
    },
    {
      "inputs": [],
      "name": "owner",
      "outputs": [
        {
          "internalType": "address",
          "name": "",
          "type": "address"
        }
      ],
      "stateMutability": "view",
      "type": "function"
    },
    {
      "inputs": [
        {
          "internalType": "uint256",
          "name": "tokenId",
          "type": "uint256"
        }
      ],
      "name": "ownerOf",
      "outputs": [
        {
          "internalType": "address",
          "name": "",
          "type": "address"
        }
      ],
      "stateMutability": "view",
      "type": "function"
    },
    {
      "inputs": [],
      "name": "renounceOwnership",
      "outputs": [],
      "stateMutability": "nonpayable",
      "type": "function"
    },
    {
      "inputs": [
        {
          "internalType": "address",
          "name": "from",
          "type": "address"
        },
        {
          "internalType": "address",
          "name": "to",
          "type": "address"
        },
        {
          "internalType": "uint256",
          "name": "tokenId",
          "type": "uint256"
        }
      ],
      "name": "safeTransferFrom",
      "outputs": [],
      "stateMutability": "nonpayable",
      "type": "function"
    },
    {
      "inputs": [
        {
          "internalType": "address",
          "name": "from",
          "type": "address"
        },
        {
          "internalType": "address",
          "name": "to",
          "type": "address"
        },
        {
          "internalType": "uint256",
          "name": "tokenId",
          "type": "uint256"
        },
        {
          "internalType": "bytes",
          "name": "_data",
          "type": "bytes"
        }
      ],
      "name": "safeTransferFrom",
      "outputs": [],
      "stateMutability": "nonpayable",
      "type": "function"
    },
    {
      "inputs": [
        {
          "internalType": "address",
          "name": "operator",
          "type": "address"
        },
        {
          "internalType": "bool",
          "name": "approved",
          "type": "bool"
        }
      ],
      "name": "setApprovalForAll",
      "outputs": [],
      "stateMutability": "nonpayable",
      "type": "function"
    },
    {
      "inputs": [
        {
          "internalType": "bytes4",
          "name": "interfaceId",
          "type": "bytes4"
        }
      ],
      "name": "supportsInterface",
      "outputs": [
        {
          "internalType": "bool",
          "name": "",
          "type": "bool"
        }
      ],
      "stateMutability": "view",
      "type": "function"
    },
    {
      "inputs": [],
      "name": "symbol",
      "outputs": [
        {
          "internalType": "string",
          "name": "",
          "type": "string"
        }
      ],
      "stateMutability": "view",
      "type": "function"
    },
    {
      "inputs": [
        {
          "internalType": "uint256",
          "name": "index",
          "type": "uint256"
        }
      ],
      "name": "tokenByIndex",
      "outputs": [
        {
          "internalType": "uint256",
          "name": "",
          "type": "uint256"
        }
      ],
      "stateMutability": "view",
      "type": "function"
    },
    {
      "inputs": [
        {
          "internalType": "address",
          "name": "owner",
          "type": "address"
        },
        {
          "internalType": "uint256",
          "name": "index",
          "type": "uint256"
        }
      ],
      "name": "tokenOfOwnerByIndex",
      "outputs": [
        {
          "internalType": "uint256",
          "name": "",
          "type": "uint256"
        }
      ],
      "stateMutability": "view",
      "type": "function"
    },
    {
      "inputs": [],
      "name": "totalSupply",
      "outputs": [
        {
          "internalType": "uint256",
          "name": "",
          "type": "uint256"
        }
      ],
      "stateMutability": "view",
      "type": "function"
    },
    {
      "inputs": [
        {
          "internalType": "address",
          "name": "from",
          "type": "address"
        },
        {
          "internalType": "address",
          "name": "to",
          "type": "address"
        },
        {
          "internalType": "uint256",
          "name": "tokenId",
          "type": "uint256"
        }
      ],
      "name": "transferFrom",
      "outputs": [],
      "stateMutability": "nonpayable",
      "type": "function"
    },
    {
      "inputs": [
        {
          "internalType": "address",
          "name": "newOwner",
          "type": "address"
        }
      ],
      "name": "transferOwnership",
      "outputs": [],
      "stateMutability": "nonpayable",
      "type": "function"
    },
    {
      "inputs": [
        {
          "internalType": "address",
          "name": "_saleContractCA",
          "type": "address"
        }
      ],
      "name": "mintToken",
      "outputs": [],
      "stateMutability": "payable",
      "type": "function"
    },
    {
      "inputs": [
        {
          "internalType": "uint256",
          "name": "_tokenId",
          "type": "uint256"
        }
      ],
      "name": "tokenURI",
      "outputs": [
        {
          "internalType": "string",
          "name": "",
          "type": "string"
        }
      ],
      "stateMutability": "view",
      "type": "function"
    },
    {
      "inputs": [
        {
          "internalType": "string",
          "name": "_uri",
          "type": "string"
        }
      ],
      "name": "setMetadataURI",
      "outputs": [],
      "stateMutability": "nonpayable",
      "type": "function"
    }
  ],
  "bytecode": "0x6080604052600a600c553480156200001657600080fd5b50604051620042073803806200420783398181016040528101906200003c919062000300565b828281600090816200004f919062000604565b50806001908162000061919062000604565b50505062000084620000786200009f60201b60201c565b620000a760201b60201c565b80600d908162000095919062000604565b50505050620006eb565b600033905090565b6000600a60009054906101000a900473ffffffffffffffffffffffffffffffffffffffff16905081600a60006101000a81548173ffffffffffffffffffffffffffffffffffffffff021916908373ffffffffffffffffffffffffffffffffffffffff1602179055508173ffffffffffffffffffffffffffffffffffffffff168173ffffffffffffffffffffffffffffffffffffffff167f8be0079c531659141344cd1fd0a4f28419497f9722a3daafe3b4186f6b6457e060405160405180910390a35050565b6000604051905090565b600080fd5b600080fd5b600080fd5b600080fd5b6000601f19601f8301169050919050565b7f4e487b7100000000000000000000000000000000000000000000000000000000600052604160045260246000fd5b620001d6826200018b565b810181811067ffffffffffffffff82111715620001f857620001f76200019c565b5b80604052505050565b60006200020d6200016d565b90506200021b8282620001cb565b919050565b600067ffffffffffffffff8211156200023e576200023d6200019c565b5b62000249826200018b565b9050602081019050919050565b60005b838110156200027657808201518184015260208101905062000259565b60008484015250505050565b600062000299620002938462000220565b62000201565b905082815260208101848484011115620002b857620002b762000186565b5b620002c584828562000256565b509392505050565b600082601f830112620002e557620002e462000181565b5b8151620002f784826020860162000282565b91505092915050565b6000806000606084860312156200031c576200031b62000177565b5b600084015167ffffffffffffffff8111156200033d576200033c6200017c565b5b6200034b86828701620002cd565b935050602084015167ffffffffffffffff8111156200036f576200036e6200017c565b5b6200037d86828701620002cd565b925050604084015167ffffffffffffffff811115620003a157620003a06200017c565b5b620003af86828701620002cd565b9150509250925092565b600081519050919050565b7f4e487b7100000000000000000000000000000000000000000000000000000000600052602260045260246000fd5b600060028204905060018216806200040c57607f821691505b602082108103620004225762000421620003c4565b5b50919050565b60008190508160005260206000209050919050565b60006020601f8301049050919050565b600082821b905092915050565b6000600883026200048c7fffffffffffffffffffffffffffffffffffffffffffffffffffffffffffffffff826200044d565b6200049886836200044d565b95508019841693508086168417925050509392505050565b6000819050919050565b6000819050919050565b6000620004e5620004df620004d984620004b0565b620004ba565b620004b0565b9050919050565b6000819050919050565b6200050183620004c4565b620005196200051082620004ec565b8484546200045a565b825550505050565b600090565b6200053062000521565b6200053d818484620004f6565b505050565b5b8181101562000565576200055960008262000526565b60018101905062000543565b5050565b601f821115620005b4576200057e8162000428565b62000589846200043d565b8101602085101562000599578190505b620005b1620005a8856200043d565b83018262000542565b50505b505050565b600082821c905092915050565b6000620005d960001984600802620005b9565b1980831691505092915050565b6000620005f48383620005c6565b9150826002028217905092915050565b6200060f82620003b9565b67ffffffffffffffff8111156200062b576200062a6200019c565b5b620006378254620003f3565b6200064482828562000569565b600060209050601f8311600181146200067c576000841562000667578287015190505b620006738582620005e6565b865550620006e3565b601f1984166200068c8662000428565b60005b82811015620006b6578489015182556001820191506020850194506020810190506200068f565b86831015620006d65784890151620006d2601f891682620005c6565b8355505b6001600288020188555050505b505050505050565b613b0c80620006fb6000396000f3fe6080604052600436106101665760003560e01c80636352211e116100d157806395d89b411161008a578063c87b56dd11610064578063c87b56dd1461052f578063d0bbb0d71461056c578063e985e9c514610597578063f2fde38b146105d457610166565b806395d89b41146104b2578063a22cb465146104dd578063b88d4fde1461050657610166565b80636352211e146103a25780636817c76c146103df57806370a082311461040a578063715018a614610447578063750521f51461045e5780638da5cb5b1461048757610166565b80630dbe671f116101235780630dbe671f1461028057806318160ddd146102ab57806323b872dd146102d65780632f745c59146102ff57806342842e0e1461033c5780634f6ccce71461036557610166565b806301173a741461016b57806301ffc9a71461018757806303ee438c146101c457806306fdde03146101ef578063081812fc1461021a578063095ea7b314610257575b600080fd5b6101856004803603810190610180919061238b565b6105fd565b005b34801561019357600080fd5b506101ae60048036038101906101a99190612410565b6106de565b6040516101bb9190612458565b60405180910390f35b3480156101d057600080fd5b506101d9610758565b6040516101e69190612503565b60405180910390f35b3480156101fb57600080fd5b506102046107e6565b6040516102119190612503565b60405180910390f35b34801561022657600080fd5b50610241600480360381019061023c919061255b565b610878565b60405161024e9190612597565b60405180910390f35b34801561026357600080fd5b5061027e600480360381019061027991906125b2565b6108fd565b005b34801561028c57600080fd5b50610295610a14565b6040516102a29190612503565b60405180910390f35b3480156102b757600080fd5b506102c0610aa2565b6040516102cd9190612601565b60405180910390f35b3480156102e257600080fd5b506102fd60048036038101906102f8919061261c565b610aaf565b005b34801561030b57600080fd5b50610326600480360381019061032191906125b2565b610b0f565b6040516103339190612601565b60405180910390f35b34801561034857600080fd5b50610363600480360381019061035e919061261c565b610bb4565b005b34801561037157600080fd5b5061038c6004803603810190610387919061255b565b610bd4565b6040516103999190612601565b60405180910390f35b3480156103ae57600080fd5b506103c960048036038101906103c4919061255b565b610c45565b6040516103d69190612597565b60405180910390f35b3480156103eb57600080fd5b506103f4610cf6565b6040516104019190612601565b60405180910390f35b34801561041657600080fd5b50610431600480360381019061042c919061238b565b610cfc565b60405161043e9190612601565b60405180910390f35b34801561045357600080fd5b5061045c610db3565b005b34801561046a57600080fd5b50610485600480360381019061048091906127a4565b610e3b565b005b34801561049357600080fd5b5061049c610eca565b6040516104a99190612597565b60405180910390f35b3480156104be57600080fd5b506104c7610ef4565b6040516104d49190612503565b60405180910390f35b3480156104e957600080fd5b5061050460048036038101906104ff9190612819565b610f86565b005b34801561051257600080fd5b5061052d600480360381019061052891906128fa565b610f9c565b005b34801561053b57600080fd5b506105566004803603810190610551919061255b565b610ffe565b6040516105639190612503565b60405180910390f35b34801561057857600080fd5b50610581611038565b60405161058e9190612601565b60405180910390f35b3480156105a357600080fd5b506105be60048036038101906105b9919061297d565b61103e565b6040516105cb9190612458565b60405180910390f35b3480156105e057600080fd5b506105fb60048036038101906105f6919061238b565b6110d2565b005b600c5434101561060c57600080fd5b610614610aa2565b6101f41161062157600080fd5b6000600161062d610aa2565b61063791906129ec565b9050610641610eca565b73ffffffffffffffffffffffffffffffffffffffff166108fc349081150290604051600060405180830381858888f19350505050158015610686573d6000803e3d6000fd5b5061069133826111c9565b61069c826001610f86565b7f02a7ba4c53bc7189642c7895c6827a394b701a4763f59bdde50ec993f13089fc81600080336040516106d29493929190612ab1565b60405180910390a15050565b60007f780e9d63000000000000000000000000000000000000000000000000000000007bffffffffffffffffffffffffffffffffffffffffffffffffffffffff1916827bffffffffffffffffffffffffffffffffffffffffffffffffffffffff191614806107515750610750826113a2565b5b9050919050565b600d805461076590612b38565b80601f016020809104026020016040519081016040528092919081815260200182805461079190612b38565b80156107de5780601f106107b3576101008083540402835291602001916107de565b820191906000526020600020905b8154815290600101906020018083116107c157829003601f168201915b505050505081565b6060600080546107f590612b38565b80601f016020809104026020016040519081016040528092919081815260200182805461082190612b38565b801561086e5780601f106108435761010080835404028352916020019161086e565b820191906000526020600020905b81548152906001019060200180831161085157829003601f168201915b5050505050905090565b600061088382611484565b6108c2576040517f08c379a00000000000000000000000000000000000000000000000000000000081526004016108b990612bdb565b60405180910390fd5b6004600083815260200190815260200160002060009054906101000a900473ffffffffffffffffffffffffffffffffffffffff169050919050565b600061090882610c45565b90508073ffffffffffffffffffffffffffffffffffffffff168373ffffffffffffffffffffffffffffffffffffffff1603610978576040517f08c379a000000000000000000000000000000000000000000000000000000000815260040161096f90612c6d565b60405180910390fd5b8073ffffffffffffffffffffffffffffffffffffffff166109976114f0565b73ffffffffffffffffffffffffffffffffffffffff1614806109c657506109c5816109c06114f0565b61103e565b5b610a05576040517f08c379a00000000000000000000000000000000000000000000000000000000081526004016109fc90612cff565b60405180910390fd5b610a0f83836114f8565b505050565b600b8054610a2190612b38565b80601f0160208091040260200160405190810160405280929190818152602001828054610a4d90612b38565b8015610a9a5780601f10610a6f57610100808354040283529160200191610a9a565b820191906000526020600020905b815481529060010190602001808311610a7d57829003601f168201915b505050505081565b6000600880549050905090565b610ac0610aba6114f0565b826115b1565b610aff576040517f08c379a0000000000000000000000000000000000000000000000000000000008152600401610af690612d91565b60405180910390fd5b610b0a83838361168f565b505050565b6000610b1a83610cfc565b8210610b5b576040517f08c379a0000000000000000000000000000000000000000000000000000000008152600401610b5290612e23565b60405180910390fd5b600660008473ffffffffffffffffffffffffffffffffffffffff1673ffffffffffffffffffffffffffffffffffffffff168152602001908152602001600020600083815260200190815260200160002054905092915050565b610bcf83838360405180602001604052806000815250610f9c565b505050565b6000610bde610aa2565b8210610c1f576040517f08c379a0000000000000000000000000000000000000000000000000000000008152600401610c1690612eb5565b60405180910390fd5b60088281548110610c3357610c32612ed5565b5b90600052602060002001549050919050565b6000806002600084815260200190815260200160002060009054906101000a900473ffffffffffffffffffffffffffffffffffffffff169050600073ffffffffffffffffffffffffffffffffffffffff168173ffffffffffffffffffffffffffffffffffffffff1603610ced576040517f08c379a0000000000000000000000000000000000000000000000000000000008152600401610ce490612f76565b60405180910390fd5b80915050919050565b600c5481565b60008073ffffffffffffffffffffffffffffffffffffffff168273ffffffffffffffffffffffffffffffffffffffff1603610d6c576040517f08c379a0000000000000000000000000000000000000000000000000000000008152600401610d6390613008565b60405180910390fd5b600360008373ffffffffffffffffffffffffffffffffffffffff1673ffffffffffffffffffffffffffffffffffffffff168152602001908152602001600020549050919050565b610dbb6114f0565b73ffffffffffffffffffffffffffffffffffffffff16610dd9610eca565b73ffffffffffffffffffffffffffffffffffffffff1614610e2f576040517f08c379a0000000000000000000000000000000000000000000000000000000008152600401610e2690613074565b60405180910390fd5b610e3960006118f5565b565b610e436114f0565b73ffffffffffffffffffffffffffffffffffffffff16610e61610eca565b73ffffffffffffffffffffffffffffffffffffffff1614610eb7576040517f08c379a0000000000000000000000000000000000000000000000000000000008152600401610eae90613074565b60405180910390fd5b80600d9081610ec69190613236565b5050565b6000600a60009054906101000a900473ffffffffffffffffffffffffffffffffffffffff16905090565b606060018054610f0390612b38565b80601f0160208091040260200160405190810160405280929190818152602001828054610f2f90612b38565b8015610f7c5780601f10610f5157610100808354040283529160200191610f7c565b820191906000526020600020905b815481529060010190602001808311610f5f57829003601f168201915b5050505050905090565b610f98610f916114f0565b83836119bb565b5050565b610fad610fa76114f0565b836115b1565b610fec576040517f08c379a0000000000000000000000000000000000000000000000000000000008152600401610fe390612d91565b60405180910390fd5b610ff884848484611b27565b50505050565b6060600061100b83611b83565b9050600d8160405160200161102192919061345f565b604051602081830303815290604052915050919050565b6101f481565b6000600560008473ffffffffffffffffffffffffffffffffffffffff1673ffffffffffffffffffffffffffffffffffffffff16815260200190815260200160002060008373ffffffffffffffffffffffffffffffffffffffff1673ffffffffffffffffffffffffffffffffffffffff16815260200190815260200160002060009054906101000a900460ff16905092915050565b6110da6114f0565b73ffffffffffffffffffffffffffffffffffffffff166110f8610eca565b73ffffffffffffffffffffffffffffffffffffffff161461114e576040517f08c379a000000000000000000000000000000000000000000000000000000000815260040161114590613074565b60405180910390fd5b600073ffffffffffffffffffffffffffffffffffffffff168173ffffffffffffffffffffffffffffffffffffffff16036111bd576040517f08c379a00000000000000000000000000000000000000000000000000000000081526004016111b49061350b565b60405180910390fd5b6111c6816118f5565b50565b600073ffffffffffffffffffffffffffffffffffffffff168273ffffffffffffffffffffffffffffffffffffffff1603611238576040517f08c379a000000000000000000000000000000000000000000000000000000000815260040161122f90613577565b60405180910390fd5b61124181611484565b15611281576040517f08c379a0000000000000000000000000000000000000000000000000000000008152600401611278906135e3565b60405180910390fd5b61128d60008383611ce3565b6001600360008473ffffffffffffffffffffffffffffffffffffffff1673ffffffffffffffffffffffffffffffffffffffff16815260200190815260200160002060008282546112dd91906129ec565b92505081905550816002600083815260200190815260200160002060006101000a81548173ffffffffffffffffffffffffffffffffffffffff021916908373ffffffffffffffffffffffffffffffffffffffff160217905550808273ffffffffffffffffffffffffffffffffffffffff16600073ffffffffffffffffffffffffffffffffffffffff167fddf252ad1be2c89b69c2b068fc378daa952ba7f163c4a11628f55a4df523b3ef60405160405180910390a461139e60008383611df5565b5050565b60007f80ac58cd000000000000000000000000000000000000000000000000000000007bffffffffffffffffffffffffffffffffffffffffffffffffffffffff1916827bffffffffffffffffffffffffffffffffffffffffffffffffffffffff1916148061146d57507f5b5e139f000000000000000000000000000000000000000000000000000000007bffffffffffffffffffffffffffffffffffffffffffffffffffffffff1916827bffffffffffffffffffffffffffffffffffffffffffffffffffffffff1916145b8061147d575061147c82611dfa565b5b9050919050565b60008073ffffffffffffffffffffffffffffffffffffffff166002600084815260200190815260200160002060009054906101000a900473ffffffffffffffffffffffffffffffffffffffff1673ffffffffffffffffffffffffffffffffffffffff1614159050919050565b600033905090565b816004600083815260200190815260200160002060006101000a81548173ffffffffffffffffffffffffffffffffffffffff021916908373ffffffffffffffffffffffffffffffffffffffff160217905550808273ffffffffffffffffffffffffffffffffffffffff1661156b83610c45565b73ffffffffffffffffffffffffffffffffffffffff167f8c5be1e5ebec7d5bd14f71427d1e84f3dd0314c0f7b2291e5b200ac8c7c3b92560405160405180910390a45050565b60006115bc82611484565b6115fb576040517f08c379a00000000000000000000000000000000000000000000000000000000081526004016115f290613675565b60405180910390fd5b600061160683610c45565b90508073ffffffffffffffffffffffffffffffffffffffff168473ffffffffffffffffffffffffffffffffffffffff1614806116485750611647818561103e565b5b8061168657508373ffffffffffffffffffffffffffffffffffffffff1661166e84610878565b73ffffffffffffffffffffffffffffffffffffffff16145b91505092915050565b8273ffffffffffffffffffffffffffffffffffffffff166116af82610c45565b73ffffffffffffffffffffffffffffffffffffffff1614611705576040517f08c379a00000000000000000000000000000000000000000000000000000000081526004016116fc90613707565b60405180910390fd5b600073ffffffffffffffffffffffffffffffffffffffff168273ffffffffffffffffffffffffffffffffffffffff1603611774576040517f08c379a000000000000000000000000000000000000000000000000000000000815260040161176b90613799565b60405180910390fd5b61177f838383611ce3565b61178a6000826114f8565b6001600360008573ffffffffffffffffffffffffffffffffffffffff1673ffffffffffffffffffffffffffffffffffffffff16815260200190815260200160002060008282546117da91906137b9565b925050819055506001600360008473ffffffffffffffffffffffffffffffffffffffff1673ffffffffffffffffffffffffffffffffffffffff168152602001908152602001600020600082825461183191906129ec565b92505081905550816002600083815260200190815260200160002060006101000a81548173ffffffffffffffffffffffffffffffffffffffff021916908373ffffffffffffffffffffffffffffffffffffffff160217905550808273ffffffffffffffffffffffffffffffffffffffff168473ffffffffffffffffffffffffffffffffffffffff167fddf252ad1be2c89b69c2b068fc378daa952ba7f163c4a11628f55a4df523b3ef60405160405180910390a46118f0838383611df5565b505050565b6000600a60009054906101000a900473ffffffffffffffffffffffffffffffffffffffff16905081600a60006101000a81548173ffffffffffffffffffffffffffffffffffffffff021916908373ffffffffffffffffffffffffffffffffffffffff1602179055508173ffffffffffffffffffffffffffffffffffffffff168173ffffffffffffffffffffffffffffffffffffffff167f8be0079c531659141344cd1fd0a4f28419497f9722a3daafe3b4186f6b6457e060405160405180910390a35050565b8173ffffffffffffffffffffffffffffffffffffffff168373ffffffffffffffffffffffffffffffffffffffff1603611a29576040517f08c379a0000000000000000000000000000000000000000000000000000000008152600401611a2090613839565b60405180910390fd5b80600560008573ffffffffffffffffffffffffffffffffffffffff1673ffffffffffffffffffffffffffffffffffffffff16815260200190815260200160002060008473ffffffffffffffffffffffffffffffffffffffff1673ffffffffffffffffffffffffffffffffffffffff16815260200190815260200160002060006101000a81548160ff0219169083151502179055508173ffffffffffffffffffffffffffffffffffffffff168373ffffffffffffffffffffffffffffffffffffffff167f17307eab39ab6107e8899845ad3d59bd9653f200f220920489ca2b5937696c3183604051611b1a9190612458565b60405180910390a3505050565b611b3284848461168f565b611b3e84848484611e64565b611b7d576040517f08c379a0000000000000000000000000000000000000000000000000000000008152600401611b74906138cb565b60405180910390fd5b50505050565b606060008203611bca576040518060400160405280600181526020017f30000000000000000000000000000000000000000000000000000000000000008152509050611cde565b600082905060005b60008214611bfc578080611be5906138eb565b915050600a82611bf59190613962565b9150611bd2565b60008167ffffffffffffffff811115611c1857611c17612679565b5b6040519080825280601f01601f191660200182016040528015611c4a5781602001600182028036833780820191505090505b5090505b60008514611cd757600182611c6391906137b9565b9150600a85611c729190613993565b6030611c7e91906129ec565b60f81b818381518110611c9457611c93612ed5565b5b60200101907effffffffffffffffffffffffffffffffffffffffffffffffffffffffffffff1916908160001a905350600a85611cd09190613962565b9450611c4e565b8093505050505b919050565b611cee838383611feb565b600073ffffffffffffffffffffffffffffffffffffffff168373ffffffffffffffffffffffffffffffffffffffff1603611d3057611d2b81611ff0565b611d6f565b8173ffffffffffffffffffffffffffffffffffffffff168373ffffffffffffffffffffffffffffffffffffffff1614611d6e57611d6d8382612039565b5b5b600073ffffffffffffffffffffffffffffffffffffffff168273ffffffffffffffffffffffffffffffffffffffff1603611db157611dac816121a6565b611df0565b8273ffffffffffffffffffffffffffffffffffffffff168273ffffffffffffffffffffffffffffffffffffffff1614611def57611dee8282612277565b5b5b505050565b505050565b60007f01ffc9a7000000000000000000000000000000000000000000000000000000007bffffffffffffffffffffffffffffffffffffffffffffffffffffffff1916827bffffffffffffffffffffffffffffffffffffffffffffffffffffffff1916149050919050565b6000611e858473ffffffffffffffffffffffffffffffffffffffff166122f6565b15611fde578373ffffffffffffffffffffffffffffffffffffffff1663150b7a02611eae6114f0565b8786866040518563ffffffff1660e01b8152600401611ed09493929190613a19565b6020604051808303816000875af1925050508015611f0c57506040513d601f19601f82011682018060405250810190611f099190613a7a565b60015b611f8e573d8060008114611f3c576040519150601f19603f3d011682016040523d82523d6000602084013e611f41565b606091505b506000815103611f86576040517f08c379a0000000000000000000000000000000000000000000000000000000008152600401611f7d906138cb565b60405180910390fd5b805181602001fd5b63150b7a0260e01b7bffffffffffffffffffffffffffffffffffffffffffffffffffffffff1916817bffffffffffffffffffffffffffffffffffffffffffffffffffffffff191614915050611fe3565b600190505b949350505050565b505050565b6008805490506009600083815260200190815260200160002081905550600881908060018154018082558091505060019003906000526020600020016000909190919091505550565b6000600161204684610cfc565b61205091906137b9565b9050600060076000848152602001908152602001600020549050818114612135576000600660008673ffffffffffffffffffffffffffffffffffffffff1673ffffffffffffffffffffffffffffffffffffffff168152602001908152602001600020600084815260200190815260200160002054905080600660008773ffffffffffffffffffffffffffffffffffffffff1673ffffffffffffffffffffffffffffffffffffffff168152602001908152602001600020600084815260200190815260200160002081905550816007600083815260200190815260200160002081905550505b6007600084815260200190815260200160002060009055600660008573ffffffffffffffffffffffffffffffffffffffff1673ffffffffffffffffffffffffffffffffffffffff16815260200190815260200160002060008381526020019081526020016000206000905550505050565b600060016008805490506121ba91906137b9565b90506000600960008481526020019081526020016000205490506000600883815481106121ea576121e9612ed5565b5b90600052602060002001549050806008838154811061220c5761220b612ed5565b5b90600052602060002001819055508160096000838152602001908152602001600020819055506009600085815260200190815260200160002060009055600880548061225b5761225a613aa7565b5b6001900381819060005260206000200160009055905550505050565b600061228283610cfc565b905081600660008573ffffffffffffffffffffffffffffffffffffffff1673ffffffffffffffffffffffffffffffffffffffff168152602001908152602001600020600083815260200190815260200160002081905550806007600084815260200190815260200160002081905550505050565b6000808273ffffffffffffffffffffffffffffffffffffffff163b119050919050565b6000604051905090565b600080fd5b600080fd5b600073ffffffffffffffffffffffffffffffffffffffff82169050919050565b60006123588261232d565b9050919050565b6123688161234d565b811461237357600080fd5b50565b6000813590506123858161235f565b92915050565b6000602082840312156123a1576123a0612323565b5b60006123af84828501612376565b91505092915050565b60007fffffffff0000000000000000000000000000000000000000000000000000000082169050919050565b6123ed816123b8565b81146123f857600080fd5b50565b60008135905061240a816123e4565b92915050565b60006020828403121561242657612425612323565b5b6000612434848285016123fb565b91505092915050565b60008115159050919050565b6124528161243d565b82525050565b600060208201905061246d6000830184612449565b92915050565b600081519050919050565b600082825260208201905092915050565b60005b838110156124ad578082015181840152602081019050612492565b60008484015250505050565b6000601f19601f8301169050919050565b60006124d582612473565b6124df818561247e565b93506124ef81856020860161248f565b6124f8816124b9565b840191505092915050565b6000602082019050818103600083015261251d81846124ca565b905092915050565b6000819050919050565b61253881612525565b811461254357600080fd5b50565b6000813590506125558161252f565b92915050565b60006020828403121561257157612570612323565b5b600061257f84828501612546565b91505092915050565b6125918161234d565b82525050565b60006020820190506125ac6000830184612588565b92915050565b600080604083850312156125c9576125c8612323565b5b60006125d785828601612376565b92505060206125e885828601612546565b9150509250929050565b6125fb81612525565b82525050565b600060208201905061261660008301846125f2565b92915050565b60008060006060848603121561263557612634612323565b5b600061264386828701612376565b935050602061265486828701612376565b925050604061266586828701612546565b9150509250925092565b600080fd5b600080fd5b7f4e487b7100000000000000000000000000000000000000000000000000000000600052604160045260246000fd5b6126b1826124b9565b810181811067ffffffffffffffff821117156126d0576126cf612679565b5b80604052505050565b60006126e3612319565b90506126ef82826126a8565b919050565b600067ffffffffffffffff82111561270f5761270e612679565b5b612718826124b9565b9050602081019050919050565b82818337600083830152505050565b6000612747612742846126f4565b6126d9565b90508281526020810184848401111561276357612762612674565b5b61276e848285612725565b509392505050565b600082601f83011261278b5761278a61266f565b5b813561279b848260208601612734565b91505092915050565b6000602082840312156127ba576127b9612323565b5b600082013567ffffffffffffffff8111156127d8576127d7612328565b5b6127e484828501612776565b91505092915050565b6127f68161243d565b811461280157600080fd5b50565b600081359050612813816127ed565b92915050565b600080604083850312156128305761282f612323565b5b600061283e85828601612376565b925050602061284f85828601612804565b9150509250929050565b600067ffffffffffffffff82111561287457612873612679565b5b61287d826124b9565b9050602081019050919050565b600061289d61289884612859565b6126d9565b9050828152602081018484840111156128b9576128b8612674565b5b6128c4848285612725565b509392505050565b600082601f8301126128e1576128e061266f565b5b81356128f184826020860161288a565b91505092915050565b6000806000806080858703121561291457612913612323565b5b600061292287828801612376565b945050602061293387828801612376565b935050604061294487828801612546565b925050606085013567ffffffffffffffff81111561296557612964612328565b5b612971878288016128cc565b91505092959194509250565b6000806040838503121561299457612993612323565b5b60006129a285828601612376565b92505060206129b385828601612376565b9150509250929050565b7f4e487b7100000000000000000000000000000000000000000000000000000000600052601160045260246000fd5b60006129f782612525565b9150612a0283612525565b9250828201905080821115612a1a57612a196129bd565b5b92915050565b7f4d696e7465640000000000000000000000000000000000000000000000000000600082015250565b6000612a5660068361247e565b9150612a6182612a20565b602082019050919050565b6000819050919050565b6000819050919050565b6000612a9b612a96612a9184612a6c565b612a76565b612525565b9050919050565b612aab81612a80565b82525050565b600060a082019050612ac660008301876125f2565b8181036020830152612ad781612a49565b9050612ae66040830186612aa2565b612af36060830185612588565b612b006080830184612588565b95945050505050565b7f4e487b7100000000000000000000000000000000000000000000000000000000600052602260045260246000fd5b60006002820490506001821680612b5057607f821691505b602082108103612b6357612b62612b09565b5b50919050565b7f4552433732313a20617070726f76656420717565727920666f72206e6f6e657860008201527f697374656e7420746f6b656e0000000000000000000000000000000000000000602082015250565b6000612bc5602c8361247e565b9150612bd082612b69565b604082019050919050565b60006020820190508181036000830152612bf481612bb8565b9050919050565b7f4552433732313a20617070726f76616c20746f2063757272656e74206f776e6560008201527f7200000000000000000000000000000000000000000000000000000000000000602082015250565b6000612c5760218361247e565b9150612c6282612bfb565b604082019050919050565b60006020820190508181036000830152612c8681612c4a565b9050919050565b7f4552433732313a20617070726f76652063616c6c6572206973206e6f74206f7760008201527f6e6572206e6f7220617070726f76656420666f7220616c6c0000000000000000602082015250565b6000612ce960388361247e565b9150612cf482612c8d565b604082019050919050565b60006020820190508181036000830152612d1881612cdc565b9050919050565b7f4552433732313a207472616e736665722063616c6c6572206973206e6f74206f60008201527f776e6572206e6f7220617070726f766564000000000000000000000000000000602082015250565b6000612d7b60318361247e565b9150612d8682612d1f565b604082019050919050565b60006020820190508181036000830152612daa81612d6e565b9050919050565b7f455243373231456e756d657261626c653a206f776e657220696e646578206f7560008201527f74206f6620626f756e6473000000000000000000000000000000000000000000602082015250565b6000612e0d602b8361247e565b9150612e1882612db1565b604082019050919050565b60006020820190508181036000830152612e3c81612e00565b9050919050565b7f455243373231456e756d657261626c653a20676c6f62616c20696e646578206f60008201527f7574206f6620626f756e64730000000000000000000000000000000000000000602082015250565b6000612e9f602c8361247e565b9150612eaa82612e43565b604082019050919050565b60006020820190508181036000830152612ece81612e92565b9050919050565b7f4e487b7100000000000000000000000000000000000000000000000000000000600052603260045260246000fd5b7f4552433732313a206f776e657220717565727920666f72206e6f6e657869737460008201527f656e7420746f6b656e0000000000000000000000000000000000000000000000602082015250565b6000612f6060298361247e565b9150612f6b82612f04565b604082019050919050565b60006020820190508181036000830152612f8f81612f53565b9050919050565b7f4552433732313a2062616c616e636520717565727920666f7220746865207a6560008201527f726f206164647265737300000000000000000000000000000000000000000000602082015250565b6000612ff2602a8361247e565b9150612ffd82612f96565b604082019050919050565b6000602082019050818103600083015261302181612fe5565b9050919050565b7f4f776e61626c653a2063616c6c6572206973206e6f7420746865206f776e6572600082015250565b600061305e60208361247e565b915061306982613028565b602082019050919050565b6000602082019050818103600083015261308d81613051565b9050919050565b60008190508160005260206000209050919050565b60006020601f8301049050919050565b600082821b905092915050565b6000600883026130f67fffffffffffffffffffffffffffffffffffffffffffffffffffffffffffffffff826130b9565b61310086836130b9565b95508019841693508086168417925050509392505050565b600061313361312e61312984612525565b612a76565b612525565b9050919050565b6000819050919050565b61314d83613118565b6131616131598261313a565b8484546130c6565b825550505050565b600090565b613176613169565b613181818484613144565b505050565b5b818110156131a55761319a60008261316e565b600181019050613187565b5050565b601f8211156131ea576131bb81613094565b6131c4846130a9565b810160208510156131d3578190505b6131e76131df856130a9565b830182613186565b50505b505050565b600082821c905092915050565b600061320d600019846008026131ef565b1980831691505092915050565b600061322683836131fc565b9150826002028217905092915050565b61323f82612473565b67ffffffffffffffff81111561325857613257612679565b5b6132628254612b38565b61326d8282856131a9565b600060209050601f8311600181146132a0576000841561328e578287015190505b613298858261321a565b865550613300565b601f1984166132ae86613094565b60005b828110156132d6578489015182556001820191506020850194506020810190506132b1565b868310156132f357848901516132ef601f8916826131fc565b8355505b6001600288020188555050505b505050505050565b600081905092915050565b6000815461332081612b38565b61332a8186613308565b94506001821660008114613345576001811461335a5761338d565b60ff198316865281151582028601935061338d565b61336385613094565b60005b8381101561338557815481890152600182019150602081019050613366565b838801955050505b50505092915050565b7f2f00000000000000000000000000000000000000000000000000000000000000600082015250565b60006133cc600183613308565b91506133d782613396565b600182019050919050565b60006133ed82612473565b6133f78185613308565b935061340781856020860161248f565b80840191505092915050565b7f2e6a736f6e000000000000000000000000000000000000000000000000000000600082015250565b6000613449600583613308565b915061345482613413565b600582019050919050565b600061346b8285613313565b9150613476826133bf565b915061348282846133e2565b915061348d8261343c565b91508190509392505050565b7f4f776e61626c653a206e6577206f776e657220697320746865207a65726f206160008201527f6464726573730000000000000000000000000000000000000000000000000000602082015250565b60006134f560268361247e565b915061350082613499565b604082019050919050565b60006020820190508181036000830152613524816134e8565b9050919050565b7f4552433732313a206d696e7420746f20746865207a65726f2061646472657373600082015250565b600061356160208361247e565b915061356c8261352b565b602082019050919050565b6000602082019050818103600083015261359081613554565b9050919050565b7f4552433732313a20746f6b656e20616c7265616479206d696e74656400000000600082015250565b60006135cd601c8361247e565b91506135d882613597565b602082019050919050565b600060208201905081810360008301526135fc816135c0565b9050919050565b7f4552433732313a206f70657261746f7220717565727920666f72206e6f6e657860008201527f697374656e7420746f6b656e0000000000000000000000000000000000000000602082015250565b600061365f602c8361247e565b915061366a82613603565b604082019050919050565b6000602082019050818103600083015261368e81613652565b9050919050565b7f4552433732313a207472616e736665722066726f6d20696e636f72726563742060008201527f6f776e6572000000000000000000000000000000000000000000000000000000602082015250565b60006136f160258361247e565b91506136fc82613695565b604082019050919050565b60006020820190508181036000830152613720816136e4565b9050919050565b7f4552433732313a207472616e7366657220746f20746865207a65726f2061646460008201527f7265737300000000000000000000000000000000000000000000000000000000602082015250565b600061378360248361247e565b915061378e82613727565b604082019050919050565b600060208201905081810360008301526137b281613776565b9050919050565b60006137c482612525565b91506137cf83612525565b92508282039050818111156137e7576137e66129bd565b5b92915050565b7f4552433732313a20617070726f766520746f2063616c6c657200000000000000600082015250565b600061382360198361247e565b915061382e826137ed565b602082019050919050565b6000602082019050818103600083015261385281613816565b9050919050565b7f4552433732313a207472616e7366657220746f206e6f6e20455243373231526560008201527f63656976657220696d706c656d656e7465720000000000000000000000000000602082015250565b60006138b560328361247e565b91506138c082613859565b604082019050919050565b600060208201905081810360008301526138e4816138a8565b9050919050565b60006138f682612525565b91507fffffffffffffffffffffffffffffffffffffffffffffffffffffffffffffffff8203613928576139276129bd565b5b600182019050919050565b7f4e487b7100000000000000000000000000000000000000000000000000000000600052601260045260246000fd5b600061396d82612525565b915061397883612525565b92508261398857613987613933565b5b828204905092915050565b600061399e82612525565b91506139a983612525565b9250826139b9576139b8613933565b5b828206905092915050565b600081519050919050565b600082825260208201905092915050565b60006139eb826139c4565b6139f581856139cf565b9350613a0581856020860161248f565b613a0e816124b9565b840191505092915050565b6000608082019050613a2e6000830187612588565b613a3b6020830186612588565b613a4860408301856125f2565b8181036060830152613a5a81846139e0565b905095945050505050565b600081519050613a74816123e4565b92915050565b600060208284031215613a9057613a8f612323565b5b6000613a9e84828501613a65565b91505092915050565b7f4e487b7100000000000000000000000000000000000000000000000000000000600052603160045260246000fdfea26469706673582212205eaf7be9f84a42c039858c11eae8004004f62afca3ff09472ce490406f995b5364736f6c63430008110033",
  "immutableReferences": {},
  "source": "// SPDX-License-Identifier:MIT\r\npragma solidity ^0.8.17;\r\n\r\nimport \"../node_modules/openzeppelin-solidity/contracts/token/ERC721/extensions/ERC721Enumerable.sol\";\r\n\r\nimport \"../node_modules/openzeppelin-solidity/contracts/access/Ownable.sol\";\r\n\r\nimport \"../node_modules/openzeppelin-solidity/contracts/utils/Strings.sol\";\r\n\r\ncontract EggToken is ERC721Enumerable, Ownable {\r\n    string public a;\r\n    //  \r\n    uint constant public MAX_TOKEN_COUNT = 500;\r\n\r\n    //       \r\n    uint public mintPrice = 10 wei;\r\n\r\n    // json metadata URI\r\n    string public metadataURI;\r\n\r\n    // minting  \r\n\r\n    event Minting(uint tokenId, string state, uint price, address from, address to);\r\n\r\n    //  \r\n    constructor(string memory _name, string memory _symbol, string memory _metadataURI) ERC721 (_name, _symbol) {\r\n        metadataURI = _metadataURI;\r\n    }\r\n\r\n    function mintToken(address _saleContractCA) public payable {\r\n        // mintPrice     \r\n        require(msg.value >= mintPrice);\r\n\r\n        //      .\r\n        require(MAX_TOKEN_COUNT > totalSupply());\r\n\r\n        uint tokenId = totalSupply() + 1;\r\n\r\n        // CA   .\r\n        payable(Ownable.owner()).transfer(msg.value);\r\n\r\n        //   () NTF \r\n        _mint(msg.sender, tokenId);\r\n\r\n        setApprovalForAll(_saleContractCA, true);\r\n\r\n        emit Minting(tokenId, \"Minted\", 0, address(0), msg.sender);\r\n    }\r\n\r\n    function tokenURI(uint _tokenId) public override view returns (string memory) {\r\n\r\n        string memory tokenIdStr = Strings.toString(_tokenId);\r\n        return string(abi.encodePacked(metadataURI, \"/\", tokenIdStr,\".json\"));\r\n    }\r\n\r\n    function setMetadataURI(string memory _uri) public onlyOwner {\r\n        metadataURI = _uri;\r\n    }\r\n}",
  "sourcePath": "C:\\Users\\natay\\OneDrive\\ \\coding\\Projects\\EGG-NFT-STORE\\back\\contracts\\EggToken.sol",
  "compiler": {
    "name": "solc",
    "version": "0.8.17+commit.8df45f5f.Emscripten.clang"
  },
  "schemaVersion": "3.4.11",
  "updatedAt": "2022-12-22T15:05:12.835Z",
  "devdoc": {
    "kind": "dev",
    "methods": {
      "approve(address,uint256)": {
        "details": "See {IERC721-approve}."
      },
      "balanceOf(address)": {
        "details": "See {IERC721-balanceOf}."
      },
      "getApproved(uint256)": {
        "details": "See {IERC721-getApproved}."
      },
      "isApprovedForAll(address,address)": {
        "details": "See {IERC721-isApprovedForAll}."
      },
      "name()": {
        "details": "See {IERC721Metadata-name}."
      },
      "owner()": {
        "details": "Returns the address of the current owner."
      },
      "ownerOf(uint256)": {
        "details": "See {IERC721-ownerOf}."
      },
      "renounceOwnership()": {
        "details": "Leaves the contract without owner. It will not be possible to call `onlyOwner` functions anymore. Can only be called by the current owner. NOTE: Renouncing ownership will leave the contract without an owner, thereby removing any functionality that is only available to the owner."
      },
      "safeTransferFrom(address,address,uint256)": {
        "details": "See {IERC721-safeTransferFrom}."
      },
      "safeTransferFrom(address,address,uint256,bytes)": {
        "details": "See {IERC721-safeTransferFrom}."
      },
      "setApprovalForAll(address,bool)": {
        "details": "See {IERC721-setApprovalForAll}."
      },
      "supportsInterface(bytes4)": {
        "details": "See {IERC165-supportsInterface}."
      },
      "symbol()": {
        "details": "See {IERC721Metadata-symbol}."
      },
      "tokenByIndex(uint256)": {
        "details": "See {IERC721Enumerable-tokenByIndex}."
      },
      "tokenOfOwnerByIndex(address,uint256)": {
        "details": "See {IERC721Enumerable-tokenOfOwnerByIndex}."
      },
      "totalSupply()": {
        "details": "See {IERC721Enumerable-totalSupply}."
      },
      "transferFrom(address,address,uint256)": {
        "details": "See {IERC721-transferFrom}."
      },
      "transferOwnership(address)": {
        "details": "Transfers ownership of the contract to a new account (`newOwner`). Can only be called by the current owner."
      }
    },
    "version": 1
  },
  "userdoc": {
    "kind": "user",
    "methods": {},
    "version": 1
  }
}