{
  "contractName": "SaleToken",
  "abi": [
    {
      "inputs": [
        {
          "internalType": "address",
          "name": "_eggTokenCA",
          "type": "address"
        }
      ],
      "stateMutability": "nonpayable",
      "type": "constructor"
    },
    {
      "anonymous": false,
      "inputs": [
        {
          "indexed": false,
          "internalType": "uint256",
          "name": "price",
          "type": "uint256"
        },
        {
          "indexed": false,
          "internalType": "address",
          "name": "from",
          "type": "address"
        },
        {
          "indexed": false,
          "internalType": "address",
          "name": "to",
          "type": "address"
        }
      ],
      "name": "List",
      "type": "event"
    },
    {
      "anonymous": false,
      "inputs": [
        {
          "indexed": false,
          "internalType": "uint256",
          "name": "price",
          "type": "uint256"
        },
        {
          "indexed": false,
          "internalType": "address",
          "name": "from",
          "type": "address"
        },
        {
          "indexed": false,
          "internalType": "address",
          "name": "to",
          "type": "address"
        }
      ],
      "name": "Purchase",
      "type": "event"
    },
    {
      "inputs": [
        {
          "internalType": "uint256",
          "name": "",
          "type": "uint256"
        }
      ],
      "name": "SaleTokenList",
      "outputs": [
        {
          "internalType": "uint256",
          "name": "",
          "type": "uint256"
        }
      ],
      "stateMutability": "view",
      "type": "function",
      "constant": true
    },
    {
      "inputs": [],
      "name": "Token",
      "outputs": [
        {
          "internalType": "contract EggToken",
          "name": "",
          "type": "address"
        }
      ],
      "stateMutability": "view",
      "type": "function",
      "constant": true
    },
    {
      "inputs": [
        {
          "internalType": "uint256",
          "name": "",
          "type": "uint256"
        }
      ],
      "name": "tokenPrices",
      "outputs": [
        {
          "internalType": "uint256",
          "name": "",
          "type": "uint256"
        }
      ],
      "stateMutability": "view",
      "type": "function",
      "constant": true
    },
    {
      "inputs": [
        {
          "internalType": "uint256",
          "name": "_tokenId",
          "type": "uint256"
        },
        {
          "internalType": "uint256",
          "name": "_price",
          "type": "uint256"
        }
      ],
      "name": "ListFotSaleToken",
      "outputs": [],
      "stateMutability": "nonpayable",
      "type": "function"
    },
    {
      "inputs": [
        {
          "internalType": "uint256",
          "name": "_tokenId",
          "type": "uint256"
        }
      ],
      "name": "PurchaseToken",
      "outputs": [],
      "stateMutability": "payable",
      "type": "function",
      "payable": true
    },
    {
      "inputs": [],
      "name": "getSaleTokenList",
      "outputs": [
        {
          "components": [
            {
              "internalType": "uint256",
              "name": "tokenId",
              "type": "uint256"
            },
            {
              "internalType": "uint256",
              "name": "price",
              "type": "uint256"
            }
          ],
          "internalType": "struct SaleToken.TokenInfo[]",
          "name": "",
          "type": "tuple[]"
        }
      ],
      "stateMutability": "view",
      "type": "function",
      "constant": true
    },
    {
      "inputs": [
        {
          "internalType": "address",
          "name": "_tokenOwner",
          "type": "address"
        }
      ],
      "name": "getOwnerToken",
      "outputs": [
        {
          "components": [
            {
              "internalType": "uint256",
              "name": "tokenId",
              "type": "uint256"
            },
            {
              "internalType": "uint256",
              "name": "price",
              "type": "uint256"
            }
          ],
          "internalType": "struct SaleToken.TokenInfo[]",
          "name": "",
          "type": "tuple[]"
        }
      ],
      "stateMutability": "view",
      "type": "function",
      "constant": true
    },
    {
      "inputs": [
        {
          "internalType": "address",
          "name": "_tokenOwner",
          "type": "address"
        }
      ],
      "name": "getLatestToken",
      "outputs": [
        {
          "components": [
            {
              "internalType": "uint256",
              "name": "tokenId",
              "type": "uint256"
            },
            {
              "internalType": "uint256",
              "name": "price",
              "type": "uint256"
            }
          ],
          "internalType": "struct SaleToken.TokenInfo",
          "name": "",
          "type": "tuple"
        }
      ],
      "stateMutability": "view",
      "type": "function",
      "constant": true
    }
  ],
  "bytecode": "0x60806040523480156200001157600080fd5b5060405162001662380380620016628339818101604052810190620000379190620000e8565b806000806101000a81548173ffffffffffffffffffffffffffffffffffffffff021916908373ffffffffffffffffffffffffffffffffffffffff160217905550506200011a565b600080fd5b600073ffffffffffffffffffffffffffffffffffffffff82169050919050565b6000620000b08262000083565b9050919050565b620000c281620000a3565b8114620000ce57600080fd5b50565b600081519050620000e281620000b7565b92915050565b6000602082840312156200010157620001006200007e565b5b60006200011184828501620000d1565b91505092915050565b611538806200012a6000396000f3fe60806040526004361061007b5760003560e01c8063a4ad760b1161004e578063a4ad760b14610141578063c24126761461017e578063e5afe3e6146101a9578063efc5582e146101e65761007b565b80630c8cc569146100805780633048f512146100bd5780634e4dc988146100d9578063966c057414610104575b600080fd5b34801561008c57600080fd5b506100a760048036038101906100a29190610d17565b61020f565b6040516100b49190610d53565b60405180910390f35b6100d760048036038101906100d29190610d17565b610233565b005b3480156100e557600080fd5b506100ee610524565b6040516100fb9190610e5b565b60405180910390f35b34801561011057600080fd5b5061012b60048036038101906101269190610edb565b610630565b6040516101389190610e5b565b60405180910390f35b34801561014d57600080fd5b5061016860048036038101906101639190610edb565b61084d565b6040516101759190610f37565b60405180910390f35b34801561018a57600080fd5b506101936109d8565b6040516101a09190610fb1565b60405180910390f35b3480156101b557600080fd5b506101d060048036038101906101cb9190610d17565b6109fc565b6040516101dd9190610d53565b60405180910390f35b3480156101f257600080fd5b5061020d60048036038101906102089190610fcc565b610a14565b005b6002818154811061021f57600080fd5b906000526020600020016000915090505481565b60008060009054906101000a900473ffffffffffffffffffffffffffffffffffffffff1673ffffffffffffffffffffffffffffffffffffffff16636352211e836040518263ffffffff1660e01b815260040161028f9190610d53565b602060405180830381865afa1580156102ac573d6000803e3d6000fd5b505050506040513d601f19601f820116820180604052508101906102d09190611021565b90503373ffffffffffffffffffffffffffffffffffffffff168173ffffffffffffffffffffffffffffffffffffffff1603610340576040517f08c379a0000000000000000000000000000000000000000000000000000000008152600401610337906110ab565b60405180910390fd5b6000600160008481526020019081526020016000205411610396576040517f08c379a000000000000000000000000000000000000000000000000000000000815260040161038d90611117565b60405180910390fd5b34600160008481526020019081526020016000205411156103ec576040517f08c379a00000000000000000000000000000000000000000000000000000000081526004016103e3906111a9565b60405180910390fd5b8073ffffffffffffffffffffffffffffffffffffffff166108fc349081150290604051600060405180830381858888f19350505050158015610432573d6000803e3d6000fd5b5060008054906101000a900473ffffffffffffffffffffffffffffffffffffffff1673ffffffffffffffffffffffffffffffffffffffff166323b872dd8233856040518463ffffffff1660e01b8152600401610490939291906111d8565b600060405180830381600087803b1580156104aa57600080fd5b505af11580156104be573d6000803e3d6000fd5b50505050600060016000848152602001908152602001600020819055506104e482610be6565b507f2d9abaed896ece5f9f4f4484ce756b21c297e5aa6739114910fc097c750f27a53482336040516105189392919061120f565b60405180910390a15050565b606060006002805490501161053857600080fd5b600060028054905067ffffffffffffffff81111561055957610558611246565b5b60405190808252806020026020018201604052801561059257816020015b61057f610cc2565b8152602001906001900390816105775790505b50905060005b600280549050811015610628576000600282815481106105bb576105ba611275565b5b9060005260206000200154905060006001600083815260200190815260200160002054905060405180604001604052808381526020018281525084848151811061060857610607611275565b5b602002602001018190525050508080610620906112d3565b915050610598565b508091505090565b606060008060009054906101000a900473ffffffffffffffffffffffffffffffffffffffff1673ffffffffffffffffffffffffffffffffffffffff166370a08231846040518263ffffffff1660e01b815260040161068e919061131b565b602060405180830381865afa1580156106ab573d6000803e3d6000fd5b505050506040513d601f19601f820116820180604052508101906106cf919061134b565b9050600081116106de57600080fd5b60008167ffffffffffffffff8111156106fa576106f9611246565b5b60405190808252806020026020018201604052801561073357816020015b610720610cc2565b8152602001906001900390816107185790505b50905060005b828110156108425760008060009054906101000a900473ffffffffffffffffffffffffffffffffffffffff1673ffffffffffffffffffffffffffffffffffffffff16632f745c5987846040518363ffffffff1660e01b815260040161079f929190611378565b602060405180830381865afa1580156107bc573d6000803e3d6000fd5b505050506040513d601f19601f820116820180604052508101906107e0919061134b565b905060006001600083815260200190815260200160002054905060405180604001604052808381526020018281525084848151811061082257610821611275565b5b60200260200101819052505050808061083a906112d3565b915050610739565b508092505050919050565b610855610cc2565b60008060009054906101000a900473ffffffffffffffffffffffffffffffffffffffff1673ffffffffffffffffffffffffffffffffffffffff166370a08231846040518263ffffffff1660e01b81526004016108b1919061131b565b602060405180830381865afa1580156108ce573d6000803e3d6000fd5b505050506040513d601f19601f820116820180604052508101906108f2919061134b565b905060008060009054906101000a900473ffffffffffffffffffffffffffffffffffffffff1673ffffffffffffffffffffffffffffffffffffffff16632f745c598560018561094191906113a1565b6040518363ffffffff1660e01b815260040161095e929190611378565b602060405180830381865afa15801561097b573d6000803e3d6000fd5b505050506040513d601f19601f8201168201806040525081019061099f919061134b565b90506000600160008381526020019081526020016000205490506040518060400160405280838152602001828152509350505050919050565b60008054906101000a900473ffffffffffffffffffffffffffffffffffffffff1681565b60016020528060005260406000206000915090505481565b60008060009054906101000a900473ffffffffffffffffffffffffffffffffffffffff1673ffffffffffffffffffffffffffffffffffffffff16636352211e846040518263ffffffff1660e01b8152600401610a709190610d53565b602060405180830381865afa158015610a8d573d6000803e3d6000fd5b505050506040513d601f19601f82011682018060405250810190610ab19190611021565b905060008211610af6576040517f08c379a0000000000000000000000000000000000000000000000000000000008152600401610aed90611447565b60405180910390fd5b8073ffffffffffffffffffffffffffffffffffffffff163373ffffffffffffffffffffffffffffffffffffffff1614610b64576040517f08c379a0000000000000000000000000000000000000000000000000000000008152600401610b5b906114b3565b60405180910390fd5b81600160008581526020019081526020016000208190555060028390806001815401808255809150506001900390600052602060002001600090919091909150557f2c2a1bee23b0f33ffe97df659d09703aabd7e3e9b0811c802c19b8acec2160a382336000604051610bd99392919061120f565b60405180910390a1505050565b600080600090505b600280549050811015610cb7578260028281548110610c1057610c0f611275565b5b906000526020600020015403610ca45760026001600280549050610c3491906113a1565b81548110610c4557610c44611275565b5b906000526020600020015460028281548110610c6457610c63611275565b5b90600052602060002001819055506002805480610c8457610c836114d3565b5b600190038181906000526020600020016000905590556001915050610cbd565b8080610caf906112d3565b915050610bee565b50600090505b919050565b604051806040016040528060008152602001600081525090565b600080fd5b6000819050919050565b610cf481610ce1565b8114610cff57600080fd5b50565b600081359050610d1181610ceb565b92915050565b600060208284031215610d2d57610d2c610cdc565b5b6000610d3b84828501610d02565b91505092915050565b610d4d81610ce1565b82525050565b6000602082019050610d686000830184610d44565b92915050565b600081519050919050565b600082825260208201905092915050565b6000819050602082019050919050565b610da381610ce1565b82525050565b604082016000820151610dbf6000850182610d9a565b506020820151610dd26020850182610d9a565b50505050565b6000610de48383610da9565b60408301905092915050565b6000602082019050919050565b6000610e0882610d6e565b610e128185610d79565b9350610e1d83610d8a565b8060005b83811015610e4e578151610e358882610dd8565b9750610e4083610df0565b925050600181019050610e21565b5085935050505092915050565b60006020820190508181036000830152610e758184610dfd565b905092915050565b600073ffffffffffffffffffffffffffffffffffffffff82169050919050565b6000610ea882610e7d565b9050919050565b610eb881610e9d565b8114610ec357600080fd5b50565b600081359050610ed581610eaf565b92915050565b600060208284031215610ef157610ef0610cdc565b5b6000610eff84828501610ec6565b91505092915050565b604082016000820151610f1e6000850182610d9a565b506020820151610f316020850182610d9a565b50505050565b6000604082019050610f4c6000830184610f08565b92915050565b6000819050919050565b6000610f77610f72610f6d84610e7d565b610f52565b610e7d565b9050919050565b6000610f8982610f5c565b9050919050565b6000610f9b82610f7e565b9050919050565b610fab81610f90565b82525050565b6000602082019050610fc66000830184610fa2565b92915050565b60008060408385031215610fe357610fe2610cdc565b5b6000610ff185828601610d02565b925050602061100285828601610d02565b9150509250929050565b60008151905061101b81610eaf565b92915050565b60006020828403121561103757611036610cdc565b5b60006110458482850161100c565b91505092915050565b600082825260208201905092915050565b7f4f776e65722063616e6e6f742062757900000000000000000000000000000000600082015250565b600061109560108361104e565b91506110a08261105f565b602082019050919050565b600060208201905081810360008301526110c481611088565b9050919050565b7f546f6b656e7320617265206e6f7420666f722073616c65000000000000000000600082015250565b600061110160178361104e565b915061110c826110cb565b602082019050919050565b60006020820190508181036000830152611130816110f4565b9050919050565b7f4f66666572206d6f7265207468616e207468652073656c6c696e67207072696360008201527f6500000000000000000000000000000000000000000000000000000000000000602082015250565b600061119360218361104e565b915061119e82611137565b604082019050919050565b600060208201905081810360008301526111c281611186565b9050919050565b6111d281610e9d565b82525050565b60006060820190506111ed60008301866111c9565b6111fa60208301856111c9565b6112076040830184610d44565b949350505050565b60006060820190506112246000830186610d44565b61123160208301856111c9565b61123e60408301846111c9565b949350505050565b7f4e487b7100000000000000000000000000000000000000000000000000000000600052604160045260246000fd5b7f4e487b7100000000000000000000000000000000000000000000000000000000600052603260045260246000fd5b7f4e487b7100000000000000000000000000000000000000000000000000000000600052601160045260246000fd5b60006112de82610ce1565b91507fffffffffffffffffffffffffffffffffffffffffffffffffffffffffffffffff82036113105761130f6112a4565b5b600182019050919050565b600060208201905061133060008301846111c9565b92915050565b60008151905061134581610ceb565b92915050565b60006020828403121561136157611360610cdc565b5b600061136f84828501611336565b91505092915050565b600060408201905061138d60008301856111c9565b61139a6020830184610d44565b9392505050565b60006113ac82610ce1565b91506113b783610ce1565b92508282039050818111156113cf576113ce6112a4565b5b92915050565b7f5468652073656c6c696e67207072696365206d757374206265206174206c656160008201527f7374207a65726f00000000000000000000000000000000000000000000000000602082015250565b600061143160278361104e565b915061143c826113d5565b604082019050919050565b6000602082019050818103600083015261146081611424565b9050919050565b7f6265206e6f7420746865206f776e657200000000000000000000000000000000600082015250565b600061149d60108361104e565b91506114a882611467565b602082019050919050565b600060208201905081810360008301526114cc81611490565b9050919050565b7f4e487b7100000000000000000000000000000000000000000000000000000000600052603160045260246000fdfea2646970667358221220bf9f100a4cdd288cfb5b96ce6853bad62417d19725e125358339cb6686de387164736f6c63430008110033",
  "immutableReferences": {},
  "source": "// SPDX-License-Identifier:MIT\r\npragma solidity ^0.8.17;\r\n\r\nimport \"./EggToken.sol\";\r\n\r\ncontract SaleToken {\r\n    // EggToken  \r\n    EggToken public Token;\r\n\r\n    // token  => price( );\r\n    mapping(uint => uint) public tokenPrices;\r\n\r\n    //   \r\n    struct TokenInfo {\r\n        uint tokenId;\r\n        uint price;\r\n    }\r\n\r\n    uint[] public SaleTokenList;\r\n\r\n    //    \r\n    event List(uint price, address from, address to);\r\n\r\n    //   \r\n    event Purchase(uint price, address from, address to);\r\n\r\n    //   EggToken CA  Token  .\r\n    constructor(address _eggTokenCA) {\r\n        Token = EggToken(_eggTokenCA);\r\n    }\r\n\r\n    //   \r\n    function ListFotSaleToken(uint _tokenId, uint _price) public {\r\n        address tokenOwner = Token.ownerOf(_tokenId);\r\n\r\n        //  0   \r\n        require(_price > 0, \"The selling price must be at least zero\");\r\n\r\n        //   ()    .\r\n        require(msg.sender == tokenOwner, \"be not the owner\" );\r\n\r\n        // require(Token.isApprovedForAll(msg.sender, address(this)), \"approve caller is not owner nor approved for all\");\r\n\r\n        //     .\r\n        tokenPrices[_tokenId] = _price;\r\n\r\n        //    \r\n        SaleTokenList.push(_tokenId);\r\n\r\n        emit List(_price, msg.sender, address(0));\r\n    }\r\n\r\n    function PurchaseToken(uint _tokenId) public payable {\r\n        //   \r\n        address tokenOwner = Token.ownerOf(_tokenId);\r\n\r\n        //       .\r\n        require(tokenOwner != msg.sender, \"Owner cannot buy\");\r\n\r\n        //      .\r\n        require(tokenPrices[_tokenId] > 0, \"Tokens are not for sale\");\r\n\r\n        //       .\r\n        require(tokenPrices[_tokenId] <= msg.value, \"Offer more than the selling price\");\r\n\r\n        // CA    .\r\n        payable(tokenOwner).transfer(msg.value);\r\n        \r\n        //    .\r\n        // Token.newTransfer(msg.sender, _tokenId);\r\n        Token.transferFrom(tokenOwner, msg.sender, _tokenId);\r\n        //   0    .\r\n        tokenPrices[_tokenId] = 0;   \r\n\r\n        popSaleToken(_tokenId); \r\n\r\n        emit Purchase(msg.value, tokenOwner, msg.sender);\r\n    }\r\n\r\n    function popSaleToken(uint _tokenId) private returns (bool) {\r\n        for (uint256 i = 0; i < SaleTokenList.length; i++) {\r\n            if(SaleTokenList[i] == _tokenId){\r\n                //       \r\n                SaleTokenList[i] = SaleTokenList[SaleTokenList.length - 1];\r\n\r\n                //    \r\n                SaleTokenList.pop();\r\n                return true;\r\n            }\r\n        }\r\n        return false;\r\n    }\r\n    \r\n    //     view\r\n    function getSaleTokenList() public view returns (TokenInfo[] memory){\r\n        \r\n        //       \r\n        require(SaleTokenList.length > 0);\r\n        \r\n        TokenInfo[] memory list = new TokenInfo[](SaleTokenList.length);\r\n\r\n        for (uint256 i = 0; i < SaleTokenList.length; i++) {\r\n            uint tokenId = SaleTokenList[i];\r\n            uint price = tokenPrices[tokenId];\r\n            //     \r\n            list[i] = TokenInfo(tokenId, price);\r\n        }\r\n        return list;\r\n    }\r\n\r\n    //  NFT   \r\n    function getOwnerToken(address _tokenOwner) public view returns (TokenInfo[] memory) {\r\n        uint balance = Token.balanceOf(_tokenOwner);\r\n\r\n        require(balance > 0);\r\n\r\n        TokenInfo[] memory list = new TokenInfo[](balance);\r\n\r\n        for (uint256 i = 0; i < balance; i++) {\r\n            //      .\r\n            uint tokenId = Token.tokenOfOwnerByIndex(_tokenOwner, i);\r\n            uint price = tokenPrices[tokenId];\r\n\r\n            //     \r\n            list[i] = TokenInfo(tokenId, price);\r\n        }\r\n\r\n        return list;\r\n    }\r\n\r\n    //       \r\n    function getLatestToken(address _tokenOwner) public view returns (TokenInfo memory) {\r\n        //   \r\n        uint balance = Token.balanceOf(_tokenOwner);\r\n\r\n        //    \r\n        uint tokenId = Token.tokenOfOwnerByIndex(_tokenOwner, balance - 1);\r\n        uint price = tokenPrices[tokenId];\r\n\r\n        return TokenInfo(tokenId, price);\r\n    }\r\n\r\n}   ",
  "sourcePath": "C:\\Users\\KGA_029\\Desktop\\projects\\EGG-NFT-STORE\\back\\contracts\\SaleToken.sol",
  "compiler": {
    "name": "solc",
    "version": "0.8.17+commit.8df45f5f.Emscripten.clang"
  },
  "schemaVersion": "3.4.11",
  "updatedAt": "2022-12-22T06:02:53.548Z",
  "networkType": "ethereum",
  "devdoc": {
    "kind": "dev",
    "methods": {},
    "version": 1
  },
  "userdoc": {
    "kind": "user",
    "methods": {},
    "version": 1
  }
}