{
  "contractName": "SaleToken",
  "abi": [
    {
      "inputs": [
        {
          "internalType": "address",
          "name": "_eggTokenCA",
          "type": "address"
        }
      ],
      "stateMutability": "nonpayable",
      "type": "constructor"
    },
    {
      "anonymous": false,
      "inputs": [
        {
          "indexed": false,
          "internalType": "uint256",
          "name": "tokenId",
          "type": "uint256"
        },
        {
          "indexed": false,
          "internalType": "string",
          "name": "state",
          "type": "string"
        },
        {
          "indexed": false,
          "internalType": "uint256",
          "name": "price",
          "type": "uint256"
        },
        {
          "indexed": false,
          "internalType": "address",
          "name": "from",
          "type": "address"
        },
        {
          "indexed": false,
          "internalType": "address",
          "name": "to",
          "type": "address"
        }
      ],
      "name": "List",
      "type": "event"
    },
    {
      "anonymous": false,
      "inputs": [
        {
          "indexed": false,
          "internalType": "uint256",
          "name": "tokenId",
          "type": "uint256"
        },
        {
          "indexed": false,
          "internalType": "string",
          "name": "state",
          "type": "string"
        },
        {
          "indexed": false,
          "internalType": "uint256",
          "name": "price",
          "type": "uint256"
        },
        {
          "indexed": false,
          "internalType": "address",
          "name": "from",
          "type": "address"
        },
        {
          "indexed": false,
          "internalType": "address",
          "name": "to",
          "type": "address"
        }
      ],
      "name": "Sale",
      "type": "event"
    },
    {
      "anonymous": false,
      "inputs": [
        {
          "indexed": false,
          "internalType": "uint256",
          "name": "tokenId",
          "type": "uint256"
        },
        {
          "indexed": false,
          "internalType": "string",
          "name": "state",
          "type": "string"
        },
        {
          "indexed": false,
          "internalType": "uint256",
          "name": "price",
          "type": "uint256"
        },
        {
          "indexed": false,
          "internalType": "address",
          "name": "from",
          "type": "address"
        },
        {
          "indexed": false,
          "internalType": "address",
          "name": "to",
          "type": "address"
        }
      ],
      "name": "Transfer",
      "type": "event"
    },
    {
      "inputs": [
        {
          "internalType": "uint256",
          "name": "",
          "type": "uint256"
        }
      ],
      "name": "SaleTokenList",
      "outputs": [
        {
          "internalType": "uint256",
          "name": "",
          "type": "uint256"
        }
      ],
      "stateMutability": "view",
      "type": "function"
    },
    {
      "inputs": [],
      "name": "Token",
      "outputs": [
        {
          "internalType": "contract EggToken",
          "name": "",
          "type": "address"
        }
      ],
      "stateMutability": "view",
      "type": "function"
    },
    {
      "inputs": [
        {
          "internalType": "uint256",
          "name": "",
          "type": "uint256"
        }
      ],
      "name": "tokenPrices",
      "outputs": [
        {
          "internalType": "uint256",
          "name": "",
          "type": "uint256"
        }
      ],
      "stateMutability": "view",
      "type": "function"
    },
    {
      "inputs": [
        {
          "internalType": "uint256",
          "name": "_tokenId",
          "type": "uint256"
        },
        {
          "internalType": "uint256",
          "name": "_price",
          "type": "uint256"
        }
      ],
      "name": "ListFotSaleToken",
      "outputs": [],
      "stateMutability": "nonpayable",
      "type": "function"
    },
    {
      "inputs": [
        {
          "internalType": "uint256",
          "name": "_tokenId",
          "type": "uint256"
        }
      ],
      "name": "PurchaseToken",
      "outputs": [],
      "stateMutability": "payable",
      "type": "function"
    },
    {
      "inputs": [],
      "name": "getSaleTokenList",
      "outputs": [
        {
          "components": [
            {
              "internalType": "uint256",
              "name": "tokenId",
              "type": "uint256"
            },
            {
              "internalType": "uint256",
              "name": "price",
              "type": "uint256"
            }
          ],
          "internalType": "struct SaleToken.TokenInfo[]",
          "name": "",
          "type": "tuple[]"
        }
      ],
      "stateMutability": "view",
      "type": "function"
    },
    {
      "inputs": [
        {
          "internalType": "address",
          "name": "_tokenOwner",
          "type": "address"
        }
      ],
      "name": "getOwnerToken",
      "outputs": [
        {
          "components": [
            {
              "internalType": "uint256",
              "name": "tokenId",
              "type": "uint256"
            },
            {
              "internalType": "uint256",
              "name": "price",
              "type": "uint256"
            }
          ],
          "internalType": "struct SaleToken.TokenInfo[]",
          "name": "",
          "type": "tuple[]"
        }
      ],
      "stateMutability": "view",
      "type": "function"
    },
    {
      "inputs": [
        {
          "internalType": "address",
          "name": "_tokenOwner",
          "type": "address"
        }
      ],
      "name": "getLatestToken",
      "outputs": [
        {
          "components": [
            {
              "internalType": "uint256",
              "name": "tokenId",
              "type": "uint256"
            },
            {
              "internalType": "uint256",
              "name": "price",
              "type": "uint256"
            }
          ],
          "internalType": "struct SaleToken.TokenInfo",
          "name": "",
          "type": "tuple"
        }
      ],
      "stateMutability": "view",
      "type": "function"
    }
  ],
  "bytecode": "0x60806040523480156200001157600080fd5b5060405162001894380380620018948339818101604052810190620000379190620000e8565b806000806101000a81548173ffffffffffffffffffffffffffffffffffffffff021916908373ffffffffffffffffffffffffffffffffffffffff160217905550506200011a565b600080fd5b600073ffffffffffffffffffffffffffffffffffffffff82169050919050565b6000620000b08262000083565b9050919050565b620000c281620000a3565b8114620000ce57600080fd5b50565b600081519050620000e281620000b7565b92915050565b6000602082840312156200010157620001006200007e565b5b60006200011184828501620000d1565b91505092915050565b61176a806200012a6000396000f3fe60806040526004361061007b5760003560e01c8063a4ad760b1161004e578063a4ad760b14610141578063c24126761461017e578063e5afe3e6146101a9578063efc5582e146101e65761007b565b80630c8cc569146100805780633048f512146100bd5780634e4dc988146100d9578063966c057414610104575b600080fd5b34801561008c57600080fd5b506100a760048036038101906100a29190610d59565b61020f565b6040516100b49190610d95565b60405180910390f35b6100d760048036038101906100d29190610d59565b610233565b005b3480156100e557600080fd5b506100ee610564565b6040516100fb9190610e9d565b60405180910390f35b34801561011057600080fd5b5061012b60048036038101906101269190610f1d565b610670565b6040516101389190610e9d565b60405180910390f35b34801561014d57600080fd5b5061016860048036038101906101639190610f1d565b61088d565b6040516101759190610f79565b60405180910390f35b34801561018a57600080fd5b50610193610a18565b6040516101a09190610ff3565b60405180910390f35b3480156101b557600080fd5b506101d060048036038101906101cb9190610d59565b610a3c565b6040516101dd9190610d95565b60405180910390f35b3480156101f257600080fd5b5061020d6004803603810190610208919061100e565b610a54565b005b6002818154811061021f57600080fd5b906000526020600020016000915090505481565b60008060009054906101000a900473ffffffffffffffffffffffffffffffffffffffff1673ffffffffffffffffffffffffffffffffffffffff16636352211e836040518263ffffffff1660e01b815260040161028f9190610d95565b602060405180830381865afa1580156102ac573d6000803e3d6000fd5b505050506040513d601f19601f820116820180604052508101906102d09190611063565b90503373ffffffffffffffffffffffffffffffffffffffff168173ffffffffffffffffffffffffffffffffffffffff1603610340576040517f08c379a0000000000000000000000000000000000000000000000000000000008152600401610337906110ed565b60405180910390fd5b6000600160008481526020019081526020016000205411610396576040517f08c379a000000000000000000000000000000000000000000000000000000000815260040161038d90611159565b60405180910390fd5b34600160008481526020019081526020016000205411156103ec576040517f08c379a00000000000000000000000000000000000000000000000000000000081526004016103e3906111eb565b60405180910390fd5b8073ffffffffffffffffffffffffffffffffffffffff166108fc349081150290604051600060405180830381858888f19350505050158015610432573d6000803e3d6000fd5b5060008054906101000a900473ffffffffffffffffffffffffffffffffffffffff1673ffffffffffffffffffffffffffffffffffffffff166323b872dd8233856040518463ffffffff1660e01b81526004016104909392919061121a565b600060405180830381600087803b1580156104aa57600080fd5b505af11580156104be573d6000803e3d6000fd5b50505050600060016000848152602001908152602001600020819055506104e482610c28565b507fc19cc4853052017037beb34f01d8098f4389b76c5a752a960ee68c73f7d06c928234833360405161051a949392919061129d565b60405180910390a17f5d8149e46829a28f28ce1ffc2eeaca852a7b6f68d02440645c1c2ec7bceafb6b8260008333604051610558949392919061137c565b60405180910390a15050565b606060006002805490501161057857600080fd5b600060028054905067ffffffffffffffff811115610599576105986113d4565b5b6040519080825280602002602001820160405280156105d257816020015b6105bf610d04565b8152602001906001900390816105b75790505b50905060005b600280549050811015610668576000600282815481106105fb576105fa611403565b5b9060005260206000200154905060006001600083815260200190815260200160002054905060405180604001604052808381526020018281525084848151811061064857610647611403565b5b60200260200101819052505050808061066090611461565b9150506105d8565b508091505090565b606060008060009054906101000a900473ffffffffffffffffffffffffffffffffffffffff1673ffffffffffffffffffffffffffffffffffffffff166370a08231846040518263ffffffff1660e01b81526004016106ce91906114a9565b602060405180830381865afa1580156106eb573d6000803e3d6000fd5b505050506040513d601f19601f8201168201806040525081019061070f91906114d9565b90506000811161071e57600080fd5b60008167ffffffffffffffff81111561073a576107396113d4565b5b60405190808252806020026020018201604052801561077357816020015b610760610d04565b8152602001906001900390816107585790505b50905060005b828110156108825760008060009054906101000a900473ffffffffffffffffffffffffffffffffffffffff1673ffffffffffffffffffffffffffffffffffffffff16632f745c5987846040518363ffffffff1660e01b81526004016107df929190611506565b602060405180830381865afa1580156107fc573d6000803e3d6000fd5b505050506040513d601f19601f8201168201806040525081019061082091906114d9565b905060006001600083815260200190815260200160002054905060405180604001604052808381526020018281525084848151811061086257610861611403565b5b60200260200101819052505050808061087a90611461565b915050610779565b508092505050919050565b610895610d04565b60008060009054906101000a900473ffffffffffffffffffffffffffffffffffffffff1673ffffffffffffffffffffffffffffffffffffffff166370a08231846040518263ffffffff1660e01b81526004016108f191906114a9565b602060405180830381865afa15801561090e573d6000803e3d6000fd5b505050506040513d601f19601f8201168201806040525081019061093291906114d9565b905060008060009054906101000a900473ffffffffffffffffffffffffffffffffffffffff1673ffffffffffffffffffffffffffffffffffffffff16632f745c5985600185610981919061152f565b6040518363ffffffff1660e01b815260040161099e929190611506565b602060405180830381865afa1580156109bb573d6000803e3d6000fd5b505050506040513d601f19601f820116820180604052508101906109df91906114d9565b90506000600160008381526020019081526020016000205490506040518060400160405280838152602001828152509350505050919050565b60008054906101000a900473ffffffffffffffffffffffffffffffffffffffff1681565b60016020528060005260406000206000915090505481565b60008060009054906101000a900473ffffffffffffffffffffffffffffffffffffffff1673ffffffffffffffffffffffffffffffffffffffff16636352211e846040518263ffffffff1660e01b8152600401610ab09190610d95565b602060405180830381865afa158015610acd573d6000803e3d6000fd5b505050506040513d601f19601f82011682018060405250810190610af19190611063565b905060008211610b36576040517f08c379a0000000000000000000000000000000000000000000000000000000008152600401610b2d906115d5565b60405180910390fd5b8073ffffffffffffffffffffffffffffffffffffffff163373ffffffffffffffffffffffffffffffffffffffff1614610ba4576040517f08c379a0000000000000000000000000000000000000000000000000000000008152600401610b9b90611641565b60405180910390fd5b81600160008581526020019081526020016000208190555060028390806001815401808255809150506001900390600052602060002001600090919091909150557fb538b7aa8f82bf2bb7b47d413f2cee6c596f1233826e04667dec9b1fd8578c218383336000604051610c1b94939291906116ad565b60405180910390a1505050565b600080600090505b600280549050811015610cf9578260028281548110610c5257610c51611403565b5b906000526020600020015403610ce65760026001600280549050610c76919061152f565b81548110610c8757610c86611403565b5b906000526020600020015460028281548110610ca657610ca5611403565b5b90600052602060002001819055506002805480610cc657610cc5611705565b5b600190038181906000526020600020016000905590556001915050610cff565b8080610cf190611461565b915050610c30565b50600090505b919050565b604051806040016040528060008152602001600081525090565b600080fd5b6000819050919050565b610d3681610d23565b8114610d4157600080fd5b50565b600081359050610d5381610d2d565b92915050565b600060208284031215610d6f57610d6e610d1e565b5b6000610d7d84828501610d44565b91505092915050565b610d8f81610d23565b82525050565b6000602082019050610daa6000830184610d86565b92915050565b600081519050919050565b600082825260208201905092915050565b6000819050602082019050919050565b610de581610d23565b82525050565b604082016000820151610e016000850182610ddc565b506020820151610e146020850182610ddc565b50505050565b6000610e268383610deb565b60408301905092915050565b6000602082019050919050565b6000610e4a82610db0565b610e548185610dbb565b9350610e5f83610dcc565b8060005b83811015610e90578151610e778882610e1a565b9750610e8283610e32565b925050600181019050610e63565b5085935050505092915050565b60006020820190508181036000830152610eb78184610e3f565b905092915050565b600073ffffffffffffffffffffffffffffffffffffffff82169050919050565b6000610eea82610ebf565b9050919050565b610efa81610edf565b8114610f0557600080fd5b50565b600081359050610f1781610ef1565b92915050565b600060208284031215610f3357610f32610d1e565b5b6000610f4184828501610f08565b91505092915050565b604082016000820151610f606000850182610ddc565b506020820151610f736020850182610ddc565b50505050565b6000604082019050610f8e6000830184610f4a565b92915050565b6000819050919050565b6000610fb9610fb4610faf84610ebf565b610f94565b610ebf565b9050919050565b6000610fcb82610f9e565b9050919050565b6000610fdd82610fc0565b9050919050565b610fed81610fd2565b82525050565b60006020820190506110086000830184610fe4565b92915050565b6000806040838503121561102557611024610d1e565b5b600061103385828601610d44565b925050602061104485828601610d44565b9150509250929050565b60008151905061105d81610ef1565b92915050565b60006020828403121561107957611078610d1e565b5b60006110878482850161104e565b91505092915050565b600082825260208201905092915050565b7f4f776e65722063616e6e6f742062757900000000000000000000000000000000600082015250565b60006110d7601083611090565b91506110e2826110a1565b602082019050919050565b60006020820190508181036000830152611106816110ca565b9050919050565b7f546f6b656e7320617265206e6f7420666f722073616c65000000000000000000600082015250565b6000611143601783611090565b915061114e8261110d565b602082019050919050565b6000602082019050818103600083015261117281611136565b9050919050565b7f4f66666572206d6f7265207468616e207468652073656c6c696e67207072696360008201527f6500000000000000000000000000000000000000000000000000000000000000602082015250565b60006111d5602183611090565b91506111e082611179565b604082019050919050565b60006020820190508181036000830152611204816111c8565b9050919050565b61121481610edf565b82525050565b600060608201905061122f600083018661120b565b61123c602083018561120b565b6112496040830184610d86565b949350505050565b7f53616c6500000000000000000000000000000000000000000000000000000000600082015250565b6000611287600483611090565b915061129282611251565b602082019050919050565b600060a0820190506112b26000830187610d86565b81810360208301526112c38161127a565b90506112d26040830186610d86565b6112df606083018561120b565b6112ec608083018461120b565b95945050505050565b7f5472616e73666572000000000000000000000000000000000000000000000000600082015250565b600061132b600883611090565b9150611336826112f5565b602082019050919050565b6000819050919050565b600061136661136161135c84611341565b610f94565b610d23565b9050919050565b6113768161134b565b82525050565b600060a0820190506113916000830187610d86565b81810360208301526113a28161131e565b90506113b1604083018661136d565b6113be606083018561120b565b6113cb608083018461120b565b95945050505050565b7f4e487b7100000000000000000000000000000000000000000000000000000000600052604160045260246000fd5b7f4e487b7100000000000000000000000000000000000000000000000000000000600052603260045260246000fd5b7f4e487b7100000000000000000000000000000000000000000000000000000000600052601160045260246000fd5b600061146c82610d23565b91507fffffffffffffffffffffffffffffffffffffffffffffffffffffffffffffffff820361149e5761149d611432565b5b600182019050919050565b60006020820190506114be600083018461120b565b92915050565b6000815190506114d381610d2d565b92915050565b6000602082840312156114ef576114ee610d1e565b5b60006114fd848285016114c4565b91505092915050565b600060408201905061151b600083018561120b565b6115286020830184610d86565b9392505050565b600061153a82610d23565b915061154583610d23565b925082820390508181111561155d5761155c611432565b5b92915050565b7f5468652073656c6c696e67207072696365206d757374206265206174206c656160008201527f7374207a65726f00000000000000000000000000000000000000000000000000602082015250565b60006115bf602783611090565b91506115ca82611563565b604082019050919050565b600060208201905081810360008301526115ee816115b2565b9050919050565b7f6265206e6f7420746865206f776e657200000000000000000000000000000000600082015250565b600061162b601083611090565b9150611636826115f5565b602082019050919050565b6000602082019050818103600083015261165a8161161e565b9050919050565b7f4c69737400000000000000000000000000000000000000000000000000000000600082015250565b6000611697600483611090565b91506116a282611661565b602082019050919050565b600060a0820190506116c26000830187610d86565b81810360208301526116d38161168a565b90506116e26040830186610d86565b6116ef606083018561120b565b6116fc608083018461120b565b95945050505050565b7f4e487b7100000000000000000000000000000000000000000000000000000000600052603160045260246000fdfea26469706673582212201481f33cdccf66f064a28e64f680b420e9f384cdc88fc3fb60cd122284eda63264736f6c63430008110033",
  "immutableReferences": {},
  "source": "// SPDX-License-Identifier:MIT\r\npragma solidity ^0.8.17;\r\n\r\nimport \"./EggToken.sol\";\r\n\r\ncontract SaleToken {\r\n    // EggToken  \r\n    EggToken public Token;\r\n\r\n    // token  => price( );\r\n    mapping(uint => uint) public tokenPrices;\r\n\r\n    //   \r\n    struct TokenInfo {\r\n        uint tokenId;\r\n        uint price;\r\n    }\r\n\r\n    uint[] public SaleTokenList;\r\n\r\n    //    \r\n    event List(uint tokenId, string state, uint price, address from, address to);\r\n\r\n    //   \r\n    event Sale(uint tokenId, string state, uint price, address from, address to);\r\n\r\n    //   \r\n    event Transfer(uint tokenId, string state, uint price, address from, address to);\r\n\r\n    //   EggToken CA  Token  .\r\n    constructor(address _eggTokenCA) {\r\n        Token = EggToken(_eggTokenCA);\r\n    }\r\n\r\n    //   \r\n    function ListFotSaleToken(uint _tokenId, uint _price) public {\r\n        address tokenOwner = Token.ownerOf(_tokenId);\r\n\r\n        //  0   \r\n        require(_price > 0, \"The selling price must be at least zero\");\r\n\r\n        //   ()    .\r\n        require(msg.sender == tokenOwner, \"be not the owner\" );\r\n\r\n        // require(Token.isApprovedForAll(msg.sender, address(this)), \"approve caller is not owner nor approved for all\");\r\n\r\n        //     .\r\n        tokenPrices[_tokenId] = _price;\r\n\r\n        //    \r\n        SaleTokenList.push(_tokenId);\r\n\r\n        emit List(_tokenId, \"List\", _price, msg.sender, address(0));\r\n    }\r\n\r\n    function PurchaseToken(uint _tokenId) public payable {\r\n        //   \r\n        address tokenOwner = Token.ownerOf(_tokenId);\r\n\r\n        //       .\r\n        require(tokenOwner != msg.sender, \"Owner cannot buy\");\r\n\r\n        //      .\r\n        require(tokenPrices[_tokenId] > 0, \"Tokens are not for sale\");\r\n\r\n        //       .\r\n        require(tokenPrices[_tokenId] <= msg.value, \"Offer more than the selling price\");\r\n\r\n        // CA    .\r\n        payable(tokenOwner).transfer(msg.value);\r\n        \r\n        //    .\r\n        // Token.newTransfer(msg.sender, _tokenId);\r\n        Token.transferFrom(tokenOwner, msg.sender, _tokenId);\r\n        //   0    .\r\n        tokenPrices[_tokenId] = 0;   \r\n\r\n        popSaleToken(_tokenId); \r\n\r\n        emit Sale(_tokenId, \"Sale\", msg.value, tokenOwner, msg.sender);\r\n        emit Transfer(_tokenId, \"Transfer\", 0, tokenOwner, msg.sender);\r\n    }\r\n\r\n    function popSaleToken(uint _tokenId) private returns (bool) {\r\n        for (uint256 i = 0; i < SaleTokenList.length; i++) {\r\n            if(SaleTokenList[i] == _tokenId){\r\n                //       \r\n                SaleTokenList[i] = SaleTokenList[SaleTokenList.length - 1];\r\n\r\n                //    \r\n                SaleTokenList.pop();\r\n                return true;\r\n            }\r\n        }\r\n        return false;\r\n    }\r\n    \r\n    //     view\r\n    function getSaleTokenList() public view returns (TokenInfo[] memory){\r\n        \r\n        //       \r\n        require(SaleTokenList.length > 0);\r\n        \r\n        TokenInfo[] memory list = new TokenInfo[](SaleTokenList.length);\r\n\r\n        for (uint256 i = 0; i < SaleTokenList.length; i++) {\r\n            uint tokenId = SaleTokenList[i];\r\n            uint price = tokenPrices[tokenId];\r\n            //     \r\n            list[i] = TokenInfo(tokenId, price);\r\n        }\r\n        return list;\r\n    }\r\n\r\n    //  NFT   \r\n    function getOwnerToken(address _tokenOwner) public view returns (TokenInfo[] memory) {\r\n        uint balance = Token.balanceOf(_tokenOwner);\r\n\r\n        require(balance > 0);\r\n\r\n        TokenInfo[] memory list = new TokenInfo[](balance);\r\n\r\n        for (uint256 i = 0; i < balance; i++) {\r\n            //      .\r\n            uint tokenId = Token.tokenOfOwnerByIndex(_tokenOwner, i);\r\n            uint price = tokenPrices[tokenId];\r\n\r\n            //     \r\n            list[i] = TokenInfo(tokenId, price);\r\n        }\r\n\r\n        return list;\r\n    }\r\n\r\n    //       \r\n    function getLatestToken(address _tokenOwner) public view returns (TokenInfo memory) {\r\n        //   \r\n        uint balance = Token.balanceOf(_tokenOwner);\r\n\r\n        //    \r\n        uint tokenId = Token.tokenOfOwnerByIndex(_tokenOwner, balance - 1);\r\n        uint price = tokenPrices[tokenId];\r\n\r\n        return TokenInfo(tokenId, price);\r\n    }\r\n\r\n}   ",
  "sourcePath": "C:\\Users\\natay\\OneDrive\\ \\coding\\Projects\\EGG-NFT-STORE\\back\\contracts\\SaleToken.sol",
  "compiler": {
    "name": "solc",
    "version": "0.8.17+commit.8df45f5f.Emscripten.clang"
  },
  "schemaVersion": "3.4.11",
  "updatedAt": "2022-12-22T15:24:26.551Z",
  "devdoc": {
    "kind": "dev",
    "methods": {},
    "version": 1
  },
  "userdoc": {
    "kind": "user",
    "methods": {},
    "version": 1
  }
}